Archive member included to satisfy reference by file (symbol)

c:/program files (x86)/atollic/truestudio for stm32 9.1.0/armtools/bin/../lib/gcc/arm-atollic-eabi/6.3.1/../../../../arm-atollic-eabi/lib/armv7e-m/fpu\libc_nano.a(lib_a-init.o)
                              Startup\startup_stm32f427xx.o (__libc_init_array)
c:/program files (x86)/atollic/truestudio for stm32 9.1.0/armtools/bin/../lib/gcc/arm-atollic-eabi/6.3.1/../../../../arm-atollic-eabi/lib/armv7e-m/fpu\libc_nano.a(lib_a-isdigit.o)
                              01_Common\02_CLI\00_CLI_ENGINE\cli_parser.o (isdigit)
c:/program files (x86)/atollic/truestudio for stm32 9.1.0/armtools/bin/../lib/gcc/arm-atollic-eabi/6.3.1/../../../../arm-atollic-eabi/lib/armv7e-m/fpu\libc_nano.a(lib_a-isxdigit.o)
                              01_Common\02_CLI\00_CLI_ENGINE\cli_parser.o (isxdigit)
c:/program files (x86)/atollic/truestudio for stm32 9.1.0/armtools/bin/../lib/gcc/arm-atollic-eabi/6.3.1/../../../../arm-atollic-eabi/lib/armv7e-m/fpu\libc_nano.a(lib_a-locale.o)
                              01_Common\02_CLI\00_CLI_ENGINE\cli_engine.o (__locale_ctype_ptr)
c:/program files (x86)/atollic/truestudio for stm32 9.1.0/armtools/bin/../lib/gcc/arm-atollic-eabi/6.3.1/../../../../arm-atollic-eabi/lib/armv7e-m/fpu\libc_nano.a(lib_a-mbtowc_r.o)
                              c:/program files (x86)/atollic/truestudio for stm32 9.1.0/armtools/bin/../lib/gcc/arm-atollic-eabi/6.3.1/../../../../arm-atollic-eabi/lib/armv7e-m/fpu\libc_nano.a(lib_a-locale.o) (__ascii_mbtowc)
c:/program files (x86)/atollic/truestudio for stm32 9.1.0/armtools/bin/../lib/gcc/arm-atollic-eabi/6.3.1/../../../../arm-atollic-eabi/lib/armv7e-m/fpu\libc_nano.a(lib_a-memcpy-stub.o)
                              01_Common\02_CLI\00_CLI_ENGINE\cli_parser.o (memcpy)
c:/program files (x86)/atollic/truestudio for stm32 9.1.0/armtools/bin/../lib/gcc/arm-atollic-eabi/6.3.1/../../../../arm-atollic-eabi/lib/armv7e-m/fpu\libc_nano.a(lib_a-memset.o)
                              01_Common\02_CLI\00_CLI_ENGINE\cli_parser.o (memset)
c:/program files (x86)/atollic/truestudio for stm32 9.1.0/armtools/bin/../lib/gcc/arm-atollic-eabi/6.3.1/../../../../arm-atollic-eabi/lib/armv7e-m/fpu\libc_nano.a(lib_a-snprintf.o)
                              01_Common\02_CLI\00_CLI_ENGINE\cli_io.o (snprintf)
c:/program files (x86)/atollic/truestudio for stm32 9.1.0/armtools/bin/../lib/gcc/arm-atollic-eabi/6.3.1/../../../../arm-atollic-eabi/lib/armv7e-m/fpu\libc_nano.a(lib_a-sprintf.o)
                              01_Common\02_CLI\00_CLI_ENGINE\cli_msg.o (sprintf)
c:/program files (x86)/atollic/truestudio for stm32 9.1.0/armtools/bin/../lib/gcc/arm-atollic-eabi/6.3.1/../../../../arm-atollic-eabi/lib/armv7e-m/fpu\libc_nano.a(lib_a-sscanf.o)
                              01_Common\02_CLI\02_CLI_CTRY\cli_control_func_ctry.o (sscanf)
c:/program files (x86)/atollic/truestudio for stm32 9.1.0/armtools/bin/../lib/gcc/arm-atollic-eabi/6.3.1/../../../../arm-atollic-eabi/lib/armv7e-m/fpu\libc_nano.a(lib_a-stdio.o)
                              c:/program files (x86)/atollic/truestudio for stm32 9.1.0/armtools/bin/../lib/gcc/arm-atollic-eabi/6.3.1/../../../../arm-atollic-eabi/lib/armv7e-m/fpu\libc_nano.a(lib_a-sscanf.o) (__seofread)
c:/program files (x86)/atollic/truestudio for stm32 9.1.0/armtools/bin/../lib/gcc/arm-atollic-eabi/6.3.1/../../../../arm-atollic-eabi/lib/armv7e-m/fpu\libc_nano.a(lib_a-strchr.o)
                              01_Common\01_BSP\03_UART\uart.o (strchr)
c:/program files (x86)/atollic/truestudio for stm32 9.1.0/armtools/bin/../lib/gcc/arm-atollic-eabi/6.3.1/../../../../arm-atollic-eabi/lib/armv7e-m/fpu\libc_nano.a(lib_a-strcmp.o)
                              01_Common\02_CLI\00_CLI_ENGINE\cli_engine.o (strcmp)
c:/program files (x86)/atollic/truestudio for stm32 9.1.0/armtools/bin/../lib/gcc/arm-atollic-eabi/6.3.1/../../../../arm-atollic-eabi/lib/armv7e-m/fpu\libc_nano.a(lib_a-strcpy.o)
                              01_Common\02_CLI\00_CLI_ENGINE\cli_engine.o (strcpy)
c:/program files (x86)/atollic/truestudio for stm32 9.1.0/armtools/bin/../lib/gcc/arm-atollic-eabi/6.3.1/../../../../arm-atollic-eabi/lib/armv7e-m/fpu\libc_nano.a(lib_a-strlen.o)
                              01_Common\01_BSP\03_UART\uart.o (strlen)
c:/program files (x86)/atollic/truestudio for stm32 9.1.0/armtools/bin/../lib/gcc/arm-atollic-eabi/6.3.1/../../../../arm-atollic-eabi/lib/armv7e-m/fpu\libc_nano.a(lib_a-strncat.o)
                              01_Common\02_CLI\00_CLI_ENGINE\cli_parser.o (strncat)
c:/program files (x86)/atollic/truestudio for stm32 9.1.0/armtools/bin/../lib/gcc/arm-atollic-eabi/6.3.1/../../../../arm-atollic-eabi/lib/armv7e-m/fpu\libc_nano.a(lib_a-strncmp.o)
                              01_Common\02_CLI\00_CLI_ENGINE\cli_engine.o (strncmp)
c:/program files (x86)/atollic/truestudio for stm32 9.1.0/armtools/bin/../lib/gcc/arm-atollic-eabi/6.3.1/../../../../arm-atollic-eabi/lib/armv7e-m/fpu\libc_nano.a(lib_a-strncpy.o)
                              01_Common\02_CLI\00_CLI_ENGINE\cli_engine.o (strncpy)
c:/program files (x86)/atollic/truestudio for stm32 9.1.0/armtools/bin/../lib/gcc/arm-atollic-eabi/6.3.1/../../../../arm-atollic-eabi/lib/armv7e-m/fpu\libc_nano.a(lib_a-strstr.o)
                              01_Common\02_CLI\02_CLI_CTRY\cli_debug_func_ctry.o (strstr)
c:/program files (x86)/atollic/truestudio for stm32 9.1.0/armtools/bin/../lib/gcc/arm-atollic-eabi/6.3.1/../../../../arm-atollic-eabi/lib/armv7e-m/fpu\libc_nano.a(lib_a-strtol.o)
                              01_Common\02_CLI\00_CLI_ENGINE\cli_engine.o (strtol)
c:/program files (x86)/atollic/truestudio for stm32 9.1.0/armtools/bin/../lib/gcc/arm-atollic-eabi/6.3.1/../../../../arm-atollic-eabi/lib/armv7e-m/fpu\libc_nano.a(lib_a-strtoul.o)
                              01_Common\02_CLI\00_CLI_ENGINE\cli_engine.o (strtoul)
c:/program files (x86)/atollic/truestudio for stm32 9.1.0/armtools/bin/../lib/gcc/arm-atollic-eabi/6.3.1/../../../../arm-atollic-eabi/lib/armv7e-m/fpu\libc_nano.a(lib_a-vsnprintf.o)
                              01_Common\02_CLI\00_CLI_ENGINE\cli_msg.o (vsnprintf)
c:/program files (x86)/atollic/truestudio for stm32 9.1.0/armtools/bin/../lib/gcc/arm-atollic-eabi/6.3.1/../../../../arm-atollic-eabi/lib/armv7e-m/fpu\libc_nano.a(lib_a-vsprintf.o)
                              01_Common\01_BSP\03_UART\uart.o (vsprintf)
c:/program files (x86)/atollic/truestudio for stm32 9.1.0/armtools/bin/../lib/gcc/arm-atollic-eabi/6.3.1/../../../../arm-atollic-eabi/lib/armv7e-m/fpu\libc_nano.a(lib_a-wctomb_r.o)
                              c:/program files (x86)/atollic/truestudio for stm32 9.1.0/armtools/bin/../lib/gcc/arm-atollic-eabi/6.3.1/../../../../arm-atollic-eabi/lib/armv7e-m/fpu\libc_nano.a(lib_a-locale.o) (__ascii_wctomb)
c:/program files (x86)/atollic/truestudio for stm32 9.1.0/armtools/bin/../lib/gcc/arm-atollic-eabi/6.3.1/../../../../arm-atollic-eabi/lib/armv7e-m/fpu\libc_nano.a(lib_a-writer.o)
                              c:/program files (x86)/atollic/truestudio for stm32 9.1.0/armtools/bin/../lib/gcc/arm-atollic-eabi/6.3.1/../../../../arm-atollic-eabi/lib/armv7e-m/fpu\libc_nano.a(lib_a-stdio.o) (_write_r)
c:/program files (x86)/atollic/truestudio for stm32 9.1.0/armtools/bin/../lib/gcc/arm-atollic-eabi/6.3.1/../../../../arm-atollic-eabi/lib/armv7e-m/fpu\libc_nano.a(lib_a-closer.o)
                              c:/program files (x86)/atollic/truestudio for stm32 9.1.0/armtools/bin/../lib/gcc/arm-atollic-eabi/6.3.1/../../../../arm-atollic-eabi/lib/armv7e-m/fpu\libc_nano.a(lib_a-stdio.o) (_close_r)
c:/program files (x86)/atollic/truestudio for stm32 9.1.0/armtools/bin/../lib/gcc/arm-atollic-eabi/6.3.1/../../../../arm-atollic-eabi/lib/armv7e-m/fpu\libc_nano.a(lib_a-ctype_.o)
                              c:/program files (x86)/atollic/truestudio for stm32 9.1.0/armtools/bin/../lib/gcc/arm-atollic-eabi/6.3.1/../../../../arm-atollic-eabi/lib/armv7e-m/fpu\libc_nano.a(lib_a-locale.o) (_ctype_)
c:/program files (x86)/atollic/truestudio for stm32 9.1.0/armtools/bin/../lib/gcc/arm-atollic-eabi/6.3.1/../../../../arm-atollic-eabi/lib/armv7e-m/fpu\libc_nano.a(lib_a-impure.o)
                              c:/program files (x86)/atollic/truestudio for stm32 9.1.0/armtools/bin/../lib/gcc/arm-atollic-eabi/6.3.1/../../../../arm-atollic-eabi/lib/armv7e-m/fpu\libc_nano.a(lib_a-locale.o) (_impure_ptr)
c:/program files (x86)/atollic/truestudio for stm32 9.1.0/armtools/bin/../lib/gcc/arm-atollic-eabi/6.3.1/../../../../arm-atollic-eabi/lib/armv7e-m/fpu\libc_nano.a(lib_a-lseekr.o)
                              c:/program files (x86)/atollic/truestudio for stm32 9.1.0/armtools/bin/../lib/gcc/arm-atollic-eabi/6.3.1/../../../../arm-atollic-eabi/lib/armv7e-m/fpu\libc_nano.a(lib_a-stdio.o) (_lseek_r)
c:/program files (x86)/atollic/truestudio for stm32 9.1.0/armtools/bin/../lib/gcc/arm-atollic-eabi/6.3.1/../../../../arm-atollic-eabi/lib/armv7e-m/fpu\libc_nano.a(lib_a-nano-svfprintf.o)
                              c:/program files (x86)/atollic/truestudio for stm32 9.1.0/armtools/bin/../lib/gcc/arm-atollic-eabi/6.3.1/../../../../arm-atollic-eabi/lib/armv7e-m/fpu\libc_nano.a(lib_a-snprintf.o) (_svfprintf_r)
c:/program files (x86)/atollic/truestudio for stm32 9.1.0/armtools/bin/../lib/gcc/arm-atollic-eabi/6.3.1/../../../../arm-atollic-eabi/lib/armv7e-m/fpu\libc_nano.a(lib_a-nano-svfscanf.o)
                              c:/program files (x86)/atollic/truestudio for stm32 9.1.0/armtools/bin/../lib/gcc/arm-atollic-eabi/6.3.1/../../../../arm-atollic-eabi/lib/armv7e-m/fpu\libc_nano.a(lib_a-sscanf.o) (__ssvfscanf_r)
c:/program files (x86)/atollic/truestudio for stm32 9.1.0/armtools/bin/../lib/gcc/arm-atollic-eabi/6.3.1/../../../../arm-atollic-eabi/lib/armv7e-m/fpu\libc_nano.a(lib_a-nano-vfprintf_i.o)
                              c:/program files (x86)/atollic/truestudio for stm32 9.1.0/armtools/bin/../lib/gcc/arm-atollic-eabi/6.3.1/../../../../arm-atollic-eabi/lib/armv7e-m/fpu\libc_nano.a(lib_a-nano-svfprintf.o) (_printf_i)
c:/program files (x86)/atollic/truestudio for stm32 9.1.0/armtools/bin/../lib/gcc/arm-atollic-eabi/6.3.1/../../../../arm-atollic-eabi/lib/armv7e-m/fpu\libc_nano.a(lib_a-nano-vfscanf_i.o)
                              c:/program files (x86)/atollic/truestudio for stm32 9.1.0/armtools/bin/../lib/gcc/arm-atollic-eabi/6.3.1/../../../../arm-atollic-eabi/lib/armv7e-m/fpu\libc_nano.a(lib_a-nano-svfscanf.o) (_scanf_chars)
c:/program files (x86)/atollic/truestudio for stm32 9.1.0/armtools/bin/../lib/gcc/arm-atollic-eabi/6.3.1/../../../../arm-atollic-eabi/lib/armv7e-m/fpu\libc_nano.a(lib_a-readr.o)
                              c:/program files (x86)/atollic/truestudio for stm32 9.1.0/armtools/bin/../lib/gcc/arm-atollic-eabi/6.3.1/../../../../arm-atollic-eabi/lib/armv7e-m/fpu\libc_nano.a(lib_a-stdio.o) (_read_r)
c:/program files (x86)/atollic/truestudio for stm32 9.1.0/armtools/bin/../lib/gcc/arm-atollic-eabi/6.3.1/../../../../arm-atollic-eabi/lib/armv7e-m/fpu\libc_nano.a(lib_a-reent.o)
                              c:/program files (x86)/atollic/truestudio for stm32 9.1.0/armtools/bin/../lib/gcc/arm-atollic-eabi/6.3.1/../../../../arm-atollic-eabi/lib/armv7e-m/fpu\libc_nano.a(lib_a-writer.o) (errno)
c:/program files (x86)/atollic/truestudio for stm32 9.1.0/armtools/bin/../lib/gcc/arm-atollic-eabi/6.3.1/../../../../arm-atollic-eabi/lib/armv7e-m/fpu\libc_nano.a(lib_a-sccl.o)
                              c:/program files (x86)/atollic/truestudio for stm32 9.1.0/armtools/bin/../lib/gcc/arm-atollic-eabi/6.3.1/../../../../arm-atollic-eabi/lib/armv7e-m/fpu\libc_nano.a(lib_a-nano-svfscanf.o) (__sccl)
c:/program files (x86)/atollic/truestudio for stm32 9.1.0/armtools/bin/../lib/gcc/arm-atollic-eabi/6.3.1/../../../../arm-atollic-eabi/lib/armv7e-m/fpu\libc_nano.a(lib_a-ungetc.o)
                              c:/program files (x86)/atollic/truestudio for stm32 9.1.0/armtools/bin/../lib/gcc/arm-atollic-eabi/6.3.1/../../../../arm-atollic-eabi/lib/armv7e-m/fpu\libc_nano.a(lib_a-nano-svfscanf.o) (__submore)
c:/program files (x86)/atollic/truestudio for stm32 9.1.0/armtools/bin/../lib/gcc/arm-atollic-eabi/6.3.1/../../../../arm-atollic-eabi/lib/armv7e-m/fpu\libc_nano.a(lib_a-fflush.o)
                              c:/program files (x86)/atollic/truestudio for stm32 9.1.0/armtools/bin/../lib/gcc/arm-atollic-eabi/6.3.1/../../../../arm-atollic-eabi/lib/armv7e-m/fpu\libc_nano.a(lib_a-ungetc.o) (_fflush_r)
c:/program files (x86)/atollic/truestudio for stm32 9.1.0/armtools/bin/../lib/gcc/arm-atollic-eabi/6.3.1/../../../../arm-atollic-eabi/lib/armv7e-m/fpu\libc_nano.a(lib_a-findfp.o)
                              c:/program files (x86)/atollic/truestudio for stm32 9.1.0/armtools/bin/../lib/gcc/arm-atollic-eabi/6.3.1/../../../../arm-atollic-eabi/lib/armv7e-m/fpu\libc_nano.a(lib_a-ungetc.o) (__sinit)
c:/program files (x86)/atollic/truestudio for stm32 9.1.0/armtools/bin/../lib/gcc/arm-atollic-eabi/6.3.1/../../../../arm-atollic-eabi/lib/armv7e-m/fpu\libc_nano.a(lib_a-fwalk.o)
                              c:/program files (x86)/atollic/truestudio for stm32 9.1.0/armtools/bin/../lib/gcc/arm-atollic-eabi/6.3.1/../../../../arm-atollic-eabi/lib/armv7e-m/fpu\libc_nano.a(lib_a-findfp.o) (_fwalk)
c:/program files (x86)/atollic/truestudio for stm32 9.1.0/armtools/bin/../lib/gcc/arm-atollic-eabi/6.3.1/../../../../arm-atollic-eabi/lib/armv7e-m/fpu\libc_nano.a(lib_a-memchr.o)
                              c:/program files (x86)/atollic/truestudio for stm32 9.1.0/armtools/bin/../lib/gcc/arm-atollic-eabi/6.3.1/../../../../arm-atollic-eabi/lib/armv7e-m/fpu\libc_nano.a(lib_a-nano-svfprintf.o) (memchr)
c:/program files (x86)/atollic/truestudio for stm32 9.1.0/armtools/bin/../lib/gcc/arm-atollic-eabi/6.3.1/../../../../arm-atollic-eabi/lib/armv7e-m/fpu\libc_nano.a(lib_a-memmove.o)
                              c:/program files (x86)/atollic/truestudio for stm32 9.1.0/armtools/bin/../lib/gcc/arm-atollic-eabi/6.3.1/../../../../arm-atollic-eabi/lib/armv7e-m/fpu\libc_nano.a(lib_a-nano-svfprintf.o) (memmove)
c:/program files (x86)/atollic/truestudio for stm32 9.1.0/armtools/bin/../lib/gcc/arm-atollic-eabi/6.3.1/../../../../arm-atollic-eabi/lib/armv7e-m/fpu\libc_nano.a(lib_a-nano-freer.o)
                              c:/program files (x86)/atollic/truestudio for stm32 9.1.0/armtools/bin/../lib/gcc/arm-atollic-eabi/6.3.1/../../../../arm-atollic-eabi/lib/armv7e-m/fpu\libc_nano.a(lib_a-nano-svfprintf.o) (_free_r)
c:/program files (x86)/atollic/truestudio for stm32 9.1.0/armtools/bin/../lib/gcc/arm-atollic-eabi/6.3.1/../../../../arm-atollic-eabi/lib/armv7e-m/fpu\libc_nano.a(lib_a-nano-mallocr.o)
                              c:/program files (x86)/atollic/truestudio for stm32 9.1.0/armtools/bin/../lib/gcc/arm-atollic-eabi/6.3.1/../../../../arm-atollic-eabi/lib/armv7e-m/fpu\libc_nano.a(lib_a-nano-svfprintf.o) (_malloc_r)
c:/program files (x86)/atollic/truestudio for stm32 9.1.0/armtools/bin/../lib/gcc/arm-atollic-eabi/6.3.1/../../../../arm-atollic-eabi/lib/armv7e-m/fpu\libc_nano.a(lib_a-nano-reallocr.o)
                              c:/program files (x86)/atollic/truestudio for stm32 9.1.0/armtools/bin/../lib/gcc/arm-atollic-eabi/6.3.1/../../../../arm-atollic-eabi/lib/armv7e-m/fpu\libc_nano.a(lib_a-nano-svfprintf.o) (_realloc_r)
c:/program files (x86)/atollic/truestudio for stm32 9.1.0/armtools/bin/../lib/gcc/arm-atollic-eabi/6.3.1/../../../../arm-atollic-eabi/lib/armv7e-m/fpu\libc_nano.a(lib_a-sbrkr.o)
                              c:/program files (x86)/atollic/truestudio for stm32 9.1.0/armtools/bin/../lib/gcc/arm-atollic-eabi/6.3.1/../../../../arm-atollic-eabi/lib/armv7e-m/fpu\libc_nano.a(lib_a-nano-mallocr.o) (_sbrk_r)
c:/program files (x86)/atollic/truestudio for stm32 9.1.0/armtools/bin/../lib/gcc/arm-atollic-eabi/6.3.1/../../../../arm-atollic-eabi/lib/armv7e-m/fpu\libc_nano.a(lib_a-mlock.o)
                              c:/program files (x86)/atollic/truestudio for stm32 9.1.0/armtools/bin/../lib/gcc/arm-atollic-eabi/6.3.1/../../../../arm-atollic-eabi/lib/armv7e-m/fpu\libc_nano.a(lib_a-nano-freer.o) (__malloc_lock)
c:/program files (x86)/atollic/truestudio for stm32 9.1.0/armtools/bin/../lib/gcc/arm-atollic-eabi/6.3.1/../../../../arm-atollic-eabi/lib/armv7e-m/fpu\libc_nano.a(lib_a-nano-msizer.o)
                              c:/program files (x86)/atollic/truestudio for stm32 9.1.0/armtools/bin/../lib/gcc/arm-atollic-eabi/6.3.1/../../../../arm-atollic-eabi/lib/armv7e-m/fpu\libc_nano.a(lib_a-nano-reallocr.o) (_malloc_usable_size_r)
c:/program files (x86)/atollic/truestudio for stm32 9.1.0/armtools/bin/../lib/gcc/arm-atollic-eabi/6.3.1/armv7e-m/fpu\libgcc.a(_arm_addsubdf3.o)
                              CTRY_Files\current_sensor.o (__aeabi_i2d)
c:/program files (x86)/atollic/truestudio for stm32 9.1.0/armtools/bin/../lib/gcc/arm-atollic-eabi/6.3.1/armv7e-m/fpu\libgcc.a(_arm_muldivdf3.o)
                              CTRY_Files\current_sensor.o (__aeabi_dmul)
c:/program files (x86)/atollic/truestudio for stm32 9.1.0/armtools/bin/../lib/gcc/arm-atollic-eabi/6.3.1/armv7e-m/fpu\libgcc.a(_arm_cmpdf2.o)
                              CTRY_Files\voltage_meas_ctry.o (__aeabi_dcmpeq)
c:/program files (x86)/atollic/truestudio for stm32 9.1.0/armtools/bin/../lib/gcc/arm-atollic-eabi/6.3.1/armv7e-m/fpu\libgcc.a(_arm_truncdfsf2.o)
                              CTRY_Files\current_sensor.o (__aeabi_d2f)
c:/program files (x86)/atollic/truestudio for stm32 9.1.0/armtools/bin/../lib/gcc/arm-atollic-eabi/6.3.1/armv7e-m/fpu\libgcc.a(_aeabi_uldivmod.o)
                              02_STM_Drivers\STM32F4xx_HAL_Driver\Src\gipsy_hal_rcc.o (__aeabi_uldivmod)
c:/program files (x86)/atollic/truestudio for stm32 9.1.0/armtools/bin/../lib/gcc/arm-atollic-eabi/6.3.1/armv7e-m/fpu\libgcc.a(_udivmoddi4.o)
                              c:/program files (x86)/atollic/truestudio for stm32 9.1.0/armtools/bin/../lib/gcc/arm-atollic-eabi/6.3.1/armv7e-m/fpu\libgcc.a(_aeabi_uldivmod.o) (__udivmoddi4)
c:/program files (x86)/atollic/truestudio for stm32 9.1.0/armtools/bin/../lib/gcc/arm-atollic-eabi/6.3.1/armv7e-m/fpu\libgcc.a(_dvmd_tls.o)
                              c:/program files (x86)/atollic/truestudio for stm32 9.1.0/armtools/bin/../lib/gcc/arm-atollic-eabi/6.3.1/armv7e-m/fpu\libgcc.a(_aeabi_uldivmod.o) (__aeabi_ldiv0)
c:/program files (x86)/atollic/truestudio for stm32 9.1.0/armtools/bin/../lib/gcc/arm-atollic-eabi/6.3.1/../../../../arm-atollic-eabi/lib/armv7e-m/fpu\libnosys.a(close.o)
                              c:/program files (x86)/atollic/truestudio for stm32 9.1.0/armtools/bin/../lib/gcc/arm-atollic-eabi/6.3.1/../../../../arm-atollic-eabi/lib/armv7e-m/fpu\libc_nano.a(lib_a-closer.o) (_close)
c:/program files (x86)/atollic/truestudio for stm32 9.1.0/armtools/bin/../lib/gcc/arm-atollic-eabi/6.3.1/../../../../arm-atollic-eabi/lib/armv7e-m/fpu\libnosys.a(lseek.o)
                              c:/program files (x86)/atollic/truestudio for stm32 9.1.0/armtools/bin/../lib/gcc/arm-atollic-eabi/6.3.1/../../../../arm-atollic-eabi/lib/armv7e-m/fpu\libc_nano.a(lib_a-lseekr.o) (_lseek)
c:/program files (x86)/atollic/truestudio for stm32 9.1.0/armtools/bin/../lib/gcc/arm-atollic-eabi/6.3.1/../../../../arm-atollic-eabi/lib/armv7e-m/fpu\libnosys.a(read.o)
                              c:/program files (x86)/atollic/truestudio for stm32 9.1.0/armtools/bin/../lib/gcc/arm-atollic-eabi/6.3.1/../../../../arm-atollic-eabi/lib/armv7e-m/fpu\libc_nano.a(lib_a-readr.o) (_read)
c:/program files (x86)/atollic/truestudio for stm32 9.1.0/armtools/bin/../lib/gcc/arm-atollic-eabi/6.3.1/../../../../arm-atollic-eabi/lib/armv7e-m/fpu\libnosys.a(sbrk.o)
                              c:/program files (x86)/atollic/truestudio for stm32 9.1.0/armtools/bin/../lib/gcc/arm-atollic-eabi/6.3.1/../../../../arm-atollic-eabi/lib/armv7e-m/fpu\libc_nano.a(lib_a-sbrkr.o) (_sbrk)
c:/program files (x86)/atollic/truestudio for stm32 9.1.0/armtools/bin/../lib/gcc/arm-atollic-eabi/6.3.1/../../../../arm-atollic-eabi/lib/armv7e-m/fpu\libnosys.a(write.o)
                              c:/program files (x86)/atollic/truestudio for stm32 9.1.0/armtools/bin/../lib/gcc/arm-atollic-eabi/6.3.1/../../../../arm-atollic-eabi/lib/armv7e-m/fpu\libc_nano.a(lib_a-writer.o) (_write)

Allocating common symbols
Common symbol       size              file

CommandLineBuff     0x800             01_Common\02_CLI\00_CLI_ENGINE\cli_parser.o
errno               0x4               c:/program files (x86)/atollic/truestudio for stm32 9.1.0/armtools/bin/../lib/gcc/arm-atollic-eabi/6.3.1/../../../../arm-atollic-eabi/lib/armv7e-m/fpu\libc_nano.a(lib_a-reent.o)
g_HandleUart3_Debug
                    0x38              CTRY_Files\board_cfg_ctry.o
cTermInBuf          0x1064            01_Common\01_BSP\03_UART\uart.o
g_HandleI2C_1_TempDrv
                    0x4c              CTRY_Files\board_cfg_ctry.o
g_HandleI2C_2_TempMcu
                    0x4c              CTRY_Files\board_cfg_ctry.o
gcBuffer            0x800             01_Common\01_BSP\03_UART\uart.o
g_HandleI2C_3_Accel
                    0x4c              CTRY_Files\board_cfg_ctry.o
rx_buffer           0x14              01_Common\01_BSP\03_UART\uart.o
CliHistory          0x328             01_Common\02_CLI\00_CLI_ENGINE\cli_parser.o
g_HandleTim4        0x1c              CTRY_Files\board_cfg_ctry.o
cCliCompleteBuf     0x1064            01_Common\01_BSP\03_UART\uart.o
cCliInBuf           0x1064            01_Common\01_BSP\03_UART\uart.o
g_HandleTim3        0x1c              CTRY_Files\board_cfg_ctry.o

Discarded input sections

 .text          0x00000000        0x0 c:/program files (x86)/atollic/truestudio for stm32 9.1.0/armtools/bin/../lib/gcc/arm-atollic-eabi/6.3.1/armv7e-m/fpu/crti.o
 .data          0x00000000        0x0 c:/program files (x86)/atollic/truestudio for stm32 9.1.0/armtools/bin/../lib/gcc/arm-atollic-eabi/6.3.1/armv7e-m/fpu/crti.o
 .bss           0x00000000        0x0 c:/program files (x86)/atollic/truestudio for stm32 9.1.0/armtools/bin/../lib/gcc/arm-atollic-eabi/6.3.1/armv7e-m/fpu/crti.o
 .data          0x00000000        0x4 c:/program files (x86)/atollic/truestudio for stm32 9.1.0/armtools/bin/../lib/gcc/arm-atollic-eabi/6.3.1/armv7e-m/fpu/crtbegin.o
 .group         0x00000000        0x8 01_Common\01_BSP\03_UART\uart.o
 .group         0x00000000        0x8 01_Common\01_BSP\03_UART\uart.o
 .group         0x00000000        0x8 01_Common\01_BSP\03_UART\uart.o
 .group         0x00000000        0x8 01_Common\01_BSP\03_UART\uart.o
 .group         0x00000000        0x8 01_Common\01_BSP\03_UART\uart.o
 .group         0x00000000        0x8 01_Common\01_BSP\03_UART\uart.o
 .group         0x00000000        0x8 01_Common\01_BSP\03_UART\uart.o
 .group         0x00000000        0x8 01_Common\01_BSP\03_UART\uart.o
 .group         0x00000000        0x8 01_Common\01_BSP\03_UART\uart.o
 .group         0x00000000        0x8 01_Common\01_BSP\03_UART\uart.o
 .group         0x00000000        0x8 01_Common\01_BSP\03_UART\uart.o
 .group         0x00000000        0x8 01_Common\01_BSP\03_UART\uart.o
 .group         0x00000000        0x8 01_Common\01_BSP\03_UART\uart.o
 .group         0x00000000        0x8 01_Common\01_BSP\03_UART\uart.o
Memory Configuration

Name             Origin             Length             Attributes
FLASH            0x08000000         0x00100000         xr
RAM              0x20000000         0x00030000         xrw
MEMORY_B1        0x60000000         0x00000000         xr
CCMRAM           0x10000000         0x00010000         rw
*default*        0x00000000         0xffffffff

Linker script and memory map

LOAD c:/program files (x86)/atollic/truestudio for stm32 9.1.0/armtools/bin/../lib/gcc/arm-atollic-eabi/6.3.1/armv7e-m/fpu/crti.o
LOAD c:/program files (x86)/atollic/truestudio for stm32 9.1.0/armtools/bin/../lib/gcc/arm-atollic-eabi/6.3.1/armv7e-m/fpu/crtbegin.o
LOAD 01_Common\01_BSP\03_UART\uart.o
LOAD 01_Common\02_CLI\00_CLI_ENGINE\cli_engine.o
LOAD 01_Common\02_CLI\00_CLI_ENGINE\cli_general.o
LOAD 01_Common\02_CLI\00_CLI_ENGINE\cli_io.o
LOAD 01_Common\02_CLI\00_CLI_ENGINE\cli_msg.o
LOAD 01_Common\02_CLI\00_CLI_ENGINE\cli_parser.o
LOAD 01_Common\02_CLI\02_CLI_CTRY\cli_control_func_ctry.o
LOAD 01_Common\02_CLI\02_CLI_CTRY\cli_debug_func_ctry.o
LOAD 01_Common\02_CLI\02_CLI_CTRY\cli_main_menu_ctry.o
LOAD 01_Common\02_CLI\02_CLI_CTRY\cli_monitor_func_ctry.o
LOAD 01_Common\04_DbgPrint\DbgPrintMsg_common.o
LOAD 02_STM_Drivers\STM32F4xx_HAL_Driver\Src\gipsy_hal_adc.o
LOAD 02_STM_Drivers\STM32F4xx_HAL_Driver\Src\gipsy_hal_can.o
LOAD 02_STM_Drivers\STM32F4xx_HAL_Driver\Src\gipsy_hal_gpio.o
LOAD 02_STM_Drivers\STM32F4xx_HAL_Driver\Src\gipsy_hal_i2c.o
LOAD 02_STM_Drivers\STM32F4xx_HAL_Driver\Src\gipsy_hal_rcc.o
LOAD 02_STM_Drivers\STM32F4xx_HAL_Driver\Src\gipsy_hal_rtc_ctry.o
LOAD 02_STM_Drivers\STM32F4xx_HAL_Driver\Src\gipsy_hal_uart.o
LOAD 02_STM_Drivers\STM32F4xx_HAL_Driver\Src\stm32f4xx_hal_cortex.o
LOAD 02_STM_Drivers\STM32F4xx_HAL_Driver\Src\stm32f4xx_hal_tim.o
LOAD CTRY_Files\Temperature_Control.o
LOAD CTRY_Files\actuator_ctrl.o
LOAD CTRY_Files\board_cfg_ctry.o
LOAD CTRY_Files\can_protocol_ctry.o
LOAD CTRY_Files\current_sensor.o
LOAD CTRY_Files\flash_integrity_test.o
LOAD CTRY_Files\gpio_control_ctry.o
LOAD CTRY_Files\id_conf_ctry.o
LOAD CTRY_Files\mcp9804.o
LOAD CTRY_Files\module_init_ctry.o
LOAD CTRY_Files\motor_driver.o
LOAD CTRY_Files\periodic_ctry.o
LOAD CTRY_Files\system_params_ctry.o
LOAD CTRY_Files\vibration_meas.o
LOAD CTRY_Files\voltage_meas_ctry.o
LOAD CTRY_Files\wdog.o
LOAD Src\gipsy_ctry_it.o
LOAD Src\main.o
LOAD Startup\startup_stm32f427xx.o
                0x00000080                malloc_getpagesize_P = 0x80
START GROUP
LOAD c:/program files (x86)/atollic/truestudio for stm32 9.1.0/armtools/bin/../lib/gcc/arm-atollic-eabi/6.3.1/../../../../arm-atollic-eabi/lib/armv7e-m/fpu\libc_nano.a
LOAD c:/program files (x86)/atollic/truestudio for stm32 9.1.0/armtools/bin/../lib/gcc/arm-atollic-eabi/6.3.1/../../../../arm-atollic-eabi/lib/armv7e-m/fpu\libm.a
END GROUP
START GROUP
LOAD c:/program files (x86)/atollic/truestudio for stm32 9.1.0/armtools/bin/../lib/gcc/arm-atollic-eabi/6.3.1/armv7e-m/fpu\libgcc.a
LOAD c:/program files (x86)/atollic/truestudio for stm32 9.1.0/armtools/bin/../lib/gcc/arm-atollic-eabi/6.3.1/../../../../arm-atollic-eabi/lib/armv7e-m/fpu\libc_nano.a
END GROUP
START GROUP
LOAD c:/program files (x86)/atollic/truestudio for stm32 9.1.0/armtools/bin/../lib/gcc/arm-atollic-eabi/6.3.1/armv7e-m/fpu\libgcc.a
LOAD c:/program files (x86)/atollic/truestudio for stm32 9.1.0/armtools/bin/../lib/gcc/arm-atollic-eabi/6.3.1/../../../../arm-atollic-eabi/lib/armv7e-m/fpu\libc_nano.a
LOAD c:/program files (x86)/atollic/truestudio for stm32 9.1.0/armtools/bin/../lib/gcc/arm-atollic-eabi/6.3.1/../../../../arm-atollic-eabi/lib/armv7e-m/fpu\libnosys.a
END GROUP
START GROUP
LOAD c:/program files (x86)/atollic/truestudio for stm32 9.1.0/armtools/bin/../lib/gcc/arm-atollic-eabi/6.3.1/armv7e-m/fpu\libgcc.a
LOAD c:/program files (x86)/atollic/truestudio for stm32 9.1.0/armtools/bin/../lib/gcc/arm-atollic-eabi/6.3.1/../../../../arm-atollic-eabi/lib/armv7e-m/fpu\libc_nano.a
LOAD c:/program files (x86)/atollic/truestudio for stm32 9.1.0/armtools/bin/../lib/gcc/arm-atollic-eabi/6.3.1/../../../../arm-atollic-eabi/lib/armv7e-m/fpu\libnosys.a
END GROUP
LOAD c:/program files (x86)/atollic/truestudio for stm32 9.1.0/armtools/bin/../lib/gcc/arm-atollic-eabi/6.3.1/armv7e-m/fpu/crtend.o
LOAD c:/program files (x86)/atollic/truestudio for stm32 9.1.0/armtools/bin/../lib/gcc/arm-atollic-eabi/6.3.1/armv7e-m/fpu/crtn.o
                0x20030000                _estack = 0x20030000
                0x00000000                _Min_Heap_Size = 0x0
                0x00000400                _Min_Stack_Size = 0x400

.isr_vector     0x08000000      0x1ac
                0x08000000                . = ALIGN (0x4)
 *(.isr_vector)
 .isr_vector    0x08000000      0x1ac Startup\startup_stm32f427xx.o
                0x08000000                g_pfnVectors
                0x080001ac                . = ALIGN (0x4)

.text           0x080001b0     0xae90
                0x080001b0                . = ALIGN (0x4)
 *(.text)
 .text          0x080001b0       0x40 c:/program files (x86)/atollic/truestudio for stm32 9.1.0/armtools/bin/../lib/gcc/arm-atollic-eabi/6.3.1/armv7e-m/fpu/crtbegin.o
 .text          0x080001f0       0x14 c:/program files (x86)/atollic/truestudio for stm32 9.1.0/armtools/bin/../lib/gcc/arm-atollic-eabi/6.3.1/../../../../arm-atollic-eabi/lib/armv7e-m/fpu\libc_nano.a(lib_a-strcmp.o)
                0x080001f0                strcmp
 .text          0x08000204       0x10 c:/program files (x86)/atollic/truestudio for stm32 9.1.0/armtools/bin/../lib/gcc/arm-atollic-eabi/6.3.1/../../../../arm-atollic-eabi/lib/armv7e-m/fpu\libc_nano.a(lib_a-strlen.o)
                0x08000204                strlen
 *fill*         0x08000214        0xc 
 .text          0x08000220       0xa0 c:/program files (x86)/atollic/truestudio for stm32 9.1.0/armtools/bin/../lib/gcc/arm-atollic-eabi/6.3.1/../../../../arm-atollic-eabi/lib/armv7e-m/fpu\libc_nano.a(lib_a-memchr.o)
                0x08000220                memchr
 .text          0x080002c0      0x370 c:/program files (x86)/atollic/truestudio for stm32 9.1.0/armtools/bin/../lib/gcc/arm-atollic-eabi/6.3.1/armv7e-m/fpu\libgcc.a(_arm_addsubdf3.o)
                0x080002c0                __aeabi_drsub
                0x080002c8                __aeabi_dsub
                0x080002c8                __subdf3
                0x080002cc                __aeabi_dadd
                0x080002cc                __adddf3
                0x08000544                __floatunsidf
                0x08000544                __aeabi_ui2d
                0x08000564                __floatsidf
                0x08000564                __aeabi_i2d
                0x08000588                __aeabi_f2d
                0x08000588                __extendsfdf2
                0x080005c4                __floatundidf
                0x080005c4                __aeabi_ul2d
                0x080005d4                __floatdidf
                0x080005d4                __aeabi_l2d
 .text          0x08000630      0x424 c:/program files (x86)/atollic/truestudio for stm32 9.1.0/armtools/bin/../lib/gcc/arm-atollic-eabi/6.3.1/armv7e-m/fpu\libgcc.a(_arm_muldivdf3.o)
                0x08000630                __aeabi_dmul
                0x08000630                __muldf3
                0x08000884                __divdf3
                0x08000884                __aeabi_ddiv
 .text          0x08000a54      0x110 c:/program files (x86)/atollic/truestudio for stm32 9.1.0/armtools/bin/../lib/gcc/arm-atollic-eabi/6.3.1/armv7e-m/fpu\libgcc.a(_arm_cmpdf2.o)
                0x08000a54                __gtdf2
                0x08000a54                __gedf2
                0x08000a5c                __ltdf2
                0x08000a5c                __ledf2
                0x08000a64                __nedf2
                0x08000a64                __eqdf2
                0x08000a64                __cmpdf2
                0x08000ae0                __aeabi_cdrcmple
                0x08000af0                __aeabi_cdcmpeq
                0x08000af0                __aeabi_cdcmple
                0x08000b00                __aeabi_dcmpeq
                0x08000b14                __aeabi_dcmplt
                0x08000b28                __aeabi_dcmple
                0x08000b3c                __aeabi_dcmpge
                0x08000b50                __aeabi_dcmpgt
 .text          0x08000b64       0xa0 c:/program files (x86)/atollic/truestudio for stm32 9.1.0/armtools/bin/../lib/gcc/arm-atollic-eabi/6.3.1/armv7e-m/fpu\libgcc.a(_arm_truncdfsf2.o)
                0x08000b64                __truncdfsf2
                0x08000b64                __aeabi_d2f
 .text          0x08000c04       0x30 c:/program files (x86)/atollic/truestudio for stm32 9.1.0/armtools/bin/../lib/gcc/arm-atollic-eabi/6.3.1/armv7e-m/fpu\libgcc.a(_aeabi_uldivmod.o)
                0x08000c04                __aeabi_uldivmod
 .text          0x08000c34      0x2dc c:/program files (x86)/atollic/truestudio for stm32 9.1.0/armtools/bin/../lib/gcc/arm-atollic-eabi/6.3.1/armv7e-m/fpu\libgcc.a(_udivmoddi4.o)
                0x08000c34                __udivmoddi4
 .text          0x08000f10        0x4 c:/program files (x86)/atollic/truestudio for stm32 9.1.0/armtools/bin/../lib/gcc/arm-atollic-eabi/6.3.1/armv7e-m/fpu\libgcc.a(_dvmd_tls.o)
                0x08000f10                __aeabi_idiv0
                0x08000f10                __aeabi_ldiv0
 *(.text*)
 .text.HAL_UART3_RxCpltCallback
                0x08000f14       0xc4 01_Common\01_BSP\03_UART\uart.o
                0x08000f14                HAL_UART3_RxCpltCallback
 .text.SER_SendData
                0x08000fd8       0x30 01_Common\01_BSP\03_UART\uart.o
                0x08000fd8                SER_SendData
 .text.UART3_Serial_Init
                0x08001008       0x48 01_Common\01_BSP\03_UART\uart.o
                0x08001008                UART3_Serial_Init
 .text.SER_PutChar
                0x08001050       0x2c 01_Common\01_BSP\03_UART\uart.o
                0x08001050                SER_PutChar
 .text.SER_GetChar
                0x0800107c       0x2c 01_Common\01_BSP\03_UART\uart.o
                0x0800107c                SER_GetChar
 .text.CLI_GetNextTokenType
                0x080010a8      0x144 01_Common\02_CLI\00_CLI_ENGINE\cli_engine.o
                0x080010a8                CLI_GetNextTokenType
 .text.CLI_GetTdlFormatStr
                0x080011ec       0x28 01_Common\02_CLI\00_CLI_ENGINE\cli_engine.o
                0x080011ec                CLI_GetTdlFormatStr
 .text.CLI_ParseToken
                0x08001214      0x12c 01_Common\02_CLI\00_CLI_ENGINE\cli_engine.o
                0x08001214                CLI_ParseToken
 .text.CLI_CID_Handler
                0x08001340      0x2e4 01_Common\02_CLI\00_CLI_ENGINE\cli_engine.o
                0x08001340                CLI_CID_Handler
 .text.CLI_ParseTextString
                0x08001624      0x4b0 01_Common\02_CLI\00_CLI_ENGINE\cli_engine.o
                0x08001624                CLI_ParseTextString
 .text.CLI_GetNodeKeyword
                0x08001ad4       0x52 01_Common\02_CLI\00_CLI_ENGINE\cli_engine.o
 *fill*         0x08001b26        0x2 
 .text.CLI_LocatebyKeyWords
                0x08001b28      0x214 01_Common\02_CLI\00_CLI_ENGINE\cli_engine.o
                0x08001b28                CLI_LocatebyKeyWords
 .text.CLI_GetKeyR
                0x08001d3c       0xd6 01_Common\02_CLI\00_CLI_ENGINE\cli_engine.o
                0x08001d3c                CLI_GetKeyR
 *fill*         0x08001e12        0x2 
 .text.CLI_NodeProcess
                0x08001e14       0xec 01_Common\02_CLI\00_CLI_ENGINE\cli_general.o
 .text.CLI_TreeIterate
                0x08001f00       0x24 01_Common\02_CLI\00_CLI_ENGINE\cli_general.o
 .text.CLI_Write
                0x08001f24       0x68 01_Common\02_CLI\00_CLI_ENGINE\cli_io.o
                0x08001f24                CLI_Write
 .text.CLI_PrintPrompt
                0x08001f8c      0x138 01_Common\02_CLI\00_CLI_ENGINE\cli_io.o
                0x08001f8c                CLI_PrintPrompt
 .text.CLIMSG_AddSimpleText
                0x080020c4       0x70 01_Common\02_CLI\00_CLI_ENGINE\cli_msg.o
                0x080020c4                CLIMSG_AddSimpleText
 .text.CLIMSG_AddRootElement
                0x08002134       0x24 01_Common\02_CLI\00_CLI_ENGINE\cli_msg.o
                0x08002134                CLIMSG_AddRootElement
 .text.CLIMSG_AddRootElementEnd
                0x08002158       0x24 01_Common\02_CLI\00_CLI_ENGINE\cli_msg.o
                0x08002158                CLIMSG_AddRootElementEnd
 .text.CLIMSG_WrapElement
                0x0800217c       0x38 01_Common\02_CLI\00_CLI_ENGINE\cli_msg.o
                0x0800217c                CLIMSG_WrapElement
 .text.CLIMSG_ConvValueToString
                0x080021b4      0x2d0 01_Common\02_CLI\00_CLI_ENGINE\cli_msg.o
 .text.CLIMSG_AddElement
                0x08002484       0x88 01_Common\02_CLI\00_CLI_ENGINE\cli_msg.o
                0x08002484                CLIMSG_AddElement
 .text.CLIMSG_ComposeErrorResp
                0x0800250c       0x5c 01_Common\02_CLI\00_CLI_ENGINE\cli_msg.o
                0x0800250c                CLIMSG_ComposeErrorResp
 .text.CLIMSG_ComposeHelpResp
                0x08002568       0x38 01_Common\02_CLI\00_CLI_ENGINE\cli_msg.o
                0x08002568                CLIMSG_ComposeHelpResp
 .text.CLIMSG_ComposeCompleteResp
                0x080025a0       0x80 01_Common\02_CLI\00_CLI_ENGINE\cli_msg.o
                0x080025a0                CLIMSG_ComposeCompleteResp
 .text.CLI_HistoryPushLine
                0x08002620       0x90 01_Common\02_CLI\00_CLI_ENGINE\cli_parser.o
 .text.CLI_HistoryPrintLine
                0x080026b0      0x10c 01_Common\02_CLI\00_CLI_ENGINE\cli_parser.o
 .text.CLI_CompleteLine
                0x080027bc      0x1f4 01_Common\02_CLI\00_CLI_ENGINE\cli_parser.o
 .text.CLI_ComposeError
                0x080029b0       0x7c 01_Common\02_CLI\00_CLI_ENGINE\cli_parser.o
 .text.CLI_ParseLine
                0x08002a2c      0x320 01_Common\02_CLI\00_CLI_ENGINE\cli_parser.o
                0x08002a2c                CLI_ParseLine
 .text.CLI_ParseSymbol
                0x08002d4c      0x1f0 01_Common\02_CLI\00_CLI_ENGINE\cli_parser.o
                0x08002d4c                CLI_ParseSymbol
 .text.CLI_TestNUpdatePointers
                0x08002f3c       0x60 01_Common\02_CLI\00_CLI_ENGINE\cli_parser.o
                0x08002f3c                CLI_TestNUpdatePointers
 .text.CLI_SetMdrvPwmParams
                0x08002f9c      0x114 01_Common\02_CLI\02_CLI_CTRY\cli_control_func_ctry.o
                0x08002f9c                CLI_SetMdrvPwmParams
 .text.CLI_WriteGPOutputs
                0x080030b0      0x138 01_Common\02_CLI\02_CLI_CTRY\cli_control_func_ctry.o
                0x080030b0                CLI_WriteGPOutputs
 .text.CLI_SetMdrvRPM
                0x080031e8       0x80 01_Common\02_CLI\02_CLI_CTRY\cli_control_func_ctry.o
                0x080031e8                CLI_SetMdrvRPM
 .text.CLI_SetMdrvEnable
                0x08003268       0xe4 01_Common\02_CLI\02_CLI_CTRY\cli_control_func_ctry.o
                0x08003268                CLI_SetMdrvEnable
 .text.NVIC_SystemReset
                0x0800334c       0x28 01_Common\02_CLI\02_CLI_CTRY\cli_debug_func_ctry.o
 .text.CLI_CTRY_Reset
                0x08003374       0x1a 01_Common\02_CLI\02_CLI_CTRY\cli_debug_func_ctry.o
                0x08003374                CLI_CTRY_Reset
 *fill*         0x0800338e        0x2 
 .text.CLI_CTRY_CRC_Test
                0x08003390       0x3c 01_Common\02_CLI\02_CLI_CTRY\cli_debug_func_ctry.o
                0x08003390                CLI_CTRY_CRC_Test
 .text.CLI_MdrvSpiWriteRead
                0x080033cc      0x15c 01_Common\02_CLI\02_CLI_CTRY\cli_debug_func_ctry.o
                0x080033cc                CLI_MdrvSpiWriteRead
 .text.CLI_ReadGPInputs
                0x08003528       0x60 01_Common\02_CLI\02_CLI_CTRY\cli_monitor_func_ctry.o
                0x08003528                CLI_ReadGPInputs
 .text.CLI_MonitorBoardVoltages
                0x08003588      0x25c 01_Common\02_CLI\02_CLI_CTRY\cli_monitor_func_ctry.o
                0x08003588                CLI_MonitorBoardVoltages
 .text.CLI_MonitorMisc
                0x080037e4      0x10c 01_Common\02_CLI\02_CLI_CTRY\cli_monitor_func_ctry.o
                0x080037e4                CLI_MonitorMisc
 .text.CLI_MonitorMdrvStatus
                0x080038f0       0x2c 01_Common\02_CLI\02_CLI_CTRY\cli_monitor_func_ctry.o
                0x080038f0                CLI_MonitorMdrvStatus
 .text.CLI_ReadCurrentConsumption
                0x0800391c       0x88 01_Common\02_CLI\02_CLI_CTRY\cli_monitor_func_ctry.o
                0x0800391c                CLI_ReadCurrentConsumption
 .text.CLI_ReadAccelId
                0x080039a4       0x3c 01_Common\02_CLI\02_CLI_CTRY\cli_monitor_func_ctry.o
                0x080039a4                CLI_ReadAccelId
 .text.CLI_ReadAcceleration
                0x080039e0       0xa8 01_Common\02_CLI\02_CLI_CTRY\cli_monitor_func_ctry.o
                0x080039e0                CLI_ReadAcceleration
 .text.CLI_ReadTemperatureSensors
                0x08003a88      0x14c 01_Common\02_CLI\02_CLI_CTRY\cli_monitor_func_ctry.o
                0x08003a88                CLI_ReadTemperatureSensors
 .text.HAL_ADC_Init
                0x08003bd4      0x15c 02_STM_Drivers\STM32F4xx_HAL_Driver\Src\gipsy_hal_adc.o
                0x08003bd4                HAL_ADC_Init
 .text.HAL_ADC_Perform_Convertion
                0x08003d30       0xd8 02_STM_Drivers\STM32F4xx_HAL_Driver\Src\gipsy_hal_adc.o
                0x08003d30                HAL_ADC_Perform_Convertion
 .text.HAL_CAN_Init
                0x08003e08      0x204 02_STM_Drivers\STM32F4xx_HAL_Driver\Src\gipsy_hal_can.o
                0x08003e08                HAL_CAN_Init
 .text.wait_init_ack
                0x0800400c       0x78 02_STM_Drivers\STM32F4xx_HAL_Driver\Src\gipsy_hal_can.o
 .text.config_can_filter
                0x08004084      0x120 02_STM_Drivers\STM32F4xx_HAL_Driver\Src\gipsy_hal_can.o
 .text.can_loopback_test
                0x080041a4      0x100 02_STM_Drivers\STM32F4xx_HAL_Driver\Src\gipsy_hal_can.o
 .text.HAL_CAN_AddTxMessage
                0x080042a4      0x14c 02_STM_Drivers\STM32F4xx_HAL_Driver\Src\gipsy_hal_can.o
                0x080042a4                HAL_CAN_AddTxMessage
 .text.HAL_CAN_GetRxMessage
                0x080043f0      0x170 02_STM_Drivers\STM32F4xx_HAL_Driver\Src\gipsy_hal_can.o
                0x080043f0                HAL_CAN_GetRxMessage
 .text.HAL_CAN_IRQHandler
                0x08004560       0x38 02_STM_Drivers\STM32F4xx_HAL_Driver\Src\gipsy_hal_can.o
                0x08004560                HAL_CAN_IRQHandler
 .text.HAL_GPIO_Init
                0x08004598      0x33c 02_STM_Drivers\STM32F4xx_HAL_Driver\Src\gipsy_hal_gpio.o
                0x08004598                HAL_GPIO_Init
 .text.HAL_GPIO_ReadPin
                0x080048d4       0x94 02_STM_Drivers\STM32F4xx_HAL_Driver\Src\gipsy_hal_gpio.o
                0x080048d4                HAL_GPIO_ReadPin
 .text.HAL_GPIO_WritePin
                0x08004968       0xa8 02_STM_Drivers\STM32F4xx_HAL_Driver\Src\gipsy_hal_gpio.o
                0x08004968                HAL_GPIO_WritePin
 .text.HAL_GPIO_TogglePin
                0x08004a10       0x84 02_STM_Drivers\STM32F4xx_HAL_Driver\Src\gipsy_hal_gpio.o
                0x08004a10                HAL_GPIO_TogglePin
 .text.HAL_I2C_Init
                0x08004a94      0x1ac 02_STM_Drivers\STM32F4xx_HAL_Driver\Src\gipsy_hal_i2c.o
                0x08004a94                HAL_I2C_Init
 .text.HAL_I2C_Master_Transmit
                0x08004c40      0x208 02_STM_Drivers\STM32F4xx_HAL_Driver\Src\gipsy_hal_i2c.o
                0x08004c40                HAL_I2C_Master_Transmit
 .text.HAL_I2C_Master_Receive
                0x08004e48      0x49c 02_STM_Drivers\STM32F4xx_HAL_Driver\Src\gipsy_hal_i2c.o
                0x08004e48                HAL_I2C_Master_Receive
 .text.i2c_master_request_write
                0x080052e4       0xc8 02_STM_Drivers\STM32F4xx_HAL_Driver\Src\gipsy_hal_i2c.o
 .text.i2c_master_request_read
                0x080053ac       0xd8 02_STM_Drivers\STM32F4xx_HAL_Driver\Src\gipsy_hal_i2c.o
 .text.i2c_wait_on_flag_until_timeout
                0x08005484      0x1f8 02_STM_Drivers\STM32F4xx_HAL_Driver\Src\gipsy_hal_i2c.o
 .text.i2c_wait_on_master_address_flag_until_timeout
                0x0800567c      0x1b4 02_STM_Drivers\STM32F4xx_HAL_Driver\Src\gipsy_hal_i2c.o
 .text.i2c_wait_on_txe_flag_until_timeout
                0x08005830       0x7c 02_STM_Drivers\STM32F4xx_HAL_Driver\Src\gipsy_hal_i2c.o
 .text.i2c_wait_on_btf_flag_until_timeout
                0x080058ac       0x7c 02_STM_Drivers\STM32F4xx_HAL_Driver\Src\gipsy_hal_i2c.o
 .text.i2c_wait_on_rxne_flag_until_timeout
                0x08005928       0x9c 02_STM_Drivers\STM32F4xx_HAL_Driver\Src\gipsy_hal_i2c.o
 .text.i2c_is_acknowledge_failed
                0x080059c4       0x58 02_STM_Drivers\STM32F4xx_HAL_Driver\Src\gipsy_hal_i2c.o
 .text.HAL_RCC_OscConfig
                0x08005a1c      0x18c 02_STM_Drivers\STM32F4xx_HAL_Driver\Src\gipsy_hal_rcc.o
                0x08005a1c                HAL_RCC_OscConfig
 .text.HAL_RCC_ClockConfig
                0x08005ba8      0x200 02_STM_Drivers\STM32F4xx_HAL_Driver\Src\gipsy_hal_rcc.o
                0x08005ba8                HAL_RCC_ClockConfig
 .text.HAL_RCC_GetPCLK1Freq
                0x08005da8       0x30 02_STM_Drivers\STM32F4xx_HAL_Driver\Src\gipsy_hal_rcc.o
                0x08005da8                HAL_RCC_GetPCLK1Freq
 .text.HAL_RCCEx_PeriphCLKConfig
                0x08005dd8       0xd8 02_STM_Drivers\STM32F4xx_HAL_Driver\Src\gipsy_hal_rcc.o
                0x08005dd8                HAL_RCCEx_PeriphCLKConfig
 .text.hal_init_tick
                0x08005eb0       0x50 02_STM_Drivers\STM32F4xx_HAL_Driver\Src\gipsy_hal_rcc.o
 .text.HAL_IncTick
                0x08005f00       0x24 02_STM_Drivers\STM32F4xx_HAL_Driver\Src\gipsy_hal_rcc.o
                0x08005f00                HAL_IncTick
 .text.HAL_GetTick
                0x08005f24       0x18 02_STM_Drivers\STM32F4xx_HAL_Driver\Src\gipsy_hal_rcc.o
                0x08005f24                HAL_GetTick
 .text.HAL_Delay
                0x08005f3c       0x34 02_STM_Drivers\STM32F4xx_HAL_Driver\Src\gipsy_hal_rcc.o
                0x08005f3c                HAL_Delay
 .text.HAL_UART_Init
                0x08005f70       0x6c 02_STM_Drivers\STM32F4xx_HAL_Driver\Src\gipsy_hal_uart.o
                0x08005f70                HAL_UART_Init
 .text.uart_set_config
                0x08005fdc      0x174 02_STM_Drivers\STM32F4xx_HAL_Driver\Src\gipsy_hal_uart.o
 .text.HAL_UART_Transmit
                0x08006150       0xee 02_STM_Drivers\STM32F4xx_HAL_Driver\Src\gipsy_hal_uart.o
                0x08006150                HAL_UART_Transmit
 .text.uart_wait_on_flag_until_timeout
                0x0800623e       0xda 02_STM_Drivers\STM32F4xx_HAL_Driver\Src\gipsy_hal_uart.o
 .text.HAL_UART_IRQHandler
                0x08006318      0x10c 02_STM_Drivers\STM32F4xx_HAL_Driver\Src\gipsy_hal_uart.o
                0x08006318                HAL_UART_IRQHandler
 .text.HAL_UART_Receive_IT
                0x08006424       0x84 02_STM_Drivers\STM32F4xx_HAL_Driver\Src\gipsy_hal_uart.o
                0x08006424                HAL_UART_Receive_IT
 .text.uart_receive_it
                0x080064a8       0x8c 02_STM_Drivers\STM32F4xx_HAL_Driver\Src\gipsy_hal_uart.o
 .text.NVIC_SetPriorityGrouping
                0x08006534       0x48 02_STM_Drivers\STM32F4xx_HAL_Driver\Src\stm32f4xx_hal_cortex.o
 .text.NVIC_GetPriorityGrouping
                0x0800657c       0x1c 02_STM_Drivers\STM32F4xx_HAL_Driver\Src\stm32f4xx_hal_cortex.o
 .text.NVIC_EnableIRQ
                0x08006598       0x34 02_STM_Drivers\STM32F4xx_HAL_Driver\Src\stm32f4xx_hal_cortex.o
 .text.NVIC_SetPriority
                0x080065cc       0x54 02_STM_Drivers\STM32F4xx_HAL_Driver\Src\stm32f4xx_hal_cortex.o
 .text.NVIC_EncodePriority
                0x08006620       0x62 02_STM_Drivers\STM32F4xx_HAL_Driver\Src\stm32f4xx_hal_cortex.o
 *fill*         0x08006682        0x2 
 .text.SysTick_Config
                0x08006684       0x44 02_STM_Drivers\STM32F4xx_HAL_Driver\Src\stm32f4xx_hal_cortex.o
 .text.HAL_NVIC_SetPriorityGrouping
                0x080066c8       0x16 02_STM_Drivers\STM32F4xx_HAL_Driver\Src\stm32f4xx_hal_cortex.o
                0x080066c8                HAL_NVIC_SetPriorityGrouping
 .text.HAL_NVIC_SetPriority
                0x080066de       0x38 02_STM_Drivers\STM32F4xx_HAL_Driver\Src\stm32f4xx_hal_cortex.o
                0x080066de                HAL_NVIC_SetPriority
 .text.HAL_NVIC_EnableIRQ
                0x08006716       0x1c 02_STM_Drivers\STM32F4xx_HAL_Driver\Src\stm32f4xx_hal_cortex.o
                0x08006716                HAL_NVIC_EnableIRQ
 .text.HAL_SYSTICK_Config
                0x08006732       0x18 02_STM_Drivers\STM32F4xx_HAL_Driver\Src\stm32f4xx_hal_cortex.o
                0x08006732                HAL_SYSTICK_Config
 *fill*         0x0800674a        0x2 
 .text.HAL_TIM_PWM_Init
                0x0800674c      0x2a8 02_STM_Drivers\STM32F4xx_HAL_Driver\Src\stm32f4xx_hal_tim.o
                0x0800674c                HAL_TIM_PWM_Init
 .text.HAL_TIM_PWM_Start
                0x080069f4      0x1e4 02_STM_Drivers\STM32F4xx_HAL_Driver\Src\stm32f4xx_hal_tim.o
                0x080069f4                HAL_TIM_PWM_Start
 .text.HAL_TIM_PWM_ConfigChannel
                0x08006bd8      0x1f8 02_STM_Drivers\STM32F4xx_HAL_Driver\Src\stm32f4xx_hal_tim.o
                0x08006bd8                HAL_TIM_PWM_ConfigChannel
 .text.TIM_OC2_SetConfig
                0x08006dd0       0xf0 02_STM_Drivers\STM32F4xx_HAL_Driver\Src\stm32f4xx_hal_tim.o
                0x08006dd0                TIM_OC2_SetConfig
 .text.TIM_CCxChannelCmd
                0x08006ec0       0x4e 02_STM_Drivers\STM32F4xx_HAL_Driver\Src\stm32f4xx_hal_tim.o
                0x08006ec0                TIM_CCxChannelCmd
 *fill*         0x08006f0e        0x2 
 .text.TIM_OC1_SetConfig
                0x08006f10       0xe8 02_STM_Drivers\STM32F4xx_HAL_Driver\Src\stm32f4xx_hal_tim.o
 .text.TIM_OC3_SetConfig
                0x08006ff8       0xf0 02_STM_Drivers\STM32F4xx_HAL_Driver\Src\stm32f4xx_hal_tim.o
 .text.TIM_OC4_SetConfig
                0x080070e8       0xc0 02_STM_Drivers\STM32F4xx_HAL_Driver\Src\stm32f4xx_hal_tim.o
 .text.CTRY_Temperature_Managenent
                0x080071a8       0x74 CTRY_Files\Temperature_Control.o
                0x080071a8                CTRY_Temperature_Managenent
 .text.CTRY_Control_Heaters
                0x0800721c       0x74 CTRY_Files\Temperature_Control.o
                0x0800721c                CTRY_Control_Heaters
 .text.Actuators_Activation_Management
                0x08007290       0xb8 CTRY_Files\actuator_ctrl.o
                0x08007290                Actuators_Activation_Management
 .text.Board_Periph_Config
                0x08007348       0xd0 CTRY_Files\board_cfg_ctry.o
                0x08007348                Board_Periph_Config
 .text.MX_ADC1_Analog_Measurements_Init
                0x08007418       0x3c CTRY_Files\board_cfg_ctry.o
 .text.system_clock_config
                0x08007454      0x184 CTRY_Files\board_cfg_ctry.o
 .text.i2c1_init_temp_sens_drv_board
                0x080075d8       0x98 CTRY_Files\board_cfg_ctry.o
 .text.i2c2_init_temp_sens_cpu_board
                0x08007670       0x9c CTRY_Files\board_cfg_ctry.o
 .text.i2c3_init_accelerometer
                0x0800770c       0xc8 CTRY_Files\board_cfg_ctry.o
 .text.tim3_init_mdrv_pwm_channels
                0x080077d4      0x108 CTRY_Files\board_cfg_ctry.o
 .text.tim4_init_mdrv_pwm_channels
                0x080078dc      0x108 CTRY_Files\board_cfg_ctry.o
 .text.can_interface_init
                0x080079e4       0x94 CTRY_Files\board_cfg_ctry.o
 .text.debug_uart_usart3_init
                0x08007a78       0x94 CTRY_Files\board_cfg_ctry.o
 .text.gpio_pins_init_ctry
                0x08007b0c      0x3a4 CTRY_Files\board_cfg_ctry.o
 .text.HAL_CAN_RxFifo0MsgPendingCallback
                0x08007eb0      0x3f4 CTRY_Files\can_protocol_ctry.o
                0x08007eb0                HAL_CAN_RxFifo0MsgPendingCallback
 .text.CAN_Message_Transmit
                0x080082a4      0x36c CTRY_Files\can_protocol_ctry.o
                0x080082a4                CAN_Message_Transmit
 .text.Measure_Current_Consumption
                0x08008610      0x19c CTRY_Files\current_sensor.o
                0x08008610                Measure_Current_Consumption
 .text.Flash_Integrity_Test
                0x080087ac       0xa4 CTRY_Files\flash_integrity_test.o
                0x080087ac                Flash_Integrity_Test
 .text.Set_Motor_PWR_EN
                0x08008850       0x24 CTRY_Files\gpio_control_ctry.o
                0x08008850                Set_Motor_PWR_EN
 .text.Fault_Channel_C_Control
                0x08008874       0x24 CTRY_Files\gpio_control_ctry.o
                0x08008874                Fault_Channel_C_Control
 .text.Manage_OnBoard_Leds
                0x08008898       0x14 CTRY_Files\gpio_control_ctry.o
                0x08008898                Manage_OnBoard_Leds
 .text.HI8429_Init
                0x080088ac      0x158 CTRY_Files\id_conf_ctry.o
                0x080088ac                HI8429_Init
 .text.Get_CTRY_ID
                0x08008a04       0x18 CTRY_Files\id_conf_ctry.o
                0x08008a04                Get_CTRY_ID
 .text.set_sel_inputs
                0x08008a1c       0xc8 CTRY_Files\id_conf_ctry.o
 .text.hi8429_spi_write
                0x08008ae4       0xbc CTRY_Files\id_conf_ctry.o
 .text.hi8429_spi_read
                0x08008ba0       0xd4 CTRY_Files\id_conf_ctry.o
 .text.Temperaure_Sensors_Read
                0x08008c74      0x164 CTRY_Files\mcp9804.o
                0x08008c74                Temperaure_Sensors_Read
 .text.temperature_sensor_check_id
                0x08008dd8       0x98 CTRY_Files\mcp9804.o
 .text.mcp9804_read
                0x08008e70       0x56 CTRY_Files\mcp9804.o
 .text.CTRY_Module_Init
                0x08008ec6        0xe CTRY_Files\module_init_ctry.o
                0x08008ec6                CTRY_Module_Init
 .text.MDRV_Wake_All
                0x08008ed4       0x18 CTRY_Files\motor_driver.o
                0x08008ed4                MDRV_Wake_All
 .text.MDRV_Config_All
                0x08008eec       0x90 CTRY_Files\motor_driver.o
                0x08008eec                MDRV_Config_All
 .text.MDRV_Activate_Motor
                0x08008f7c       0x34 CTRY_Files\motor_driver.o
                0x08008f7c                MDRV_Activate_Motor
 .text.MDRV_ID_Check
                0x08008fb0       0x46 CTRY_Files\motor_driver.o
                0x08008fb0                MDRV_ID_Check
 *fill*         0x08008ff6        0x2 
 .text.mdrv_set_pwm_value
                0x08008ff8       0x50 CTRY_Files\motor_driver.o
 .text.MDRV_SPI_Write
                0x08009048       0xd4 CTRY_Files\motor_driver.o
                0x08009048                MDRV_SPI_Write
 .text.MDRV_SPI_Read
                0x0800911c       0xf4 CTRY_Files\motor_driver.o
                0x0800911c                MDRV_SPI_Read
 .text.mdrv_set_spi_clk
                0x08009210       0x24 CTRY_Files\motor_driver.o
 .text.mdrv_spi_delay
                0x08009234       0x26 CTRY_Files\motor_driver.o
 *fill*         0x0800925a        0x2 
 .text.mdrv_set_cs_pin
                0x0800925c       0x80 CTRY_Files\motor_driver.o
 .text.MDRV_Wake_Ctrl
                0x080092dc       0x7c CTRY_Files\motor_driver.o
                0x080092dc                MDRV_Wake_Ctrl
 .text.MDRV_Enable_Ctrl
                0x08009358       0x88 CTRY_Files\motor_driver.o
                0x08009358                MDRV_Enable_Ctrl
 .text.Periodic_Tasks_Scheduler
                0x080093e0      0x17c CTRY_Files\periodic_ctry.o
                0x080093e0                Periodic_Tasks_Scheduler
 .text.Get_CTRY_All_Actuators_Status
                0x0800955c       0x44 CTRY_Files\system_params_ctry.o
                0x0800955c                Get_CTRY_All_Actuators_Status
 .text.Set_CTRY_Status
                0x080095a0       0x54 CTRY_Files\system_params_ctry.o
                0x080095a0                Set_CTRY_Status
 .text.Set_CTRY_All_Actuators_Status
                0x080095f4       0x94 CTRY_Files\system_params_ctry.o
                0x080095f4                Set_CTRY_All_Actuators_Status
 .text.Init_Accelerometer
                0x08009688       0x4e CTRY_Files\vibration_meas.o
                0x08009688                Init_Accelerometer
 .text.Check_Accelerometer_ID
                0x080096d6       0x3c CTRY_Files\vibration_meas.o
                0x080096d6                Check_Accelerometer_ID
 .text.accel_write_reg_bit
                0x08009712       0x8e CTRY_Files\vibration_meas.o
 .text.accel_write_reg
                0x080097a0       0x40 CTRY_Files\vibration_meas.o
 .text.accel_read_reg
                0x080097e0       0x4c CTRY_Files\vibration_meas.o
 *fill*         0x0800982c        0x4 
 .text.Test_OnBoard_Voltage
                0x08009830      0x214 CTRY_Files\voltage_meas_ctry.o
                0x08009830                Test_OnBoard_Voltage
 .text.WDOG_Trigger
                0x08009a44       0x44 CTRY_Files\wdog.o
                0x08009a44                WDOG_Trigger
 .text.SysTick_Handler
                0x08009a88        0xc Src\gipsy_ctry_it.o
                0x08009a88                SysTick_Handler
 .text.CAN1_RX0_IRQHandler
                0x08009a94        0xc Src\gipsy_ctry_it.o
                0x08009a94                CAN1_RX0_IRQHandler
 .text.USART3_IRQHandler
                0x08009aa0       0x14 Src\gipsy_ctry_it.o
                0x08009aa0                USART3_IRQHandler
 .text.main     0x08009ab4       0x16 Src\main.o
                0x08009ab4                main
 *fill*         0x08009aca        0x2 
 .text.SystemInit
                0x08009acc       0x6c Src\main.o
                0x08009acc                SystemInit
 .text.Reset_Handler
                0x08009b38       0x50 Startup\startup_stm32f427xx.o
                0x08009b38                Reset_Handler
 .text.Default_Handler
                0x08009b88        0x2 Startup\startup_stm32f427xx.o
                0x08009b88                RTC_Alarm_IRQHandler
                0x08009b88                HASH_RNG_IRQHandler
                0x08009b88                EXTI2_IRQHandler
                0x08009b88                TIM8_CC_IRQHandler
                0x08009b88                DebugMon_Handler
                0x08009b88                UART8_IRQHandler
                0x08009b88                SPI4_IRQHandler
                0x08009b88                TIM1_CC_IRQHandler
                0x08009b88                DMA2_Stream5_IRQHandler
                0x08009b88                HardFault_Handler
                0x08009b88                DMA1_Stream5_IRQHandler
                0x08009b88                PVD_IRQHandler
                0x08009b88                SDIO_IRQHandler
                0x08009b88                TAMP_STAMP_IRQHandler
                0x08009b88                PendSV_Handler
                0x08009b88                NMI_Handler
                0x08009b88                CAN2_RX1_IRQHandler
                0x08009b88                EXTI3_IRQHandler
                0x08009b88                TIM8_TRG_COM_TIM14_IRQHandler
                0x08009b88                TIM1_UP_TIM10_IRQHandler
                0x08009b88                TIM8_UP_TIM13_IRQHandler
                0x08009b88                I2C3_ER_IRQHandler
                0x08009b88                EXTI0_IRQHandler
                0x08009b88                I2C2_EV_IRQHandler
                0x08009b88                DMA1_Stream2_IRQHandler
                0x08009b88                FPU_IRQHandler
                0x08009b88                OTG_HS_WKUP_IRQHandler
                0x08009b88                UsageFault_Handler
                0x08009b88                CAN2_SCE_IRQHandler
                0x08009b88                DMA2_Stream2_IRQHandler
                0x08009b88                SPI1_IRQHandler
                0x08009b88                TIM6_DAC_IRQHandler
                0x08009b88                TIM1_BRK_TIM9_IRQHandler
                0x08009b88                DCMI_IRQHandler
                0x08009b88                CAN2_RX0_IRQHandler
                0x08009b88                DMA2_Stream3_IRQHandler
                0x08009b88                USART6_IRQHandler
                0x08009b88                CAN1_RX1_IRQHandler
                0x08009b88                UART5_IRQHandler
                0x08009b88                DMA2_Stream0_IRQHandler
                0x08009b88                TIM4_IRQHandler
                0x08009b88                I2C1_EV_IRQHandler
                0x08009b88                DMA1_Stream6_IRQHandler
                0x08009b88                DMA1_Stream1_IRQHandler
                0x08009b88                UART4_IRQHandler
                0x08009b88                TIM3_IRQHandler
                0x08009b88                RCC_IRQHandler
                0x08009b88                TIM8_BRK_TIM12_IRQHandler
                0x08009b88                Default_Handler
                0x08009b88                EXTI15_10_IRQHandler
                0x08009b88                ADC_IRQHandler
                0x08009b88                DMA1_Stream7_IRQHandler
                0x08009b88                SPI5_IRQHandler
                0x08009b88                TIM7_IRQHandler
                0x08009b88                CAN2_TX_IRQHandler
                0x08009b88                TIM5_IRQHandler
                0x08009b88                DMA2_Stream7_IRQHandler
                0x08009b88                I2C3_EV_IRQHandler
                0x08009b88                EXTI9_5_IRQHandler
                0x08009b88                RTC_WKUP_IRQHandler
                0x08009b88                ETH_WKUP_IRQHandler
                0x08009b88                SPI2_IRQHandler
                0x08009b88                OTG_HS_EP1_IN_IRQHandler
                0x08009b88                MemManage_Handler
                0x08009b88                DMA1_Stream0_IRQHandler
                0x08009b88                CAN1_TX_IRQHandler
                0x08009b88                SVC_Handler
                0x08009b88                EXTI4_IRQHandler
                0x08009b88                ETH_IRQHandler
                0x08009b88                OTG_HS_EP1_OUT_IRQHandler
                0x08009b88                WWDG_IRQHandler
                0x08009b88                SPI6_IRQHandler
                0x08009b88                TIM2_IRQHandler
                0x08009b88                OTG_FS_WKUP_IRQHandler
                0x08009b88                TIM1_TRG_COM_TIM11_IRQHandler
                0x08009b88                OTG_HS_IRQHandler
                0x08009b88                DMA2D_IRQHandler
                0x08009b88                EXTI1_IRQHandler
                0x08009b88                UART7_IRQHandler
                0x08009b88                USART2_IRQHandler
                0x08009b88                I2C2_ER_IRQHandler
                0x08009b88                DMA2_Stream1_IRQHandler
                0x08009b88                CAN1_SCE_IRQHandler
                0x08009b88                FLASH_IRQHandler
                0x08009b88                DMA2_Stream4_IRQHandler
                0x08009b88                BusFault_Handler
                0x08009b88                USART1_IRQHandler
                0x08009b88                OTG_FS_IRQHandler
                0x08009b88                SPI3_IRQHandler
                0x08009b88                DMA1_Stream4_IRQHandler
                0x08009b88                I2C1_ER_IRQHandler
                0x08009b88                FMC_IRQHandler
                0x08009b88                DMA2_Stream6_IRQHandler
                0x08009b88                SAI1_IRQHandler
                0x08009b88                DMA1_Stream3_IRQHandler
 *fill*         0x08009b8a        0x2 
 .text.__libc_init_array
                0x08009b8c       0x48 c:/program files (x86)/atollic/truestudio for stm32 9.1.0/armtools/bin/../lib/gcc/arm-atollic-eabi/6.3.1/../../../../arm-atollic-eabi/lib/armv7e-m/fpu\libc_nano.a(lib_a-init.o)
                0x08009b8c                __libc_init_array
 .text.__locale_ctype_ptr_l
                0x08009bd4        0x6 c:/program files (x86)/atollic/truestudio for stm32 9.1.0/armtools/bin/../lib/gcc/arm-atollic-eabi/6.3.1/../../../../arm-atollic-eabi/lib/armv7e-m/fpu\libc_nano.a(lib_a-locale.o)
                0x08009bd4                __locale_ctype_ptr_l
 *fill*         0x08009bda        0x2 
 .text.__locale_ctype_ptr
                0x08009bdc       0x1c c:/program files (x86)/atollic/truestudio for stm32 9.1.0/armtools/bin/../lib/gcc/arm-atollic-eabi/6.3.1/../../../../arm-atollic-eabi/lib/armv7e-m/fpu\libc_nano.a(lib_a-locale.o)
                0x08009bdc                __locale_ctype_ptr
 .text.__ascii_mbtowc
                0x08009bf8       0x24 c:/program files (x86)/atollic/truestudio for stm32 9.1.0/armtools/bin/../lib/gcc/arm-atollic-eabi/6.3.1/../../../../arm-atollic-eabi/lib/armv7e-m/fpu\libc_nano.a(lib_a-mbtowc_r.o)
                0x08009bf8                __ascii_mbtowc
 .text.memcpy   0x08009c1c       0x16 c:/program files (x86)/atollic/truestudio for stm32 9.1.0/armtools/bin/../lib/gcc/arm-atollic-eabi/6.3.1/../../../../arm-atollic-eabi/lib/armv7e-m/fpu\libc_nano.a(lib_a-memcpy-stub.o)
                0x08009c1c                memcpy
 .text.memset   0x08009c32       0x10 c:/program files (x86)/atollic/truestudio for stm32 9.1.0/armtools/bin/../lib/gcc/arm-atollic-eabi/6.3.1/../../../../arm-atollic-eabi/lib/armv7e-m/fpu\libc_nano.a(lib_a-memset.o)
                0x08009c32                memset
 *fill*         0x08009c42        0x2 
 .text.snprintf
                0x08009c44       0x68 c:/program files (x86)/atollic/truestudio for stm32 9.1.0/armtools/bin/../lib/gcc/arm-atollic-eabi/6.3.1/../../../../arm-atollic-eabi/lib/armv7e-m/fpu\libc_nano.a(lib_a-snprintf.o)
                0x08009c44                sniprintf
                0x08009c44                snprintf
 .text.sprintf  0x08009cac       0x48 c:/program files (x86)/atollic/truestudio for stm32 9.1.0/armtools/bin/../lib/gcc/arm-atollic-eabi/6.3.1/../../../../arm-atollic-eabi/lib/armv7e-m/fpu\libc_nano.a(lib_a-sprintf.o)
                0x08009cac                siprintf
                0x08009cac                sprintf
 .text.sscanf   0x08009cf4       0x54 c:/program files (x86)/atollic/truestudio for stm32 9.1.0/armtools/bin/../lib/gcc/arm-atollic-eabi/6.3.1/../../../../arm-atollic-eabi/lib/armv7e-m/fpu\libc_nano.a(lib_a-sscanf.o)
                0x08009cf4                siscanf
                0x08009cf4                sscanf
 .text.__seofread
                0x08009d48        0x4 c:/program files (x86)/atollic/truestudio for stm32 9.1.0/armtools/bin/../lib/gcc/arm-atollic-eabi/6.3.1/../../../../arm-atollic-eabi/lib/armv7e-m/fpu\libc_nano.a(lib_a-stdio.o)
                0x08009d48                __seofread
 .text.strchr   0x08009d4c       0x1c c:/program files (x86)/atollic/truestudio for stm32 9.1.0/armtools/bin/../lib/gcc/arm-atollic-eabi/6.3.1/../../../../arm-atollic-eabi/lib/armv7e-m/fpu\libc_nano.a(lib_a-strchr.o)
                0x08009d4c                strchr
 .text.strcpy   0x08009d68       0x10 c:/program files (x86)/atollic/truestudio for stm32 9.1.0/armtools/bin/../lib/gcc/arm-atollic-eabi/6.3.1/../../../../arm-atollic-eabi/lib/armv7e-m/fpu\libc_nano.a(lib_a-strcpy.o)
                0x08009d68                strcpy
 .text.strncat  0x08009d78       0x28 c:/program files (x86)/atollic/truestudio for stm32 9.1.0/armtools/bin/../lib/gcc/arm-atollic-eabi/6.3.1/../../../../arm-atollic-eabi/lib/armv7e-m/fpu\libc_nano.a(lib_a-strncat.o)
                0x08009d78                strncat
 .text.strncmp  0x08009da0       0x24 c:/program files (x86)/atollic/truestudio for stm32 9.1.0/armtools/bin/../lib/gcc/arm-atollic-eabi/6.3.1/../../../../arm-atollic-eabi/lib/armv7e-m/fpu\libc_nano.a(lib_a-strncmp.o)
                0x08009da0                strncmp
 .text.strncpy  0x08009dc4       0x2a c:/program files (x86)/atollic/truestudio for stm32 9.1.0/armtools/bin/../lib/gcc/arm-atollic-eabi/6.3.1/../../../../arm-atollic-eabi/lib/armv7e-m/fpu\libc_nano.a(lib_a-strncpy.o)
                0x08009dc4                strncpy
 .text.strstr   0x08009dee       0x36 c:/program files (x86)/atollic/truestudio for stm32 9.1.0/armtools/bin/../lib/gcc/arm-atollic-eabi/6.3.1/../../../../arm-atollic-eabi/lib/armv7e-m/fpu\libc_nano.a(lib_a-strstr.o)
                0x08009dee                strstr
 .text._strtol_l.isra.0
                0x08009e24      0x100 c:/program files (x86)/atollic/truestudio for stm32 9.1.0/armtools/bin/../lib/gcc/arm-atollic-eabi/6.3.1/../../../../arm-atollic-eabi/lib/armv7e-m/fpu\libc_nano.a(lib_a-strtol.o)
 .text._strtol_r
                0x08009f24       0x24 c:/program files (x86)/atollic/truestudio for stm32 9.1.0/armtools/bin/../lib/gcc/arm-atollic-eabi/6.3.1/../../../../arm-atollic-eabi/lib/armv7e-m/fpu\libc_nano.a(lib_a-strtol.o)
                0x08009f24                _strtol_r
 .text.strtol   0x08009f48       0x2c c:/program files (x86)/atollic/truestudio for stm32 9.1.0/armtools/bin/../lib/gcc/arm-atollic-eabi/6.3.1/../../../../arm-atollic-eabi/lib/armv7e-m/fpu\libc_nano.a(lib_a-strtol.o)
                0x08009f48                strtol
 .text._strtoul_l.isra.0
                0x08009f74       0xfa c:/program files (x86)/atollic/truestudio for stm32 9.1.0/armtools/bin/../lib/gcc/arm-atollic-eabi/6.3.1/../../../../arm-atollic-eabi/lib/armv7e-m/fpu\libc_nano.a(lib_a-strtoul.o)
 *fill*         0x0800a06e        0x2 
 .text._strtoul_r
                0x0800a070       0x24 c:/program files (x86)/atollic/truestudio for stm32 9.1.0/armtools/bin/../lib/gcc/arm-atollic-eabi/6.3.1/../../../../arm-atollic-eabi/lib/armv7e-m/fpu\libc_nano.a(lib_a-strtoul.o)
                0x0800a070                _strtoul_r
 .text.strtoul  0x0800a094       0x2c c:/program files (x86)/atollic/truestudio for stm32 9.1.0/armtools/bin/../lib/gcc/arm-atollic-eabi/6.3.1/../../../../arm-atollic-eabi/lib/armv7e-m/fpu\libc_nano.a(lib_a-strtoul.o)
                0x0800a094                strtoul
 .text._vsnprintf_r
                0x0800a0c0       0x58 c:/program files (x86)/atollic/truestudio for stm32 9.1.0/armtools/bin/../lib/gcc/arm-atollic-eabi/6.3.1/../../../../arm-atollic-eabi/lib/armv7e-m/fpu\libc_nano.a(lib_a-vsnprintf.o)
                0x0800a0c0                _vsniprintf_r
                0x0800a0c0                _vsnprintf_r
 .text.vsnprintf
                0x0800a118       0x1c c:/program files (x86)/atollic/truestudio for stm32 9.1.0/armtools/bin/../lib/gcc/arm-atollic-eabi/6.3.1/../../../../arm-atollic-eabi/lib/armv7e-m/fpu\libc_nano.a(lib_a-vsnprintf.o)
                0x0800a118                vsniprintf
                0x0800a118                vsnprintf
 .text.__ascii_wctomb
                0x0800a134       0x1a c:/program files (x86)/atollic/truestudio for stm32 9.1.0/armtools/bin/../lib/gcc/arm-atollic-eabi/6.3.1/../../../../arm-atollic-eabi/lib/armv7e-m/fpu\libc_nano.a(lib_a-wctomb_r.o)
                0x0800a134                __ascii_wctomb
 .text.__ssputs_r
                0x0800a14e       0xb6 c:/program files (x86)/atollic/truestudio for stm32 9.1.0/armtools/bin/../lib/gcc/arm-atollic-eabi/6.3.1/../../../../arm-atollic-eabi/lib/armv7e-m/fpu\libc_nano.a(lib_a-nano-svfprintf.o)
                0x0800a14e                __ssputs_r
 .text._svfprintf_r
                0x0800a204      0x1e8 c:/program files (x86)/atollic/truestudio for stm32 9.1.0/armtools/bin/../lib/gcc/arm-atollic-eabi/6.3.1/../../../../arm-atollic-eabi/lib/armv7e-m/fpu\libc_nano.a(lib_a-nano-svfprintf.o)
                0x0800a204                _svfiprintf_r
                0x0800a204                _svfprintf_r
 .text._sungetc_r
                0x0800a3ec       0x7a c:/program files (x86)/atollic/truestudio for stm32 9.1.0/armtools/bin/../lib/gcc/arm-atollic-eabi/6.3.1/../../../../arm-atollic-eabi/lib/armv7e-m/fpu\libc_nano.a(lib_a-nano-svfscanf.o)
                0x0800a3ec                _sungetc_r
 .text.__ssrefill_r
                0x0800a466       0x3a c:/program files (x86)/atollic/truestudio for stm32 9.1.0/armtools/bin/../lib/gcc/arm-atollic-eabi/6.3.1/../../../../arm-atollic-eabi/lib/armv7e-m/fpu\libc_nano.a(lib_a-nano-svfscanf.o)
                0x0800a466                __ssrefill_r
 .text.__ssvfscanf_r
                0x0800a4a0      0x2a8 c:/program files (x86)/atollic/truestudio for stm32 9.1.0/armtools/bin/../lib/gcc/arm-atollic-eabi/6.3.1/../../../../arm-atollic-eabi/lib/armv7e-m/fpu\libc_nano.a(lib_a-nano-svfscanf.o)
                0x0800a4a0                __ssvfiscanf_r
                0x0800a4a0                __ssvfscanf_r
 .text._printf_common
                0x0800a748       0xec c:/program files (x86)/atollic/truestudio for stm32 9.1.0/armtools/bin/../lib/gcc/arm-atollic-eabi/6.3.1/../../../../arm-atollic-eabi/lib/armv7e-m/fpu\libc_nano.a(lib_a-nano-vfprintf_i.o)
                0x0800a748                _printf_common
 .text._printf_i
                0x0800a834      0x240 c:/program files (x86)/atollic/truestudio for stm32 9.1.0/armtools/bin/../lib/gcc/arm-atollic-eabi/6.3.1/../../../../arm-atollic-eabi/lib/armv7e-m/fpu\libc_nano.a(lib_a-nano-vfprintf_i.o)
                0x0800a834                _printf_i
 .text._scanf_chars
                0x0800aa74       0xc8 c:/program files (x86)/atollic/truestudio for stm32 9.1.0/armtools/bin/../lib/gcc/arm-atollic-eabi/6.3.1/../../../../arm-atollic-eabi/lib/armv7e-m/fpu\libc_nano.a(lib_a-nano-vfscanf_i.o)
                0x0800aa74                _scanf_chars
 .text._scanf_i
                0x0800ab3c      0x1e8 c:/program files (x86)/atollic/truestudio for stm32 9.1.0/armtools/bin/../lib/gcc/arm-atollic-eabi/6.3.1/../../../../arm-atollic-eabi/lib/armv7e-m/fpu\libc_nano.a(lib_a-nano-vfscanf_i.o)
                0x0800ab3c                _scanf_i
 .text.__sccl   0x0800ad24       0x60 c:/program files (x86)/atollic/truestudio for stm32 9.1.0/armtools/bin/../lib/gcc/arm-atollic-eabi/6.3.1/../../../../arm-atollic-eabi/lib/armv7e-m/fpu\libc_nano.a(lib_a-sccl.o)
                0x0800ad24                __sccl
 .text.__submore
                0x0800ad84       0x76 c:/program files (x86)/atollic/truestudio for stm32 9.1.0/armtools/bin/../lib/gcc/arm-atollic-eabi/6.3.1/../../../../arm-atollic-eabi/lib/armv7e-m/fpu\libc_nano.a(lib_a-ungetc.o)
                0x0800ad84                __submore
 .text.memmove  0x0800adfa       0x34 c:/program files (x86)/atollic/truestudio for stm32 9.1.0/armtools/bin/../lib/gcc/arm-atollic-eabi/6.3.1/../../../../arm-atollic-eabi/lib/armv7e-m/fpu\libc_nano.a(lib_a-memmove.o)
                0x0800adfa                memmove
 *fill*         0x0800ae2e        0x2 
 .text._free_r  0x0800ae30       0x9c c:/program files (x86)/atollic/truestudio for stm32 9.1.0/armtools/bin/../lib/gcc/arm-atollic-eabi/6.3.1/../../../../arm-atollic-eabi/lib/armv7e-m/fpu\libc_nano.a(lib_a-nano-freer.o)
                0x0800ae30                _free_r
 .text._malloc_r
                0x0800aecc       0xbc c:/program files (x86)/atollic/truestudio for stm32 9.1.0/armtools/bin/../lib/gcc/arm-atollic-eabi/6.3.1/../../../../arm-atollic-eabi/lib/armv7e-m/fpu\libc_nano.a(lib_a-nano-mallocr.o)
                0x0800aecc                _malloc_r
 .text._realloc_r
                0x0800af88       0x4c c:/program files (x86)/atollic/truestudio for stm32 9.1.0/armtools/bin/../lib/gcc/arm-atollic-eabi/6.3.1/../../../../arm-atollic-eabi/lib/armv7e-m/fpu\libc_nano.a(lib_a-nano-reallocr.o)
                0x0800af88                _realloc_r
 .text._sbrk_r  0x0800afd4       0x20 c:/program files (x86)/atollic/truestudio for stm32 9.1.0/armtools/bin/../lib/gcc/arm-atollic-eabi/6.3.1/../../../../arm-atollic-eabi/lib/armv7e-m/fpu\libc_nano.a(lib_a-sbrkr.o)
                0x0800afd4                _sbrk_r
 .text.__malloc_lock
                0x0800aff4        0x2 c:/program files (x86)/atollic/truestudio for stm32 9.1.0/armtools/bin/../lib/gcc/arm-atollic-eabi/6.3.1/../../../../arm-atollic-eabi/lib/armv7e-m/fpu\libc_nano.a(lib_a-mlock.o)
                0x0800aff4                __malloc_lock
 .text.__malloc_unlock
                0x0800aff6        0x2 c:/program files (x86)/atollic/truestudio for stm32 9.1.0/armtools/bin/../lib/gcc/arm-atollic-eabi/6.3.1/../../../../arm-atollic-eabi/lib/armv7e-m/fpu\libc_nano.a(lib_a-mlock.o)
                0x0800aff6                __malloc_unlock
 .text._malloc_usable_size_r
                0x0800aff8       0x12 c:/program files (x86)/atollic/truestudio for stm32 9.1.0/armtools/bin/../lib/gcc/arm-atollic-eabi/6.3.1/../../../../arm-atollic-eabi/lib/armv7e-m/fpu\libc_nano.a(lib_a-nano-msizer.o)
                0x0800aff8                _malloc_usable_size_r
 *fill*         0x0800b00a        0x2 
 .text._sbrk    0x0800b00c       0x1c c:/program files (x86)/atollic/truestudio for stm32 9.1.0/armtools/bin/../lib/gcc/arm-atollic-eabi/6.3.1/../../../../arm-atollic-eabi/lib/armv7e-m/fpu\libnosys.a(sbrk.o)
                0x0800b00c                _sbrk
 *(.glue_7)
 .glue_7        0x0800b028        0x0 linker stubs
 *(.glue_7t)
 .glue_7t       0x0800b028        0x0 linker stubs
 *(.eh_frame)
 .eh_frame      0x0800b028        0x0 c:/program files (x86)/atollic/truestudio for stm32 9.1.0/armtools/bin/../lib/gcc/arm-atollic-eabi/6.3.1/armv7e-m/fpu/crtbegin.o
 *(.init)
 .init          0x0800b028        0x4 c:/program files (x86)/atollic/truestudio for stm32 9.1.0/armtools/bin/../lib/gcc/arm-atollic-eabi/6.3.1/armv7e-m/fpu/crti.o
                0x0800b028                _init
 .init          0x0800b02c        0x8 c:/program files (x86)/atollic/truestudio for stm32 9.1.0/armtools/bin/../lib/gcc/arm-atollic-eabi/6.3.1/armv7e-m/fpu/crtn.o
 *(.fini)
 .fini          0x0800b034        0x4 c:/program files (x86)/atollic/truestudio for stm32 9.1.0/armtools/bin/../lib/gcc/arm-atollic-eabi/6.3.1/armv7e-m/fpu/crti.o
                0x0800b034                _fini
 .fini          0x0800b038        0x8 c:/program files (x86)/atollic/truestudio for stm32 9.1.0/armtools/bin/../lib/gcc/arm-atollic-eabi/6.3.1/armv7e-m/fpu/crtn.o
                0x0800b040                . = ALIGN (0x4)
                0x0800b040                _etext = .

.vfp11_veneer   0x0800b040        0x0
 .vfp11_veneer  0x0800b040        0x0 linker stubs

.v4_bx          0x0800b040        0x0
 .v4_bx         0x0800b040        0x0 linker stubs

.iplt           0x0800b040        0x0
 .iplt          0x0800b040        0x0 c:/program files (x86)/atollic/truestudio for stm32 9.1.0/armtools/bin/../lib/gcc/arm-atollic-eabi/6.3.1/armv7e-m/fpu/crtbegin.o

.rodata         0x0800b040      0xd30
                0x0800b040                . = ALIGN (0x4)
 *(.rodata)
 .rodata        0x0800b040       0x12 01_Common\02_CLI\00_CLI_ENGINE\cli_io.o
 *fill*         0x0800b052        0x2 
 .rodata        0x0800b054      0x150 01_Common\02_CLI\00_CLI_ENGINE\cli_msg.o
 .rodata        0x0800b1a4       0x64 01_Common\02_CLI\02_CLI_CTRY\cli_control_func_ctry.o
 .rodata        0x0800b208       0x54 01_Common\02_CLI\02_CLI_CTRY\cli_debug_func_ctry.o
 .rodata        0x0800b25c      0x11e 01_Common\02_CLI\02_CLI_CTRY\cli_main_menu_ctry.o
 *fill*         0x0800b37a        0x2 
 .rodata        0x0800b37c      0x2d0 01_Common\02_CLI\02_CLI_CTRY\cli_monitor_func_ctry.o
 .rodata        0x0800b64c        0x8 02_STM_Drivers\STM32F4xx_HAL_Driver\Src\gipsy_hal_can.o
 .rodata        0x0800b654        0xc c:/program files (x86)/atollic/truestudio for stm32 9.1.0/armtools/bin/../lib/gcc/arm-atollic-eabi/6.3.1/../../../../arm-atollic-eabi/lib/armv7e-m/fpu\libc_nano.a(lib_a-nano-vfscanf_i.o)
 *(.rodata*)
 .rodata.g_TdlToStrArr
                0x0800b660       0x74 01_Common\02_CLI\00_CLI_ENGINE\cli_engine.o
 .rodata.g_CliCli
                0x0800b6d4        0x8 01_Common\02_CLI\00_CLI_ENGINE\cli_general.o
                0x0800b6d4                g_CliCli
 .rodata.g_deviceName
                0x0800b6dc        0x5 01_Common\02_CLI\00_CLI_ENGINE\cli_io.o
                0x0800b6dc                g_deviceName
 *fill*         0x0800b6e1        0x3 
 .rodata.CliRcMessages
                0x0800b6e4       0x34 01_Common\02_CLI\00_CLI_ENGINE\cli_msg.o
                0x0800b6e4                CliRcMessages
 .rodata.g_CliControlGPOutputs
                0x0800b718        0x8 01_Common\02_CLI\02_CLI_CTRY\cli_control_func_ctry.o
                0x0800b718                g_CliControlGPOutputs
 .rodata.g_CliControlMdrvEnable
                0x0800b720        0x8 01_Common\02_CLI\02_CLI_CTRY\cli_control_func_ctry.o
                0x0800b720                g_CliControlMdrvEnable
 .rodata.g_CliControlMdrvSetRPM
                0x0800b728        0x8 01_Common\02_CLI\02_CLI_CTRY\cli_control_func_ctry.o
                0x0800b728                g_CliControlMdrvSetRPM
 .rodata.g_CliControlMdrvPwmParams
                0x0800b730        0x8 01_Common\02_CLI\02_CLI_CTRY\cli_control_func_ctry.o
                0x0800b730                g_CliControlMdrvPwmParams
 .rodata.g_CliCtryDebugCrcTest
                0x0800b738        0x8 01_Common\02_CLI\02_CLI_CTRY\cli_debug_func_ctry.o
                0x0800b738                g_CliCtryDebugCrcTest
 .rodata.g_CliCtryReset
                0x0800b740        0x8 01_Common\02_CLI\02_CLI_CTRY\cli_debug_func_ctry.o
                0x0800b740                g_CliCtryReset
 .rodata.g_CliDebugMdrvSpiWriteReadMenuArr
                0x0800b748        0x8 01_Common\02_CLI\02_CLI_CTRY\cli_debug_func_ctry.o
                0x0800b748                g_CliDebugMdrvSpiWriteReadMenuArr
 .rodata.g_CliControlMdrvEnaMenuArr
                0x0800b750       0x10 01_Common\02_CLI\02_CLI_CTRY\cli_main_menu_ctry.o
                0x0800b750                g_CliControlMdrvEnaMenuArr
 .rodata.g_CliControlMdrvMenuArr
                0x0800b760       0x28 01_Common\02_CLI\02_CLI_CTRY\cli_main_menu_ctry.o
                0x0800b760                g_CliControlMdrvMenuArr
 .rodata.g_CliCtryControlMdrvNumMenuArr
                0x0800b788       0x30 01_Common\02_CLI\02_CLI_CTRY\cli_main_menu_ctry.o
                0x0800b788                g_CliCtryControlMdrvNumMenuArr
 .rodata.g_CliCtryControlGPOMenuArr
                0x0800b7b8       0x28 01_Common\02_CLI\02_CLI_CTRY\cli_main_menu_ctry.o
                0x0800b7b8                g_CliCtryControlGPOMenuArr
 .rodata.g_CliCtryDebugMdrvMenuArr
                0x0800b7e0       0x10 01_Common\02_CLI\02_CLI_CTRY\cli_main_menu_ctry.o
                0x0800b7e0                g_CliCtryDebugMdrvMenuArr
 .rodata.g_CliCtryMonitorGPIMenu
                0x0800b7f0        0x8 01_Common\02_CLI\02_CLI_CTRY\cli_main_menu_ctry.o
                0x0800b7f0                g_CliCtryMonitorGPIMenu
 .rodata.g_CliCtryMonitorBoardVoltagesMenuArr
                0x0800b7f8       0x20 01_Common\02_CLI\02_CLI_CTRY\cli_main_menu_ctry.o
                0x0800b7f8                g_CliCtryMonitorBoardVoltagesMenuArr
 .rodata.g_CliCtryMonitorAccelArr
                0x0800b818       0x10 01_Common\02_CLI\02_CLI_CTRY\cli_main_menu_ctry.o
                0x0800b818                g_CliCtryMonitorAccelArr
 .rodata.g_CliCtryDebugMenuArr
                0x0800b828       0x10 01_Common\02_CLI\02_CLI_CTRY\cli_main_menu_ctry.o
                0x0800b828                g_CliCtryDebugMenuArr
 .rodata.g_CliCtryControlMenuArr
                0x0800b838       0x10 01_Common\02_CLI\02_CLI_CTRY\cli_main_menu_ctry.o
                0x0800b838                g_CliCtryControlMenuArr
 .rodata.g_CliCtryMonitorMenuArr
                0x0800b848       0x38 01_Common\02_CLI\02_CLI_CTRY\cli_main_menu_ctry.o
                0x0800b848                g_CliCtryMonitorMenuArr
 .rodata.g_CliMainMenuArr
                0x0800b880       0x28 01_Common\02_CLI\02_CLI_CTRY\cli_main_menu_ctry.o
                0x0800b880                g_CliMainMenuArr
 .rodata.g_CliCtryMonitorGPI
                0x0800b8a8        0x8 01_Common\02_CLI\02_CLI_CTRY\cli_monitor_func_ctry.o
                0x0800b8a8                g_CliCtryMonitorGPI
 .rodata.g_CliCtryMonitorMdrvStatus
                0x0800b8b0        0x8 01_Common\02_CLI\02_CLI_CTRY\cli_monitor_func_ctry.o
                0x0800b8b0                g_CliCtryMonitorMdrvStatus
 .rodata.g_CliCtryMonitorCurrent
                0x0800b8b8        0x8 01_Common\02_CLI\02_CLI_CTRY\cli_monitor_func_ctry.o
                0x0800b8b8                g_CliCtryMonitorCurrent
 .rodata.g_CliCtryMonitorTemperatureMenu
                0x0800b8c0        0x8 01_Common\02_CLI\02_CLI_CTRY\cli_monitor_func_ctry.o
                0x0800b8c0                g_CliCtryMonitorTemperatureMenu
 .rodata.g_CliCtryMonitorAccelId
                0x0800b8c8        0x8 01_Common\02_CLI\02_CLI_CTRY\cli_monitor_func_ctry.o
                0x0800b8c8                g_CliCtryMonitorAccelId
 .rodata.g_CliCtryMonitorAccel
                0x0800b8d0        0x8 01_Common\02_CLI\02_CLI_CTRY\cli_monitor_func_ctry.o
                0x0800b8d0                g_CliCtryMonitorAccel
 .rodata.g_CliCtryMonitorMisc
                0x0800b8d8        0x8 01_Common\02_CLI\02_CLI_CTRY\cli_monitor_func_ctry.o
                0x0800b8d8                g_CliCtryMonitorMisc
 .rodata.g_CliCtryMonitorBoardVoltages
                0x0800b8e0        0x8 01_Common\02_CLI\02_CLI_CTRY\cli_monitor_func_ctry.o
                0x0800b8e0                g_CliCtryMonitorBoardVoltages
 .rodata.g_NothingStr
                0x0800b8e8        0x1 01_Common\04_DbgPrint\DbgPrintMsg_common.o
                0x0800b8e8                g_NothingStr
 *fill*         0x0800b8e9        0x3 
 .rodata.g_StrFormat
                0x0800b8ec        0x3 01_Common\04_DbgPrint\DbgPrintMsg_common.o
                0x0800b8ec                g_StrFormat
 *fill*         0x0800b8ef        0x1 
 .rodata.g_StrOptionalFormat
                0x0800b8f0        0x5 01_Common\04_DbgPrint\DbgPrintMsg_common.o
                0x0800b8f0                g_StrOptionalFormat
 *fill*         0x0800b8f5        0x3 
 .rodata.g_StrStrOptFormat
                0x0800b8f8        0x7 01_Common\04_DbgPrint\DbgPrintMsg_common.o
                0x0800b8f8                g_StrStrOptFormat
 *fill*         0x0800b8ff        0x1 
 .rodata.g_IntFormatStr
                0x0800b900        0x3 01_Common\04_DbgPrint\DbgPrintMsg_common.o
                0x0800b900                g_IntFormatStr
 *fill*         0x0800b903        0x1 
 .rodata.g_IntOptionalFormatStr
                0x0800b904        0x5 01_Common\04_DbgPrint\DbgPrintMsg_common.o
                0x0800b904                g_IntOptionalFormatStr
 *fill*         0x0800b909        0x3 
 .rodata.g_UIntFormatStr
                0x0800b90c        0x3 01_Common\04_DbgPrint\DbgPrintMsg_common.o
                0x0800b90c                g_UIntFormatStr
 *fill*         0x0800b90f        0x1 
 .rodata.g_HexFormatStr
                0x0800b910        0x3 01_Common\04_DbgPrint\DbgPrintMsg_common.o
                0x0800b910                g_HexFormatStr
 *fill*         0x0800b913        0x1 
 .rodata.g_DoubleStrStr
                0x0800b914        0x5 01_Common\04_DbgPrint\DbgPrintMsg_common.o
                0x0800b914                g_DoubleStrStr
 *fill*         0x0800b919        0x3 
 .rodata.g_UIntHexFormatStr
                0x0800b91c        0x5 01_Common\04_DbgPrint\DbgPrintMsg_common.o
                0x0800b91c                g_UIntHexFormatStr
 *fill*         0x0800b921        0x3 
 .rodata.g_UIntStrFormatStr
                0x0800b924        0x5 01_Common\04_DbgPrint\DbgPrintMsg_common.o
                0x0800b924                g_UIntStrFormatStr
 *fill*         0x0800b929        0x3 
 .rodata.g_HexIntFormatStr
                0x0800b92c        0x5 01_Common\04_DbgPrint\DbgPrintMsg_common.o
                0x0800b92c                g_HexIntFormatStr
 *fill*         0x0800b931        0x3 
 .rodata.g_IntHexFormatStr
                0x0800b934        0x5 01_Common\04_DbgPrint\DbgPrintMsg_common.o
                0x0800b934                g_IntHexFormatStr
 *fill*         0x0800b939        0x3 
 .rodata.g_IntStrFormatStr
                0x0800b93c        0x5 01_Common\04_DbgPrint\DbgPrintMsg_common.o
                0x0800b93c                g_IntStrFormatStr
 *fill*         0x0800b941        0x3 
 .rodata.g_DoubleIntFormatStr
                0x0800b944        0x5 01_Common\04_DbgPrint\DbgPrintMsg_common.o
                0x0800b944                g_DoubleIntFormatStr
 *fill*         0x0800b949        0x3 
 .rodata.g_DoubleUintFormatStr
                0x0800b94c        0x5 01_Common\04_DbgPrint\DbgPrintMsg_common.o
                0x0800b94c                g_DoubleUintFormatStr
 *fill*         0x0800b951        0x3 
 .rodata.g_DoubleHexFormatStr
                0x0800b954        0x5 01_Common\04_DbgPrint\DbgPrintMsg_common.o
                0x0800b954                g_DoubleHexFormatStr
 *fill*         0x0800b959        0x3 
 .rodata.g_TripleIntFormatStr
                0x0800b95c        0x7 01_Common\04_DbgPrint\DbgPrintMsg_common.o
                0x0800b95c                g_TripleIntFormatStr
 *fill*         0x0800b963        0x1 
 .rodata.g_TripleUintFormatStr
                0x0800b964        0x7 01_Common\04_DbgPrint\DbgPrintMsg_common.o
                0x0800b964                g_TripleUintFormatStr
 *fill*         0x0800b96b        0x1 
 .rodata.g_TripleHexFormatStr
                0x0800b96c        0x7 01_Common\04_DbgPrint\DbgPrintMsg_common.o
                0x0800b96c                g_TripleHexFormatStr
 *fill*         0x0800b973        0x1 
 .rodata.g_UintUintHexFormatStr
                0x0800b974        0x7 01_Common\04_DbgPrint\DbgPrintMsg_common.o
                0x0800b974                g_UintUintHexFormatStr
 *fill*         0x0800b97b        0x1 
 .rodata.g_HexIntIntFormatStr
                0x0800b97c        0x7 01_Common\04_DbgPrint\DbgPrintMsg_common.o
                0x0800b97c                g_HexIntIntFormatStr
 *fill*         0x0800b983        0x1 
 .rodata.g_IntIntStrFormatStr
                0x0800b984        0x7 01_Common\04_DbgPrint\DbgPrintMsg_common.o
                0x0800b984                g_IntIntStrFormatStr
 *fill*         0x0800b98b        0x1 
 .rodata.g_TripleUintStrFormat
                0x0800b98c        0x9 01_Common\04_DbgPrint\DbgPrintMsg_common.o
                0x0800b98c                g_TripleUintStrFormat
 *fill*         0x0800b995        0x3 
 .rodata.g_TripleHexStrFormat
                0x0800b998        0x9 01_Common\04_DbgPrint\DbgPrintMsg_common.o
                0x0800b998                g_TripleHexStrFormat
 *fill*         0x0800b9a1        0x3 
 .rodata.g_4IntFormatStr
                0x0800b9a4        0x9 01_Common\04_DbgPrint\DbgPrintMsg_common.o
                0x0800b9a4                g_4IntFormatStr
 *fill*         0x0800b9ad        0x3 
 .rodata.g_HISoS_FormatStr
                0x0800b9b0        0xd 01_Common\04_DbgPrint\DbgPrintMsg_common.o
                0x0800b9b0                g_HISoS_FormatStr
 *fill*         0x0800b9bd        0x3 
 .rodata.g_UUXXX_FormatStr
                0x0800b9c0        0xb 01_Common\04_DbgPrint\DbgPrintMsg_common.o
                0x0800b9c0                g_UUXXX_FormatStr
 *fill*         0x0800b9cb        0x1 
 .rodata.g_UUXUUS_FormatStr
                0x0800b9cc        0xd 01_Common\04_DbgPrint\DbgPrintMsg_common.o
                0x0800b9cc                g_UUXUUS_FormatStr
 *fill*         0x0800b9d9        0x3 
 .rodata.g_XIIiXi_FormatStr
                0x0800b9dc        0xb 01_Common\04_DbgPrint\DbgPrintMsg_common.o
                0x0800b9dc                g_XIIiXi_FormatStr
 *fill*         0x0800b9e7        0x1 
 .rodata.g_Val_HelpStr
                0x0800b9e8        0x7 01_Common\04_DbgPrint\DbgPrintMsg_common.o
                0x0800b9e8                g_Val_HelpStr
 *fill*         0x0800b9ef        0x1 
 .rodata.g_RegVal_HelpStr
                0x0800b9f0        0xd 01_Common\04_DbgPrint\DbgPrintMsg_common.o
                0x0800b9f0                g_RegVal_HelpStr
 *fill*         0x0800b9fd        0x3 
 .rodata.g_SyntaxStr
                0x0800ba00        0x7 01_Common\04_DbgPrint\DbgPrintMsg_common.o
                0x0800ba00                g_SyntaxStr
 *fill*         0x0800ba07        0x1 
 .rodata.g_OptionsStr
                0x0800ba08        0x8 01_Common\04_DbgPrint\DbgPrintMsg_common.o
                0x0800ba08                g_OptionsStr
 .rodata.g_AllStr
                0x0800ba10        0x4 01_Common\04_DbgPrint\DbgPrintMsg_common.o
                0x0800ba10                g_AllStr
 .rodata.g_LFCRStr
                0x0800ba14        0x3 01_Common\04_DbgPrint\DbgPrintMsg_common.o
                0x0800ba14                g_LFCRStr
 *fill*         0x0800ba17        0x1 
 .rodata.g_TabStr
                0x0800ba18        0x2 01_Common\04_DbgPrint\DbgPrintMsg_common.o
                0x0800ba18                g_TabStr
 *fill*         0x0800ba1a        0x2 
 .rodata.g_BS_BS
                0x0800ba1c        0x4 01_Common\04_DbgPrint\DbgPrintMsg_common.o
                0x0800ba1c                g_BS_BS
 .rodata.g_OnStr
                0x0800ba20        0x3 01_Common\04_DbgPrint\DbgPrintMsg_common.o
                0x0800ba20                g_OnStr
 *fill*         0x0800ba23        0x1 
 .rodata.g_OffStr
                0x0800ba24        0x4 01_Common\04_DbgPrint\DbgPrintMsg_common.o
                0x0800ba24                g_OffStr
 .rodata.g_YesStr
                0x0800ba28        0x4 01_Common\04_DbgPrint\DbgPrintMsg_common.o
                0x0800ba28                g_YesStr
 .rodata.g_NoStr
                0x0800ba2c        0x3 01_Common\04_DbgPrint\DbgPrintMsg_common.o
                0x0800ba2c                g_NoStr
 *fill*         0x0800ba2f        0x1 
 .rodata.g_1Str
                0x0800ba30        0x2 01_Common\04_DbgPrint\DbgPrintMsg_common.o
                0x0800ba30                g_1Str
 *fill*         0x0800ba32        0x2 
 .rodata.g_2Str
                0x0800ba34        0x2 01_Common\04_DbgPrint\DbgPrintMsg_common.o
                0x0800ba34                g_2Str
 *fill*         0x0800ba36        0x2 
 .rodata.g_3Str
                0x0800ba38        0x2 01_Common\04_DbgPrint\DbgPrintMsg_common.o
                0x0800ba38                g_3Str
 *fill*         0x0800ba3a        0x2 
 .rodata.g_4Str
                0x0800ba3c        0x2 01_Common\04_DbgPrint\DbgPrintMsg_common.o
                0x0800ba3c                g_4Str
 *fill*         0x0800ba3e        0x2 
 .rodata.g_5Str
                0x0800ba40        0x2 01_Common\04_DbgPrint\DbgPrintMsg_common.o
                0x0800ba40                g_5Str
 *fill*         0x0800ba42        0x2 
 .rodata.g_6Str
                0x0800ba44        0x2 01_Common\04_DbgPrint\DbgPrintMsg_common.o
                0x0800ba44                g_6Str
 *fill*         0x0800ba46        0x2 
 .rodata.g_TemperatureStr
                0x0800ba48        0xc 01_Common\04_DbgPrint\DbgPrintMsg_common.o
                0x0800ba48                g_TemperatureStr
 .rodata.g_HelpStr
                0x0800ba54        0x5 01_Common\04_DbgPrint\DbgPrintMsg_common.o
                0x0800ba54                g_HelpStr
 *fill*         0x0800ba59        0x3 
 .rodata.g_ControlStr
                0x0800ba5c        0x8 01_Common\04_DbgPrint\DbgPrintMsg_common.o
                0x0800ba5c                g_ControlStr
 .rodata.g_MonitorStr
                0x0800ba64        0x8 01_Common\04_DbgPrint\DbgPrintMsg_common.o
                0x0800ba64                g_MonitorStr
 .rodata.g_DebugStr
                0x0800ba6c        0x6 01_Common\04_DbgPrint\DbgPrintMsg_common.o
                0x0800ba6c                g_DebugStr
 *fill*         0x0800ba72        0x2 
 .rodata.g_MiscStr
                0x0800ba74        0x5 01_Common\04_DbgPrint\DbgPrintMsg_common.o
                0x0800ba74                g_MiscStr
 *fill*         0x0800ba79        0x3 
 .rodata.g_Enable_Str
                0x0800ba7c        0x7 01_Common\04_DbgPrint\DbgPrintMsg_common.o
                0x0800ba7c                g_Enable_Str
 *fill*         0x0800ba83        0x1 
 .rodata.g_Disable_Str
                0x0800ba84        0x8 01_Common\04_DbgPrint\DbgPrintMsg_common.o
                0x0800ba84                g_Disable_Str
 .rodata.g_MdrvStr
                0x0800ba8c        0x5 01_Common\04_DbgPrint\DbgPrintMsg_common.o
                0x0800ba8c                g_MdrvStr
 *fill*         0x0800ba91        0x3 
 .rodata.g_Set_RPM_Str
                0x0800ba94        0x8 01_Common\04_DbgPrint\DbgPrintMsg_common.o
                0x0800ba94                g_Set_RPM_Str
 .rodata.AHBPrescTable
                0x0800ba9c       0x10 02_STM_Drivers\STM32F4xx_HAL_Driver\Src\gipsy_hal_rcc.o
                0x0800ba9c                AHBPrescTable
 .rodata.APBPrescTable
                0x0800baac        0x8 02_STM_Drivers\STM32F4xx_HAL_Driver\Src\gipsy_hal_rcc.o
                0x0800baac                APBPrescTable
 .rodata.BrdTempSensAddr
                0x0800bab4       0x10 CTRY_Files\mcp9804.o
                0x0800bab4                BrdTempSensAddr
 .rodata.LV8907_ConfReg
                0x0800bac4       0x30 CTRY_Files\motor_driver.o
                0x0800bac4                LV8907_ConfReg
 .rodata.MdrvPins
                0x0800baf4       0xc0 CTRY_Files\motor_driver.o
                0x0800baf4                MdrvPins
 .rodata._setlocale_r.str1.1
                0x0800bbb4        0x8 c:/program files (x86)/atollic/truestudio for stm32 9.1.0/armtools/bin/../lib/gcc/arm-atollic-eabi/6.3.1/../../../../arm-atollic-eabi/lib/armv7e-m/fpu\libc_nano.a(lib_a-locale.o)
                                  0x9 (size before relaxing)
 .rodata.str1.1
                0x0800bbbc        0x2 c:/program files (x86)/atollic/truestudio for stm32 9.1.0/armtools/bin/../lib/gcc/arm-atollic-eabi/6.3.1/../../../../arm-atollic-eabi/lib/armv7e-m/fpu\libc_nano.a(lib_a-locale.o)
 .rodata._ctype_
                0x0800bbbe      0x101 c:/program files (x86)/atollic/truestudio for stm32 9.1.0/armtools/bin/../lib/gcc/arm-atollic-eabi/6.3.1/../../../../arm-atollic-eabi/lib/armv7e-m/fpu\libc_nano.a(lib_a-ctype_.o)
                0x0800bbbe                _ctype_
 .rodata._svfprintf_r.str1.1
                0x0800bcbf       0x11 c:/program files (x86)/atollic/truestudio for stm32 9.1.0/armtools/bin/../lib/gcc/arm-atollic-eabi/6.3.1/../../../../arm-atollic-eabi/lib/armv7e-m/fpu\libc_nano.a(lib_a-nano-svfprintf.o)
 .rodata.__ssvfscanf_r.str1.1
                0x0800bcd0        0x4 c:/program files (x86)/atollic/truestudio for stm32 9.1.0/armtools/bin/../lib/gcc/arm-atollic-eabi/6.3.1/../../../../arm-atollic-eabi/lib/armv7e-m/fpu\libc_nano.a(lib_a-nano-svfscanf.o)
 .rodata._printf_i.str1.1
                0x0800bcd0       0x22 c:/program files (x86)/atollic/truestudio for stm32 9.1.0/armtools/bin/../lib/gcc/arm-atollic-eabi/6.3.1/../../../../arm-atollic-eabi/lib/armv7e-m/fpu\libc_nano.a(lib_a-nano-vfprintf_i.o)
 .rodata._scanf_i.str1.1
                0x0800bcf2       0x12 c:/program files (x86)/atollic/truestudio for stm32 9.1.0/armtools/bin/../lib/gcc/arm-atollic-eabi/6.3.1/../../../../arm-atollic-eabi/lib/armv7e-m/fpu\libc_nano.a(lib_a-nano-vfscanf_i.o)
 .rodata.str1.1
                0x0800bd04        0x9 c:/program files (x86)/atollic/truestudio for stm32 9.1.0/armtools/bin/../lib/gcc/arm-atollic-eabi/6.3.1/../../../../arm-atollic-eabi/lib/armv7e-m/fpu\libc_nano.a(lib_a-nano-vfscanf_i.o)
 *fill*         0x0800bd0d        0x3 
 .rodata.__sf_fake_stderr
                0x0800bd10       0x20 c:/program files (x86)/atollic/truestudio for stm32 9.1.0/armtools/bin/../lib/gcc/arm-atollic-eabi/6.3.1/../../../../arm-atollic-eabi/lib/armv7e-m/fpu\libc_nano.a(lib_a-findfp.o)
                0x0800bd10                __sf_fake_stderr
 .rodata.__sf_fake_stdin
                0x0800bd30       0x20 c:/program files (x86)/atollic/truestudio for stm32 9.1.0/armtools/bin/../lib/gcc/arm-atollic-eabi/6.3.1/../../../../arm-atollic-eabi/lib/armv7e-m/fpu\libc_nano.a(lib_a-findfp.o)
                0x0800bd30                __sf_fake_stdin
 .rodata.__sf_fake_stdout
                0x0800bd50       0x20 c:/program files (x86)/atollic/truestudio for stm32 9.1.0/armtools/bin/../lib/gcc/arm-atollic-eabi/6.3.1/../../../../arm-atollic-eabi/lib/armv7e-m/fpu\libc_nano.a(lib_a-findfp.o)
                0x0800bd50                __sf_fake_stdout
                0x0800bd70                . = ALIGN (0x4)

.ARM.extab
 *(.ARM.extab* .gnu.linkonce.armextab.*)

.ARM            0x0800bd70        0x8
                0x0800bd70                __exidx_start = .
 *(.ARM.exidx*)
 .ARM.exidx     0x0800bd70        0x8 c:/program files (x86)/atollic/truestudio for stm32 9.1.0/armtools/bin/../lib/gcc/arm-atollic-eabi/6.3.1/armv7e-m/fpu\libgcc.a(_udivmoddi4.o)
                0x0800bd78                __exidx_end = .

.rel.dyn        0x0800bd78        0x0
 .rel.iplt      0x0800bd78        0x0 c:/program files (x86)/atollic/truestudio for stm32 9.1.0/armtools/bin/../lib/gcc/arm-atollic-eabi/6.3.1/armv7e-m/fpu/crtbegin.o

.preinit_array  0x0800bd78        0x0
                0x0800bd78                PROVIDE (__preinit_array_start, .)
 *(.preinit_array*)
                0x0800bd78                PROVIDE (__preinit_array_end, .)

.init_array     0x0800bd78        0x4
                0x0800bd78                PROVIDE (__init_array_start, .)
 *(SORT(.init_array.*))
 *(.init_array*)
 .init_array    0x0800bd78        0x4 c:/program files (x86)/atollic/truestudio for stm32 9.1.0/armtools/bin/../lib/gcc/arm-atollic-eabi/6.3.1/armv7e-m/fpu/crtbegin.o
                0x0800bd7c                PROVIDE (__init_array_end, .)

.fini_array     0x0800bd7c        0x4
                [!provide]                PROVIDE (__fini_array_start, .)
 *(SORT(.fini_array.*))
 *(.fini_array*)
 .fini_array    0x0800bd7c        0x4 c:/program files (x86)/atollic/truestudio for stm32 9.1.0/armtools/bin/../lib/gcc/arm-atollic-eabi/6.3.1/armv7e-m/fpu/crtbegin.o
                [!provide]                PROVIDE (__fini_array_end, .)
                0x0800bd80                _sidata = LOADADDR (.data)

.data           0x20000000      0x2cc load address 0x0800bd80
                0x20000000                . = ALIGN (0x4)
                0x20000000                _sdata = .
 *(.data)
 *(.data*)
 .data.hADC1    0x20000000       0x30 02_STM_Drivers\STM32F4xx_HAL_Driver\Src\gipsy_hal_adc.o
 .data.hCAN1    0x20000030       0x28 02_STM_Drivers\STM32F4xx_HAL_Driver\Src\gipsy_hal_can.o
                0x20000030                hCAN1
 .data.Tick_Freq
                0x20000058        0x4 02_STM_Drivers\STM32F4xx_HAL_Driver\Src\gipsy_hal_rcc.o
                0x20000058                Tick_Freq
 .data.SystemCoreClock
                0x2000005c        0x4 02_STM_Drivers\STM32F4xx_HAL_Driver\Src\gipsy_hal_rcc.o
                0x2000005c                SystemCoreClock
 .data.g_BoardTempSens
                0x20000060       0x20 CTRY_Files\Temperature_Control.o
                0x20000060                g_BoardTempSens
 .data.Ctry_ID_Value
                0x20000080        0x1 CTRY_Files\id_conf_ctry.o
 *fill*         0x20000081        0x3 
 .data.MdrvPwmCh
                0x20000084       0x30 CTRY_Files\motor_driver.o
                0x20000084                MdrvPwmCh
 .data.g_VoltageMeasurement
                0x200000b4       0x30 CTRY_Files\voltage_meas_ctry.o
                0x200000b4                g_VoltageMeasurement
 .data.VoltHwParams
                0x200000e4       0x18 CTRY_Files\voltage_meas_ctry.o
                0x200000e4                VoltHwParams
 .data.__global_locale
                0x200000fc      0x16c c:/program files (x86)/atollic/truestudio for stm32 9.1.0/armtools/bin/../lib/gcc/arm-atollic-eabi/6.3.1/../../../../arm-atollic-eabi/lib/armv7e-m/fpu\libc_nano.a(lib_a-locale.o)
                0x200000fc                __global_locale
 .data._impure_ptr
                0x20000268        0x4 c:/program files (x86)/atollic/truestudio for stm32 9.1.0/armtools/bin/../lib/gcc/arm-atollic-eabi/6.3.1/../../../../arm-atollic-eabi/lib/armv7e-m/fpu\libc_nano.a(lib_a-impure.o)
                0x20000268                _impure_ptr
 .data.impure_data
                0x2000026c       0x60 c:/program files (x86)/atollic/truestudio for stm32 9.1.0/armtools/bin/../lib/gcc/arm-atollic-eabi/6.3.1/../../../../arm-atollic-eabi/lib/armv7e-m/fpu\libc_nano.a(lib_a-impure.o)
                0x200002cc                . = ALIGN (0x4)
                0x200002cc                _edata = .
                0x0800c04c                _siccmram = LOADADDR (.ccmram)

.igot.plt       0x200002cc        0x0 load address 0x0800c04c
 .igot.plt      0x200002cc        0x0 c:/program files (x86)/atollic/truestudio for stm32 9.1.0/armtools/bin/../lib/gcc/arm-atollic-eabi/6.3.1/armv7e-m/fpu/crtbegin.o

.ccmram         0x10000000        0x0 load address 0x0800c04c
                0x10000000                . = ALIGN (0x4)
                0x10000000                _sccmram = .
 *(.ccmram)
 *(.ccmram*)
                0x10000000                . = ALIGN (0x4)
                0x10000000                _eccmram = .
                0x10000000                . = ALIGN (0x4)

.bss            0x200002cc     0x6074
                0x200002cc                _sbss = .
                0x200002cc                __bss_start__ = _sbss
 *(.bss)
 .bss           0x200002cc       0x1c c:/program files (x86)/atollic/truestudio for stm32 9.1.0/armtools/bin/../lib/gcc/arm-atollic-eabi/6.3.1/armv7e-m/fpu/crtbegin.o
 *(.bss*)
 .bss.rx_data   0x200002e8        0x1 01_Common\01_BSP\03_UART\uart.o
                0x200002e8                rx_data
 *fill*         0x200002e9        0x3 
 .bss.g_pTermInBuf
                0x200002ec        0x4 01_Common\01_BSP\03_UART\uart.o
 .bss.keywords_ptrs
                0x200002f0      0x154 01_Common\02_CLI\00_CLI_ENGINE\cli_parser.o
 .bss.cReplyBuf
                0x20000444     0x1064 01_Common\02_CLI\00_CLI_ENGINE\cli_parser.o
 .bss.cParseBuf
                0x200014a8      0x800 01_Common\02_CLI\00_CLI_ENGINE\cli_parser.o
 .bss.CliCompletion
                0x20001ca8        0x8 01_Common\02_CLI\00_CLI_ENGINE\cli_parser.o
 .bss.Tick_Value
                0x20001cb0        0x4 02_STM_Drivers\STM32F4xx_HAL_Driver\Src\gipsy_hal_rcc.o
                0x20001cb0                Tick_Value
 .bss.g_ActuatorsPair
                0x20001cb4        0x9 CTRY_Files\actuator_ctrl.o
                0x20001cb4                g_ActuatorsPair
 *fill*         0x20001cbd        0x3 
 .bss.g_CanFailuresCounter
                0x20001cc0        0x4 CTRY_Files\can_protocol_ctry.o
                0x20001cc0                g_CanFailuresCounter
 .bss.g_MeasuredCurrent
                0x20001cc4        0x2 CTRY_Files\current_sensor.o
                0x20001cc4                g_MeasuredCurrent
 *fill*         0x20001cc6        0x2 
 .bss.g_ModuleParams
                0x20001cc8        0xa CTRY_Files\module_init_ctry.o
                0x20001cc8                g_ModuleParams
 *fill*         0x20001cd2        0x2 
 .bss.SysCtryStatusTable
                0x20001cd4       0xa0 CTRY_Files\system_params_ctry.o
 .bss.__malloc_free_list
                0x20001d74        0x4 c:/program files (x86)/atollic/truestudio for stm32 9.1.0/armtools/bin/../lib/gcc/arm-atollic-eabi/6.3.1/../../../../arm-atollic-eabi/lib/armv7e-m/fpu\libc_nano.a(lib_a-nano-mallocr.o)
                0x20001d74                __malloc_free_list
 .bss.__malloc_sbrk_start
                0x20001d78        0x4 c:/program files (x86)/atollic/truestudio for stm32 9.1.0/armtools/bin/../lib/gcc/arm-atollic-eabi/6.3.1/../../../../arm-atollic-eabi/lib/armv7e-m/fpu\libc_nano.a(lib_a-nano-mallocr.o)
                0x20001d78                __malloc_sbrk_start
 .bss.heap_end.5239
                0x20001d7c        0x4 c:/program files (x86)/atollic/truestudio for stm32 9.1.0/armtools/bin/../lib/gcc/arm-atollic-eabi/6.3.1/../../../../arm-atollic-eabi/lib/armv7e-m/fpu\libnosys.a(sbrk.o)
 *(COMMON)
 COMMON         0x20001d80     0x3940 01_Common\01_BSP\03_UART\uart.o
                0x20001d80                cTermInBuf
                0x20002de4                gcBuffer
                0x200035e4                rx_buffer
                0x200035f8                cCliCompleteBuf
                0x2000465c                cCliInBuf
 COMMON         0x200056c0      0xb28 01_Common\02_CLI\00_CLI_ENGINE\cli_parser.o
                0x200056c0                CommandLineBuff
                0x20005ec0                CliHistory
 COMMON         0x200061e8      0x154 CTRY_Files\board_cfg_ctry.o
                0x200061e8                g_HandleUart3_Debug
                0x20006220                g_HandleI2C_1_TempDrv
                0x2000626c                g_HandleI2C_2_TempMcu
                0x200062b8                g_HandleI2C_3_Accel
                0x20006304                g_HandleTim4
                0x20006320                g_HandleTim3
 COMMON         0x2000633c        0x4 c:/program files (x86)/atollic/truestudio for stm32 9.1.0/armtools/bin/../lib/gcc/arm-atollic-eabi/6.3.1/../../../../arm-atollic-eabi/lib/armv7e-m/fpu\libc_nano.a(lib_a-reent.o)
                0x2000633c                errno
                0x20006340                . = ALIGN (0x4)
                0x20006340                _ebss = .
                0x20006340                __bss_end__ = _ebss

._user_heap_stack
                0x20006340      0x400
                0x20006340                . = ALIGN (0x4)
                0x20006340                PROVIDE (end, .)
                [!provide]                PROVIDE (_end, .)
                0x20006340                . = (. + _Min_Heap_Size)
                0x20006740                . = (. + _Min_Stack_Size)
 *fill*         0x20006340      0x400 
                0x20006740                . = ALIGN (0x4)

.memory_b1_text
 *(.mb1text)
 *(.mb1text*)
 *(.mb1rodata)
 *(.mb1rodata*)

/DISCARD/
 libc.a(*)
 libm.a(*)
 libgcc.a(*)

.ARM.attributes
                0x00000000       0x30
 *(.ARM.attributes)
 .ARM.attributes
                0x00000000       0x22 c:/program files (x86)/atollic/truestudio for stm32 9.1.0/armtools/bin/../lib/gcc/arm-atollic-eabi/6.3.1/armv7e-m/fpu/crti.o
 .ARM.attributes
                0x00000022       0x34 c:/program files (x86)/atollic/truestudio for stm32 9.1.0/armtools/bin/../lib/gcc/arm-atollic-eabi/6.3.1/armv7e-m/fpu/crtbegin.o
 .ARM.attributes
                0x00000056       0x39 01_Common\01_BSP\03_UART\uart.o
 .ARM.attributes
                0x0000008f       0x39 01_Common\02_CLI\00_CLI_ENGINE\cli_engine.o
 .ARM.attributes
                0x000000c8       0x39 01_Common\02_CLI\00_CLI_ENGINE\cli_general.o
 .ARM.attributes
                0x00000101       0x39 01_Common\02_CLI\00_CLI_ENGINE\cli_io.o
 .ARM.attributes
                0x0000013a       0x39 01_Common\02_CLI\00_CLI_ENGINE\cli_msg.o
 .ARM.attributes
                0x00000173       0x39 01_Common\02_CLI\00_CLI_ENGINE\cli_parser.o
 .ARM.attributes
                0x000001ac       0x39 01_Common\02_CLI\02_CLI_CTRY\cli_control_func_ctry.o
 .ARM.attributes
                0x000001e5       0x39 01_Common\02_CLI\02_CLI_CTRY\cli_debug_func_ctry.o
 .ARM.attributes
                0x0000021e       0x39 01_Common\02_CLI\02_CLI_CTRY\cli_main_menu_ctry.o
 .ARM.attributes
                0x00000257       0x39 01_Common\02_CLI\02_CLI_CTRY\cli_monitor_func_ctry.o
 .ARM.attributes
                0x00000290       0x39 01_Common\04_DbgPrint\DbgPrintMsg_common.o
 .ARM.attributes
                0x000002c9       0x39 02_STM_Drivers\STM32F4xx_HAL_Driver\Src\gipsy_hal_adc.o
 .ARM.attributes
                0x00000302       0x39 02_STM_Drivers\STM32F4xx_HAL_Driver\Src\gipsy_hal_can.o
 .ARM.attributes
                0x0000033b       0x39 02_STM_Drivers\STM32F4xx_HAL_Driver\Src\gipsy_hal_gpio.o
 .ARM.attributes
                0x00000374       0x39 02_STM_Drivers\STM32F4xx_HAL_Driver\Src\gipsy_hal_i2c.o
 .ARM.attributes
                0x000003ad       0x39 02_STM_Drivers\STM32F4xx_HAL_Driver\Src\gipsy_hal_rcc.o
 .ARM.attributes
                0x000003e6       0x39 02_STM_Drivers\STM32F4xx_HAL_Driver\Src\gipsy_hal_uart.o
 .ARM.attributes
                0x0000041f       0x39 02_STM_Drivers\STM32F4xx_HAL_Driver\Src\stm32f4xx_hal_cortex.o
 .ARM.attributes
                0x00000458       0x39 02_STM_Drivers\STM32F4xx_HAL_Driver\Src\stm32f4xx_hal_tim.o
 .ARM.attributes
                0x00000491       0x39 CTRY_Files\Temperature_Control.o
 .ARM.attributes
                0x000004ca       0x39 CTRY_Files\actuator_ctrl.o
 .ARM.attributes
                0x00000503       0x39 CTRY_Files\board_cfg_ctry.o
 .ARM.attributes
                0x0000053c       0x39 CTRY_Files\can_protocol_ctry.o
 .ARM.attributes
                0x00000575       0x39 CTRY_Files\current_sensor.o
 .ARM.attributes
                0x000005ae       0x39 CTRY_Files\flash_integrity_test.o
 .ARM.attributes
                0x000005e7       0x39 CTRY_Files\gpio_control_ctry.o
 .ARM.attributes
                0x00000620       0x39 CTRY_Files\id_conf_ctry.o
 .ARM.attributes
                0x00000659       0x39 CTRY_Files\mcp9804.o
 .ARM.attributes
                0x00000692       0x39 CTRY_Files\module_init_ctry.o
 .ARM.attributes
                0x000006cb       0x39 CTRY_Files\motor_driver.o
 .ARM.attributes
                0x00000704       0x39 CTRY_Files\periodic_ctry.o
 .ARM.attributes
                0x0000073d       0x39 CTRY_Files\system_params_ctry.o
 .ARM.attributes
                0x00000776       0x39 CTRY_Files\vibration_meas.o
 .ARM.attributes
                0x000007af       0x39 CTRY_Files\voltage_meas_ctry.o
 .ARM.attributes
                0x000007e8       0x39 CTRY_Files\wdog.o
 .ARM.attributes
                0x00000821       0x39 Src\gipsy_ctry_it.o
 .ARM.attributes
                0x0000085a       0x39 Src\main.o
 .ARM.attributes
                0x00000893       0x21 Startup\startup_stm32f427xx.o
 .ARM.attributes
                0x000008b4       0x34 c:/program files (x86)/atollic/truestudio for stm32 9.1.0/armtools/bin/../lib/gcc/arm-atollic-eabi/6.3.1/../../../../arm-atollic-eabi/lib/armv7e-m/fpu\libc_nano.a(lib_a-init.o)
 .ARM.attributes
                0x000008e8       0x34 c:/program files (x86)/atollic/truestudio for stm32 9.1.0/armtools/bin/../lib/gcc/arm-atollic-eabi/6.3.1/../../../../arm-atollic-eabi/lib/armv7e-m/fpu\libc_nano.a(lib_a-locale.o)
 .ARM.attributes
                0x0000091c       0x34 c:/program files (x86)/atollic/truestudio for stm32 9.1.0/armtools/bin/../lib/gcc/arm-atollic-eabi/6.3.1/../../../../arm-atollic-eabi/lib/armv7e-m/fpu\libc_nano.a(lib_a-mbtowc_r.o)
 .ARM.attributes
                0x00000950       0x34 c:/program files (x86)/atollic/truestudio for stm32 9.1.0/armtools/bin/../lib/gcc/arm-atollic-eabi/6.3.1/../../../../arm-atollic-eabi/lib/armv7e-m/fpu\libc_nano.a(lib_a-memcpy-stub.o)
 .ARM.attributes
                0x00000984       0x34 c:/program files (x86)/atollic/truestudio for stm32 9.1.0/armtools/bin/../lib/gcc/arm-atollic-eabi/6.3.1/../../../../arm-atollic-eabi/lib/armv7e-m/fpu\libc_nano.a(lib_a-memset.o)
 .ARM.attributes
                0x000009b8       0x34 c:/program files (x86)/atollic/truestudio for stm32 9.1.0/armtools/bin/../lib/gcc/arm-atollic-eabi/6.3.1/../../../../arm-atollic-eabi/lib/armv7e-m/fpu\libc_nano.a(lib_a-snprintf.o)
 .ARM.attributes
                0x000009ec       0x34 c:/program files (x86)/atollic/truestudio for stm32 9.1.0/armtools/bin/../lib/gcc/arm-atollic-eabi/6.3.1/../../../../arm-atollic-eabi/lib/armv7e-m/fpu\libc_nano.a(lib_a-sprintf.o)
 .ARM.attributes
                0x00000a20       0x34 c:/program files (x86)/atollic/truestudio for stm32 9.1.0/armtools/bin/../lib/gcc/arm-atollic-eabi/6.3.1/../../../../arm-atollic-eabi/lib/armv7e-m/fpu\libc_nano.a(lib_a-sscanf.o)
 .ARM.attributes
                0x00000a54       0x34 c:/program files (x86)/atollic/truestudio for stm32 9.1.0/armtools/bin/../lib/gcc/arm-atollic-eabi/6.3.1/../../../../arm-atollic-eabi/lib/armv7e-m/fpu\libc_nano.a(lib_a-stdio.o)
 .ARM.attributes
                0x00000a88       0x34 c:/program files (x86)/atollic/truestudio for stm32 9.1.0/armtools/bin/../lib/gcc/arm-atollic-eabi/6.3.1/../../../../arm-atollic-eabi/lib/armv7e-m/fpu\libc_nano.a(lib_a-strchr.o)
 .ARM.attributes
                0x00000abc       0x20 c:/program files (x86)/atollic/truestudio for stm32 9.1.0/armtools/bin/../lib/gcc/arm-atollic-eabi/6.3.1/../../../../arm-atollic-eabi/lib/armv7e-m/fpu\libc_nano.a(lib_a-strcmp.o)
 .ARM.attributes
                0x00000adc       0x34 c:/program files (x86)/atollic/truestudio for stm32 9.1.0/armtools/bin/../lib/gcc/arm-atollic-eabi/6.3.1/../../../../arm-atollic-eabi/lib/armv7e-m/fpu\libc_nano.a(lib_a-strcpy.o)
 .ARM.attributes
                0x00000b10       0x1b c:/program files (x86)/atollic/truestudio for stm32 9.1.0/armtools/bin/../lib/gcc/arm-atollic-eabi/6.3.1/../../../../arm-atollic-eabi/lib/armv7e-m/fpu\libc_nano.a(lib_a-strlen.o)
 .ARM.attributes
                0x00000b2b       0x34 c:/program files (x86)/atollic/truestudio for stm32 9.1.0/armtools/bin/../lib/gcc/arm-atollic-eabi/6.3.1/../../../../arm-atollic-eabi/lib/armv7e-m/fpu\libc_nano.a(lib_a-strncat.o)
 .ARM.attributes
                0x00000b5f       0x34 c:/program files (x86)/atollic/truestudio for stm32 9.1.0/armtools/bin/../lib/gcc/arm-atollic-eabi/6.3.1/../../../../arm-atollic-eabi/lib/armv7e-m/fpu\libc_nano.a(lib_a-strncmp.o)
 .ARM.attributes
                0x00000b93       0x34 c:/program files (x86)/atollic/truestudio for stm32 9.1.0/armtools/bin/../lib/gcc/arm-atollic-eabi/6.3.1/../../../../arm-atollic-eabi/lib/armv7e-m/fpu\libc_nano.a(lib_a-strncpy.o)
 .ARM.attributes
                0x00000bc7       0x34 c:/program files (x86)/atollic/truestudio for stm32 9.1.0/armtools/bin/../lib/gcc/arm-atollic-eabi/6.3.1/../../../../arm-atollic-eabi/lib/armv7e-m/fpu\libc_nano.a(lib_a-strstr.o)
 .ARM.attributes
                0x00000bfb       0x34 c:/program files (x86)/atollic/truestudio for stm32 9.1.0/armtools/bin/../lib/gcc/arm-atollic-eabi/6.3.1/../../../../arm-atollic-eabi/lib/armv7e-m/fpu\libc_nano.a(lib_a-strtol.o)
 .ARM.attributes
                0x00000c2f       0x34 c:/program files (x86)/atollic/truestudio for stm32 9.1.0/armtools/bin/../lib/gcc/arm-atollic-eabi/6.3.1/../../../../arm-atollic-eabi/lib/armv7e-m/fpu\libc_nano.a(lib_a-strtoul.o)
 .ARM.attributes
                0x00000c63       0x34 c:/program files (x86)/atollic/truestudio for stm32 9.1.0/armtools/bin/../lib/gcc/arm-atollic-eabi/6.3.1/../../../../arm-atollic-eabi/lib/armv7e-m/fpu\libc_nano.a(lib_a-vsnprintf.o)
 .ARM.attributes
                0x00000c97       0x34 c:/program files (x86)/atollic/truestudio for stm32 9.1.0/armtools/bin/../lib/gcc/arm-atollic-eabi/6.3.1/../../../../arm-atollic-eabi/lib/armv7e-m/fpu\libc_nano.a(lib_a-wctomb_r.o)
 .ARM.attributes
                0x00000ccb       0x34 c:/program files (x86)/atollic/truestudio for stm32 9.1.0/armtools/bin/../lib/gcc/arm-atollic-eabi/6.3.1/../../../../arm-atollic-eabi/lib/armv7e-m/fpu\libc_nano.a(lib_a-ctype_.o)
 .ARM.attributes
                0x00000cff       0x34 c:/program files (x86)/atollic/truestudio for stm32 9.1.0/armtools/bin/../lib/gcc/arm-atollic-eabi/6.3.1/../../../../arm-atollic-eabi/lib/armv7e-m/fpu\libc_nano.a(lib_a-impure.o)
 .ARM.attributes
                0x00000d33       0x34 c:/program files (x86)/atollic/truestudio for stm32 9.1.0/armtools/bin/../lib/gcc/arm-atollic-eabi/6.3.1/../../../../arm-atollic-eabi/lib/armv7e-m/fpu\libc_nano.a(lib_a-nano-svfprintf.o)
 .ARM.attributes
                0x00000d67       0x34 c:/program files (x86)/atollic/truestudio for stm32 9.1.0/armtools/bin/../lib/gcc/arm-atollic-eabi/6.3.1/../../../../arm-atollic-eabi/lib/armv7e-m/fpu\libc_nano.a(lib_a-nano-svfscanf.o)
 .ARM.attributes
                0x00000d9b       0x34 c:/program files (x86)/atollic/truestudio for stm32 9.1.0/armtools/bin/../lib/gcc/arm-atollic-eabi/6.3.1/../../../../arm-atollic-eabi/lib/armv7e-m/fpu\libc_nano.a(lib_a-nano-vfprintf_i.o)
 .ARM.attributes
                0x00000dcf       0x34 c:/program files (x86)/atollic/truestudio for stm32 9.1.0/armtools/bin/../lib/gcc/arm-atollic-eabi/6.3.1/../../../../arm-atollic-eabi/lib/armv7e-m/fpu\libc_nano.a(lib_a-nano-vfscanf_i.o)
 .ARM.attributes
                0x00000e03       0x34 c:/program files (x86)/atollic/truestudio for stm32 9.1.0/armtools/bin/../lib/gcc/arm-atollic-eabi/6.3.1/../../../../arm-atollic-eabi/lib/armv7e-m/fpu\libc_nano.a(lib_a-reent.o)
 .ARM.attributes
                0x00000e37       0x34 c:/program files (x86)/atollic/truestudio for stm32 9.1.0/armtools/bin/../lib/gcc/arm-atollic-eabi/6.3.1/../../../../arm-atollic-eabi/lib/armv7e-m/fpu\libc_nano.a(lib_a-sccl.o)
 .ARM.attributes
                0x00000e6b       0x34 c:/program files (x86)/atollic/truestudio for stm32 9.1.0/armtools/bin/../lib/gcc/arm-atollic-eabi/6.3.1/../../../../arm-atollic-eabi/lib/armv7e-m/fpu\libc_nano.a(lib_a-ungetc.o)
 .ARM.attributes
                0x00000e9f       0x34 c:/program files (x86)/atollic/truestudio for stm32 9.1.0/armtools/bin/../lib/gcc/arm-atollic-eabi/6.3.1/../../../../arm-atollic-eabi/lib/armv7e-m/fpu\libc_nano.a(lib_a-findfp.o)
 .ARM.attributes
                0x00000ed3       0x20 c:/program files (x86)/atollic/truestudio for stm32 9.1.0/armtools/bin/../lib/gcc/arm-atollic-eabi/6.3.1/../../../../arm-atollic-eabi/lib/armv7e-m/fpu\libc_nano.a(lib_a-memchr.o)
 .ARM.attributes
                0x00000ef3       0x34 c:/program files (x86)/atollic/truestudio for stm32 9.1.0/armtools/bin/../lib/gcc/arm-atollic-eabi/6.3.1/../../../../arm-atollic-eabi/lib/armv7e-m/fpu\libc_nano.a(lib_a-memmove.o)
 .ARM.attributes
                0x00000f27       0x34 c:/program files (x86)/atollic/truestudio for stm32 9.1.0/armtools/bin/../lib/gcc/arm-atollic-eabi/6.3.1/../../../../arm-atollic-eabi/lib/armv7e-m/fpu\libc_nano.a(lib_a-nano-freer.o)
 .ARM.attributes
                0x00000f5b       0x34 c:/program files (x86)/atollic/truestudio for stm32 9.1.0/armtools/bin/../lib/gcc/arm-atollic-eabi/6.3.1/../../../../arm-atollic-eabi/lib/armv7e-m/fpu\libc_nano.a(lib_a-nano-mallocr.o)
 .ARM.attributes
                0x00000f8f       0x34 c:/program files (x86)/atollic/truestudio for stm32 9.1.0/armtools/bin/../lib/gcc/arm-atollic-eabi/6.3.1/../../../../arm-atollic-eabi/lib/armv7e-m/fpu\libc_nano.a(lib_a-nano-reallocr.o)
 .ARM.attributes
                0x00000fc3       0x34 c:/program files (x86)/atollic/truestudio for stm32 9.1.0/armtools/bin/../lib/gcc/arm-atollic-eabi/6.3.1/../../../../arm-atollic-eabi/lib/armv7e-m/fpu\libc_nano.a(lib_a-sbrkr.o)
 .ARM.attributes
                0x00000ff7       0x34 c:/program files (x86)/atollic/truestudio for stm32 9.1.0/armtools/bin/../lib/gcc/arm-atollic-eabi/6.3.1/../../../../arm-atollic-eabi/lib/armv7e-m/fpu\libc_nano.a(lib_a-mlock.o)
 .ARM.attributes
                0x0000102b       0x34 c:/program files (x86)/atollic/truestudio for stm32 9.1.0/armtools/bin/../lib/gcc/arm-atollic-eabi/6.3.1/../../../../arm-atollic-eabi/lib/armv7e-m/fpu\libc_nano.a(lib_a-nano-msizer.o)
 .ARM.attributes
                0x0000105f       0x22 c:/program files (x86)/atollic/truestudio for stm32 9.1.0/armtools/bin/../lib/gcc/arm-atollic-eabi/6.3.1/armv7e-m/fpu\libgcc.a(_arm_addsubdf3.o)
 .ARM.attributes
                0x00001081       0x22 c:/program files (x86)/atollic/truestudio for stm32 9.1.0/armtools/bin/../lib/gcc/arm-atollic-eabi/6.3.1/armv7e-m/fpu\libgcc.a(_arm_muldivdf3.o)
 .ARM.attributes
                0x000010a3       0x22 c:/program files (x86)/atollic/truestudio for stm32 9.1.0/armtools/bin/../lib/gcc/arm-atollic-eabi/6.3.1/armv7e-m/fpu\libgcc.a(_arm_cmpdf2.o)
 .ARM.attributes
                0x000010c5       0x22 c:/program files (x86)/atollic/truestudio for stm32 9.1.0/armtools/bin/../lib/gcc/arm-atollic-eabi/6.3.1/armv7e-m/fpu\libgcc.a(_arm_truncdfsf2.o)
 .ARM.attributes
                0x000010e7       0x22 c:/program files (x86)/atollic/truestudio for stm32 9.1.0/armtools/bin/../lib/gcc/arm-atollic-eabi/6.3.1/armv7e-m/fpu\libgcc.a(_aeabi_uldivmod.o)
 .ARM.attributes
                0x00001109       0x34 c:/program files (x86)/atollic/truestudio for stm32 9.1.0/armtools/bin/../lib/gcc/arm-atollic-eabi/6.3.1/armv7e-m/fpu\libgcc.a(_udivmoddi4.o)
 .ARM.attributes
                0x0000113d       0x22 c:/program files (x86)/atollic/truestudio for stm32 9.1.0/armtools/bin/../lib/gcc/arm-atollic-eabi/6.3.1/armv7e-m/fpu\libgcc.a(_dvmd_tls.o)
 .ARM.attributes
                0x0000115f       0x34 c:/program files (x86)/atollic/truestudio for stm32 9.1.0/armtools/bin/../lib/gcc/arm-atollic-eabi/6.3.1/../../../../arm-atollic-eabi/lib/armv7e-m/fpu\libnosys.a(sbrk.o)
 .ARM.attributes
                0x00001193       0x22 c:/program files (x86)/atollic/truestudio for stm32 9.1.0/armtools/bin/../lib/gcc/arm-atollic-eabi/6.3.1/armv7e-m/fpu/crtn.o
OUTPUT(CTRY_99_06_QUAL.elf elf32-littlearm)

.debug_info     0x00000000    0x35a8a
 .debug_info    0x00000000     0x25b2 01_Common\01_BSP\03_UART\uart.o
 .debug_info    0x000025b2     0x245d 01_Common\02_CLI\00_CLI_ENGINE\cli_engine.o
 .debug_info    0x00004a0f     0x1d57 01_Common\02_CLI\00_CLI_ENGINE\cli_general.o
 .debug_info    0x00006766     0x20c4 01_Common\02_CLI\00_CLI_ENGINE\cli_io.o
 .debug_info    0x0000882a     0x2406 01_Common\02_CLI\00_CLI_ENGINE\cli_msg.o
 .debug_info    0x0000ac30     0x238c 01_Common\02_CLI\00_CLI_ENGINE\cli_parser.o
 .debug_info    0x0000cfbc     0x2665 01_Common\02_CLI\02_CLI_CTRY\cli_control_func_ctry.o
 .debug_info    0x0000f621     0x275d 01_Common\02_CLI\02_CLI_CTRY\cli_debug_func_ctry.o
 .debug_info    0x00011d7e     0x1c7c 01_Common\02_CLI\02_CLI_CTRY\cli_main_menu_ctry.o
 .debug_info    0x000139fa     0x29d3 01_Common\02_CLI\02_CLI_CTRY\cli_monitor_func_ctry.o
 .debug_info    0x000163cd     0x1fc2 01_Common\04_DbgPrint\DbgPrintMsg_common.o
 .debug_info    0x0001838f      0xbe6 02_STM_Drivers\STM32F4xx_HAL_Driver\Src\gipsy_hal_adc.o
 .debug_info    0x00018f75      0xfa8 02_STM_Drivers\STM32F4xx_HAL_Driver\Src\gipsy_hal_can.o
 .debug_info    0x00019f1d      0xb87 02_STM_Drivers\STM32F4xx_HAL_Driver\Src\gipsy_hal_gpio.o
 .debug_info    0x0001aaa4     0x1148 02_STM_Drivers\STM32F4xx_HAL_Driver\Src\gipsy_hal_i2c.o
 .debug_info    0x0001bbec     0x10ce 02_STM_Drivers\STM32F4xx_HAL_Driver\Src\gipsy_hal_rcc.o
 .debug_info    0x0001ccba      0xe2c 02_STM_Drivers\STM32F4xx_HAL_Driver\Src\gipsy_hal_uart.o
 .debug_info    0x0001dae6     0x10cd 02_STM_Drivers\STM32F4xx_HAL_Driver\Src\stm32f4xx_hal_cortex.o
 .debug_info    0x0001ebb3     0x2161 02_STM_Drivers\STM32F4xx_HAL_Driver\Src\stm32f4xx_hal_tim.o
 .debug_info    0x00020d14     0x12e3 CTRY_Files\Temperature_Control.o
 .debug_info    0x00021ff7     0x11a5 CTRY_Files\actuator_ctrl.o
 .debug_info    0x0002319c     0x19a7 CTRY_Files\board_cfg_ctry.o
 .debug_info    0x00024b43     0x1582 CTRY_Files\can_protocol_ctry.o
 .debug_info    0x000260c5     0x1175 CTRY_Files\current_sensor.o
 .debug_info    0x0002723a      0xbc5 CTRY_Files\flash_integrity_test.o
 .debug_info    0x00027dff     0x11a3 CTRY_Files\gpio_control_ctry.o
 .debug_info    0x00028fa2     0x1251 CTRY_Files\id_conf_ctry.o
 .debug_info    0x0002a1f3     0x1418 CTRY_Files\mcp9804.o
 .debug_info    0x0002b60b     0x11a8 CTRY_Files\module_init_ctry.o
 .debug_info    0x0002c7b3     0x16da CTRY_Files\motor_driver.o
 .debug_info    0x0002de8d     0x13dc CTRY_Files\periodic_ctry.o
 .debug_info    0x0002f269      0xefa CTRY_Files\system_params_ctry.o
 .debug_info    0x00030163      0xe96 CTRY_Files\vibration_meas.o
 .debug_info    0x00030ff9     0x11ec CTRY_Files\voltage_meas_ctry.o
 .debug_info    0x000321e5     0x133d CTRY_Files\wdog.o
 .debug_info    0x00033522     0x101e Src\gipsy_ctry_it.o
 .debug_info    0x00034540     0x14d1 Src\main.o
 .debug_info    0x00035a11       0x79 Startup\startup_stm32f427xx.o

.debug_abbrev   0x00000000     0x52c5
 .debug_abbrev  0x00000000      0x317 01_Common\01_BSP\03_UART\uart.o
 .debug_abbrev  0x00000317      0x2cf 01_Common\02_CLI\00_CLI_ENGINE\cli_engine.o
 .debug_abbrev  0x000005e6      0x20d 01_Common\02_CLI\00_CLI_ENGINE\cli_general.o
 .debug_abbrev  0x000007f3      0x233 01_Common\02_CLI\00_CLI_ENGINE\cli_io.o
 .debug_abbrev  0x00000a26      0x2a0 01_Common\02_CLI\00_CLI_ENGINE\cli_msg.o
 .debug_abbrev  0x00000cc6      0x2ca 01_Common\02_CLI\00_CLI_ENGINE\cli_parser.o
 .debug_abbrev  0x00000f90      0x26f 01_Common\02_CLI\02_CLI_CTRY\cli_control_func_ctry.o
 .debug_abbrev  0x000011ff      0x2a7 01_Common\02_CLI\02_CLI_CTRY\cli_debug_func_ctry.o
 .debug_abbrev  0x000014a6      0x1b2 01_Common\02_CLI\02_CLI_CTRY\cli_main_menu_ctry.o
 .debug_abbrev  0x00001658      0x29d 01_Common\02_CLI\02_CLI_CTRY\cli_monitor_func_ctry.o
 .debug_abbrev  0x000018f5       0x6f 01_Common\04_DbgPrint\DbgPrintMsg_common.o
 .debug_abbrev  0x00001964      0x1dd 02_STM_Drivers\STM32F4xx_HAL_Driver\Src\gipsy_hal_adc.o
 .debug_abbrev  0x00001b41      0x2b3 02_STM_Drivers\STM32F4xx_HAL_Driver\Src\gipsy_hal_can.o
 .debug_abbrev  0x00001df4      0x1da 02_STM_Drivers\STM32F4xx_HAL_Driver\Src\gipsy_hal_gpio.o
 .debug_abbrev  0x00001fce      0x270 02_STM_Drivers\STM32F4xx_HAL_Driver\Src\gipsy_hal_i2c.o
 .debug_abbrev  0x0000223e      0x25a 02_STM_Drivers\STM32F4xx_HAL_Driver\Src\gipsy_hal_rcc.o
 .debug_abbrev  0x00002498      0x2d4 02_STM_Drivers\STM32F4xx_HAL_Driver\Src\gipsy_hal_uart.o
 .debug_abbrev  0x0000276c      0x2c0 02_STM_Drivers\STM32F4xx_HAL_Driver\Src\stm32f4xx_hal_cortex.o
 .debug_abbrev  0x00002a2c      0x2a2 02_STM_Drivers\STM32F4xx_HAL_Driver\Src\stm32f4xx_hal_tim.o
 .debug_abbrev  0x00002cce      0x209 CTRY_Files\Temperature_Control.o
 .debug_abbrev  0x00002ed7      0x1cd CTRY_Files\actuator_ctrl.o
 .debug_abbrev  0x000030a4      0x273 CTRY_Files\board_cfg_ctry.o
 .debug_abbrev  0x00003317      0x240 CTRY_Files\can_protocol_ctry.o
 .debug_abbrev  0x00003557      0x20c CTRY_Files\current_sensor.o
 .debug_abbrev  0x00003763      0x1ba CTRY_Files\flash_integrity_test.o
 .debug_abbrev  0x0000391d      0x20a CTRY_Files\gpio_control_ctry.o
 .debug_abbrev  0x00003b27      0x260 CTRY_Files\id_conf_ctry.o
 .debug_abbrev  0x00003d87      0x268 CTRY_Files\mcp9804.o
 .debug_abbrev  0x00003fef      0x1e3 CTRY_Files\module_init_ctry.o
 .debug_abbrev  0x000041d2      0x317 CTRY_Files\motor_driver.o
 .debug_abbrev  0x000044e9      0x1e8 CTRY_Files\periodic_ctry.o
 .debug_abbrev  0x000046d1      0x1e5 CTRY_Files\system_params_ctry.o
 .debug_abbrev  0x000048b6      0x257 CTRY_Files\vibration_meas.o
 .debug_abbrev  0x00004b0d      0x1fd CTRY_Files\voltage_meas_ctry.o
 .debug_abbrev  0x00004d0a      0x201 CTRY_Files\wdog.o
 .debug_abbrev  0x00004f0b      0x1df Src\gipsy_ctry_it.o
 .debug_abbrev  0x000050ea      0x1c9 Src\main.o
 .debug_abbrev  0x000052b3       0x12 Startup\startup_stm32f427xx.o

.debug_aranges  0x00000000      0xc90
 .debug_aranges
                0x00000000       0x58 01_Common\01_BSP\03_UART\uart.o
 .debug_aranges
                0x00000058       0x88 01_Common\02_CLI\00_CLI_ENGINE\cli_engine.o
 .debug_aranges
                0x000000e0       0x30 01_Common\02_CLI\00_CLI_ENGINE\cli_general.o
 .debug_aranges
                0x00000110       0x30 01_Common\02_CLI\00_CLI_ENGINE\cli_io.o
 .debug_aranges
                0x00000140       0x90 01_Common\02_CLI\00_CLI_ENGINE\cli_msg.o
 .debug_aranges
                0x000001d0       0x70 01_Common\02_CLI\00_CLI_ENGINE\cli_parser.o
 .debug_aranges
                0x00000240       0x40 01_Common\02_CLI\02_CLI_CTRY\cli_control_func_ctry.o
 .debug_aranges
                0x00000280       0x50 01_Common\02_CLI\02_CLI_CTRY\cli_debug_func_ctry.o
 .debug_aranges
                0x000002d0       0x18 01_Common\02_CLI\02_CLI_CTRY\cli_main_menu_ctry.o
 .debug_aranges
                0x000002e8       0x58 01_Common\02_CLI\02_CLI_CTRY\cli_monitor_func_ctry.o
 .debug_aranges
                0x00000340       0x18 01_Common\04_DbgPrint\DbgPrintMsg_common.o
 .debug_aranges
                0x00000358       0x28 02_STM_Drivers\STM32F4xx_HAL_Driver\Src\gipsy_hal_adc.o
 .debug_aranges
                0x00000380       0x58 02_STM_Drivers\STM32F4xx_HAL_Driver\Src\gipsy_hal_can.o
 .debug_aranges
                0x000003d8       0x38 02_STM_Drivers\STM32F4xx_HAL_Driver\Src\gipsy_hal_gpio.o
 .debug_aranges
                0x00000410       0x70 02_STM_Drivers\STM32F4xx_HAL_Driver\Src\gipsy_hal_i2c.o
 .debug_aranges
                0x00000480       0x58 02_STM_Drivers\STM32F4xx_HAL_Driver\Src\gipsy_hal_rcc.o
 .debug_aranges
                0x000004d8       0x50 02_STM_Drivers\STM32F4xx_HAL_Driver\Src\gipsy_hal_uart.o
 .debug_aranges
                0x00000528       0x78 02_STM_Drivers\STM32F4xx_HAL_Driver\Src\stm32f4xx_hal_cortex.o
 .debug_aranges
                0x000005a0      0x298 02_STM_Drivers\STM32F4xx_HAL_Driver\Src\stm32f4xx_hal_tim.o
 .debug_aranges
                0x00000838       0x28 CTRY_Files\Temperature_Control.o
 .debug_aranges
                0x00000860       0x20 CTRY_Files\actuator_ctrl.o
 .debug_aranges
                0x00000880       0x70 CTRY_Files\board_cfg_ctry.o
 .debug_aranges
                0x000008f0       0x28 CTRY_Files\can_protocol_ctry.o
 .debug_aranges
                0x00000918       0x28 CTRY_Files\current_sensor.o
 .debug_aranges
                0x00000940       0x20 CTRY_Files\flash_integrity_test.o
 .debug_aranges
                0x00000960       0x40 CTRY_Files\gpio_control_ctry.o
 .debug_aranges
                0x000009a0       0x40 CTRY_Files\id_conf_ctry.o
 .debug_aranges
                0x000009e0       0x48 CTRY_Files\mcp9804.o
 .debug_aranges
                0x00000a28       0x28 CTRY_Files\module_init_ctry.o
 .debug_aranges
                0x00000a50       0x80 CTRY_Files\motor_driver.o
 .debug_aranges
                0x00000ad0       0x20 CTRY_Files\periodic_ctry.o
 .debug_aranges
                0x00000af0       0x70 CTRY_Files\system_params_ctry.o
 .debug_aranges
                0x00000b60       0x58 CTRY_Files\vibration_meas.o
 .debug_aranges
                0x00000bb8       0x20 CTRY_Files\voltage_meas_ctry.o
 .debug_aranges
                0x00000bd8       0x30 CTRY_Files\wdog.o
 .debug_aranges
                0x00000c08       0x30 Src\gipsy_ctry_it.o
 .debug_aranges
                0x00000c38       0x30 Src\main.o
 .debug_aranges
                0x00000c68       0x28 Startup\startup_stm32f427xx.o

.debug_ranges   0x00000000      0xaa0
 .debug_ranges  0x00000000       0x48 01_Common\01_BSP\03_UART\uart.o
 .debug_ranges  0x00000048       0x78 01_Common\02_CLI\00_CLI_ENGINE\cli_engine.o
 .debug_ranges  0x000000c0       0x20 01_Common\02_CLI\00_CLI_ENGINE\cli_general.o
 .debug_ranges  0x000000e0       0x20 01_Common\02_CLI\00_CLI_ENGINE\cli_io.o
 .debug_ranges  0x00000100       0x80 01_Common\02_CLI\00_CLI_ENGINE\cli_msg.o
 .debug_ranges  0x00000180       0x90 01_Common\02_CLI\00_CLI_ENGINE\cli_parser.o
 .debug_ranges  0x00000210       0x30 01_Common\02_CLI\02_CLI_CTRY\cli_control_func_ctry.o
 .debug_ranges  0x00000240       0x40 01_Common\02_CLI\02_CLI_CTRY\cli_debug_func_ctry.o
 .debug_ranges  0x00000280       0x48 01_Common\02_CLI\02_CLI_CTRY\cli_monitor_func_ctry.o
 .debug_ranges  0x000002c8       0x18 02_STM_Drivers\STM32F4xx_HAL_Driver\Src\gipsy_hal_adc.o
 .debug_ranges  0x000002e0       0x60 02_STM_Drivers\STM32F4xx_HAL_Driver\Src\gipsy_hal_can.o
 .debug_ranges  0x00000340       0x28 02_STM_Drivers\STM32F4xx_HAL_Driver\Src\gipsy_hal_gpio.o
 .debug_ranges  0x00000368       0x90 02_STM_Drivers\STM32F4xx_HAL_Driver\Src\gipsy_hal_i2c.o
 .debug_ranges  0x000003f8       0x48 02_STM_Drivers\STM32F4xx_HAL_Driver\Src\gipsy_hal_rcc.o
 .debug_ranges  0x00000440       0x40 02_STM_Drivers\STM32F4xx_HAL_Driver\Src\gipsy_hal_uart.o
 .debug_ranges  0x00000480       0x68 02_STM_Drivers\STM32F4xx_HAL_Driver\Src\stm32f4xx_hal_cortex.o
 .debug_ranges  0x000004e8      0x288 02_STM_Drivers\STM32F4xx_HAL_Driver\Src\stm32f4xx_hal_tim.o
 .debug_ranges  0x00000770       0x18 CTRY_Files\Temperature_Control.o
 .debug_ranges  0x00000788       0x10 CTRY_Files\actuator_ctrl.o
 .debug_ranges  0x00000798       0x60 CTRY_Files\board_cfg_ctry.o
 .debug_ranges  0x000007f8       0x18 CTRY_Files\can_protocol_ctry.o
 .debug_ranges  0x00000810       0x18 CTRY_Files\current_sensor.o
 .debug_ranges  0x00000828       0x10 CTRY_Files\flash_integrity_test.o
 .debug_ranges  0x00000838       0x30 CTRY_Files\gpio_control_ctry.o
 .debug_ranges  0x00000868       0x30 CTRY_Files\id_conf_ctry.o
 .debug_ranges  0x00000898       0x38 CTRY_Files\mcp9804.o
 .debug_ranges  0x000008d0       0x18 CTRY_Files\module_init_ctry.o
 .debug_ranges  0x000008e8       0x70 CTRY_Files\motor_driver.o
 .debug_ranges  0x00000958       0x10 CTRY_Files\periodic_ctry.o
 .debug_ranges  0x00000968       0x60 CTRY_Files\system_params_ctry.o
 .debug_ranges  0x000009c8       0x48 CTRY_Files\vibration_meas.o
 .debug_ranges  0x00000a10       0x10 CTRY_Files\voltage_meas_ctry.o
 .debug_ranges  0x00000a20       0x20 CTRY_Files\wdog.o
 .debug_ranges  0x00000a40       0x20 Src\gipsy_ctry_it.o
 .debug_ranges  0x00000a60       0x20 Src\main.o
 .debug_ranges  0x00000a80       0x20 Startup\startup_stm32f427xx.o

.debug_macro    0x00000000    0x1e4f3
 .debug_macro   0x00000000      0x366 01_Common\01_BSP\03_UART\uart.o
 .debug_macro   0x00000366      0x8c2 01_Common\01_BSP\03_UART\uart.o
 .debug_macro   0x00000c28       0x2e 01_Common\01_BSP\03_UART\uart.o
 .debug_macro   0x00000c56       0x22 01_Common\01_BSP\03_UART\uart.o
 .debug_macro   0x00000c78       0x87 01_Common\01_BSP\03_UART\uart.o
 .debug_macro   0x00000cff       0x51 01_Common\01_BSP\03_UART\uart.o
 .debug_macro   0x00000d50       0xef 01_Common\01_BSP\03_UART\uart.o
 .debug_macro   0x00000e3f       0x6a 01_Common\01_BSP\03_UART\uart.o
 .debug_macro   0x00000ea9      0x1df 01_Common\01_BSP\03_UART\uart.o
 .debug_macro   0x00001088       0x35 01_Common\01_BSP\03_UART\uart.o
 .debug_macro   0x000010bd       0x50 01_Common\01_BSP\03_UART\uart.o
 .debug_macro   0x0000110d      0xe66 01_Common\01_BSP\03_UART\uart.o
 .debug_macro   0x00001f73    0x126d6 01_Common\01_BSP\03_UART\uart.o
 .debug_macro   0x00014649       0x46 01_Common\01_BSP\03_UART\uart.o
 .debug_macro   0x0001468f       0x3c 01_Common\01_BSP\03_UART\uart.o
 .debug_macro   0x000146cb       0x9c 01_Common\01_BSP\03_UART\uart.o
 .debug_macro   0x00014767       0x16 01_Common\01_BSP\03_UART\uart.o
 .debug_macro   0x0001477d       0x97 01_Common\01_BSP\03_UART\uart.o
 .debug_macro   0x00014814      0x30d 01_Common\01_BSP\03_UART\uart.o
 .debug_macro   0x00014b21       0xfd 01_Common\01_BSP\03_UART\uart.o
 .debug_macro   0x00014c1e       0x10 01_Common\01_BSP\03_UART\uart.o
 .debug_macro   0x00014c2e       0x52 01_Common\01_BSP\03_UART\uart.o
 .debug_macro   0x00014c80       0x1f 01_Common\01_BSP\03_UART\uart.o
 .debug_macro   0x00014c9f       0x43 01_Common\01_BSP\03_UART\uart.o
 .debug_macro   0x00014ce2       0x20 01_Common\01_BSP\03_UART\uart.o
 .debug_macro   0x00014d02      0x1a3 01_Common\01_BSP\03_UART\uart.o
 .debug_macro   0x00014ea5       0x10 01_Common\01_BSP\03_UART\uart.o
 .debug_macro   0x00014eb5       0x1c 01_Common\01_BSP\03_UART\uart.o
 .debug_macro   0x00014ed1       0x52 01_Common\01_BSP\03_UART\uart.o
 .debug_macro   0x00014f23       0x40 01_Common\01_BSP\03_UART\uart.o
 .debug_macro   0x00014f63       0x10 01_Common\01_BSP\03_UART\uart.o
 .debug_macro   0x00014f73       0x40 01_Common\01_BSP\03_UART\uart.o
 .debug_macro   0x00014fb3       0xd7 01_Common\01_BSP\03_UART\uart.o
 .debug_macro   0x0001508a       0x16 01_Common\01_BSP\03_UART\uart.o
 .debug_macro   0x000150a0      0x161 01_Common\01_BSP\03_UART\uart.o
 .debug_macro   0x00015201       0x8f 01_Common\01_BSP\03_UART\uart.o
 .debug_macro   0x00015290       0x16 01_Common\01_BSP\03_UART\uart.o
 .debug_macro   0x000152a6       0x35 01_Common\01_BSP\03_UART\uart.o
 .debug_macro   0x000152db       0x16 01_Common\01_BSP\03_UART\uart.o
 .debug_macro   0x000152f1       0x29 01_Common\01_BSP\03_UART\uart.o
 .debug_macro   0x0001531a       0x4c 01_Common\01_BSP\03_UART\uart.o
 .debug_macro   0x00015366       0x16 01_Common\01_BSP\03_UART\uart.o
 .debug_macro   0x0001537c       0x20 01_Common\01_BSP\03_UART\uart.o
 .debug_macro   0x0001539c       0x16 01_Common\01_BSP\03_UART\uart.o
 .debug_macro   0x000153b2       0x10 01_Common\01_BSP\03_UART\uart.o
 .debug_macro   0x000153c2       0x41 01_Common\01_BSP\03_UART\uart.o
 .debug_macro   0x00015403      0x1e1 01_Common\01_BSP\03_UART\uart.o
 .debug_macro   0x000155e4      0x174 01_Common\01_BSP\03_UART\uart.o
 .debug_macro   0x00015758       0xed 01_Common\01_BSP\03_UART\uart.o
 .debug_macro   0x00015845      0x111 01_Common\01_BSP\03_UART\uart.o
 .debug_macro   0x00015956       0xd3 01_Common\01_BSP\03_UART\uart.o
 .debug_macro   0x00015a29       0x52 01_Common\01_BSP\03_UART\uart.o
 .debug_macro   0x00015a7b       0x10 01_Common\01_BSP\03_UART\uart.o
 .debug_macro   0x00015a8b       0x1c 01_Common\01_BSP\03_UART\uart.o
 .debug_macro   0x00015aa7      0x154 01_Common\01_BSP\03_UART\uart.o
 .debug_macro   0x00015bfb       0x16 01_Common\01_BSP\03_UART\uart.o
 .debug_macro   0x00015c11      0x80d 01_Common\01_BSP\03_UART\uart.o
 .debug_macro   0x0001641e      0x25c 01_Common\01_BSP\03_UART\uart.o
 .debug_macro   0x0001667a      0x324 01_Common\02_CLI\00_CLI_ENGINE\cli_engine.o
 .debug_macro   0x0001699e       0x40 01_Common\02_CLI\00_CLI_ENGINE\cli_engine.o
 .debug_macro   0x000169de       0x8d 01_Common\02_CLI\00_CLI_ENGINE\cli_engine.o
 .debug_macro   0x00016a6b      0x10e 01_Common\02_CLI\00_CLI_ENGINE\cli_engine.o
 .debug_macro   0x00016b79       0x8d 01_Common\02_CLI\00_CLI_ENGINE\cli_engine.o
 .debug_macro   0x00016c06       0x57 01_Common\02_CLI\00_CLI_ENGINE\cli_engine.o
 .debug_macro   0x00016c5d       0x1c 01_Common\02_CLI\00_CLI_ENGINE\cli_engine.o
 .debug_macro   0x00016c79       0x16 01_Common\02_CLI\00_CLI_ENGINE\cli_engine.o
 .debug_macro   0x00016c8f       0xd9 01_Common\02_CLI\00_CLI_ENGINE\cli_engine.o
 .debug_macro   0x00016d68      0x30d 01_Common\02_CLI\00_CLI_ENGINE\cli_general.o
 .debug_macro   0x00017075      0x375 01_Common\02_CLI\00_CLI_ENGINE\cli_io.o
 .debug_macro   0x000173ea      0x313 01_Common\02_CLI\00_CLI_ENGINE\cli_msg.o
 .debug_macro   0x000176fd      0x30d 01_Common\02_CLI\00_CLI_ENGINE\cli_parser.o
 .debug_macro   0x00017a0a      0x367 01_Common\02_CLI\02_CLI_CTRY\cli_control_func_ctry.o
 .debug_macro   0x00017d71      0x14e 01_Common\02_CLI\02_CLI_CTRY\cli_control_func_ctry.o
 .debug_macro   0x00017ebf      0x25c 01_Common\02_CLI\02_CLI_CTRY\cli_control_func_ctry.o
 .debug_macro   0x0001811b       0x1c 01_Common\02_CLI\02_CLI_CTRY\cli_control_func_ctry.o
 .debug_macro   0x00018137       0x16 01_Common\02_CLI\02_CLI_CTRY\cli_control_func_ctry.o
 .debug_macro   0x0001814d      0x377 01_Common\02_CLI\02_CLI_CTRY\cli_debug_func_ctry.o
 .debug_macro   0x000184c4      0x30d 01_Common\02_CLI\02_CLI_CTRY\cli_main_menu_ctry.o
 .debug_macro   0x000187d1      0x3d3 01_Common\02_CLI\02_CLI_CTRY\cli_monitor_func_ctry.o
 .debug_macro   0x00018ba4       0x34 01_Common\02_CLI\02_CLI_CTRY\cli_monitor_func_ctry.o
 .debug_macro   0x00018bd8       0x10 01_Common\02_CLI\02_CLI_CTRY\cli_monitor_func_ctry.o
 .debug_macro   0x00018be8       0x10 01_Common\02_CLI\02_CLI_CTRY\cli_monitor_func_ctry.o
 .debug_macro   0x00018bf8       0x16 01_Common\02_CLI\02_CLI_CTRY\cli_monitor_func_ctry.o
 .debug_macro   0x00018c0e       0x16 01_Common\02_CLI\02_CLI_CTRY\cli_monitor_func_ctry.o
 .debug_macro   0x00018c24       0x10 01_Common\02_CLI\02_CLI_CTRY\cli_monitor_func_ctry.o
 .debug_macro   0x00018c34       0x22 01_Common\02_CLI\02_CLI_CTRY\cli_monitor_func_ctry.o
 .debug_macro   0x00018c56       0x1b 01_Common\04_DbgPrint\DbgPrintMsg_common.o
 .debug_macro   0x00018c71      0x270 02_STM_Drivers\STM32F4xx_HAL_Driver\Src\gipsy_hal_adc.o
 .debug_macro   0x00018ee1       0x2e 02_STM_Drivers\STM32F4xx_HAL_Driver\Src\gipsy_hal_adc.o
 .debug_macro   0x00018f0f      0x4ed 02_STM_Drivers\STM32F4xx_HAL_Driver\Src\gipsy_hal_can.o
 .debug_macro   0x000193fc      0x25e 02_STM_Drivers\STM32F4xx_HAL_Driver\Src\gipsy_hal_gpio.o
 .debug_macro   0x0001965a      0x373 02_STM_Drivers\STM32F4xx_HAL_Driver\Src\gipsy_hal_i2c.o
 .debug_macro   0x000199cd      0x421 02_STM_Drivers\STM32F4xx_HAL_Driver\Src\gipsy_hal_rcc.o
 .debug_macro   0x00019dee      0x23a 02_STM_Drivers\STM32F4xx_HAL_Driver\Src\gipsy_hal_rcc.o
 .debug_macro   0x0001a028      0x36e 02_STM_Drivers\STM32F4xx_HAL_Driver\Src\gipsy_hal_uart.o
 .debug_macro   0x0001a396      0x222 02_STM_Drivers\STM32F4xx_HAL_Driver\Src\stm32f4xx_hal_cortex.o
 .debug_macro   0x0001a5b8      0x234 02_STM_Drivers\STM32F4xx_HAL_Driver\Src\stm32f4xx_hal_cortex.o
 .debug_macro   0x0001a7ec      0x246 02_STM_Drivers\STM32F4xx_HAL_Driver\Src\stm32f4xx_hal_tim.o
 .debug_macro   0x0001aa32      0x807 02_STM_Drivers\STM32F4xx_HAL_Driver\Src\stm32f4xx_hal_tim.o
 .debug_macro   0x0001b239      0x28a CTRY_Files\Temperature_Control.o
 .debug_macro   0x0001b4c3      0x27f CTRY_Files\actuator_ctrl.o
 .debug_macro   0x0001b742      0x392 CTRY_Files\board_cfg_ctry.o
 .debug_macro   0x0001bad4       0x34 CTRY_Files\board_cfg_ctry.o
 .debug_macro   0x0001bb08      0x37c CTRY_Files\can_protocol_ctry.o
 .debug_macro   0x0001be84       0x16 CTRY_Files\can_protocol_ctry.o
 .debug_macro   0x0001be9a      0x28d CTRY_Files\current_sensor.o
 .debug_macro   0x0001c127       0x10 CTRY_Files\current_sensor.o
 .debug_macro   0x0001c137      0x235 CTRY_Files\flash_integrity_test.o
 .debug_macro   0x0001c36c      0x25f CTRY_Files\gpio_control_ctry.o
 .debug_macro   0x0001c5cb      0x2b3 CTRY_Files\id_conf_ctry.o
 .debug_macro   0x0001c87e      0x295 CTRY_Files\mcp9804.o
 .debug_macro   0x0001cb13      0x285 CTRY_Files\module_init_ctry.o
 .debug_macro   0x0001cd98      0x31d CTRY_Files\motor_driver.o
 .debug_macro   0x0001d0b5      0x302 CTRY_Files\periodic_ctry.o
 .debug_macro   0x0001d3b7      0x22f CTRY_Files\system_params_ctry.o
 .debug_macro   0x0001d5e6      0x4d5 CTRY_Files\vibration_meas.o
 .debug_macro   0x0001dabb      0x2a6 CTRY_Files\voltage_meas_ctry.o
 .debug_macro   0x0001dd61      0x29e CTRY_Files\wdog.o
 .debug_macro   0x0001dfff       0x10 CTRY_Files\wdog.o
 .debug_macro   0x0001e00f      0x255 Src\gipsy_ctry_it.o
 .debug_macro   0x0001e264      0x28f Src\main.o

.debug_line     0x00000000    0x119d5
 .debug_line    0x00000000      0x88f 01_Common\01_BSP\03_UART\uart.o
 .debug_line    0x0000088f      0xae0 01_Common\02_CLI\00_CLI_ENGINE\cli_engine.o
 .debug_line    0x0000136f      0x73f 01_Common\02_CLI\00_CLI_ENGINE\cli_general.o
 .debug_line    0x00001aae      0x807 01_Common\02_CLI\00_CLI_ENGINE\cli_io.o
 .debug_line    0x000022b5      0x8c5 01_Common\02_CLI\00_CLI_ENGINE\cli_msg.o
 .debug_line    0x00002b7a      0xa4f 01_Common\02_CLI\00_CLI_ENGINE\cli_parser.o
 .debug_line    0x000035c9      0x86a 01_Common\02_CLI\02_CLI_CTRY\cli_control_func_ctry.o
 .debug_line    0x00003e33      0x8a3 01_Common\02_CLI\02_CLI_CTRY\cli_debug_func_ctry.o
 .debug_line    0x000046d6      0x6df 01_Common\02_CLI\02_CLI_CTRY\cli_main_menu_ctry.o
 .debug_line    0x00004db5      0xaaf 01_Common\02_CLI\02_CLI_CTRY\cli_monitor_func_ctry.o
 .debug_line    0x00005864       0x69 01_Common\04_DbgPrint\DbgPrintMsg_common.o
 .debug_line    0x000058cd      0x5a8 02_STM_Drivers\STM32F4xx_HAL_Driver\Src\gipsy_hal_adc.o
 .debug_line    0x00005e75      0x71c 02_STM_Drivers\STM32F4xx_HAL_Driver\Src\gipsy_hal_can.o
 .debug_line    0x00006591      0x7bf 02_STM_Drivers\STM32F4xx_HAL_Driver\Src\gipsy_hal_gpio.o
 .debug_line    0x00006d50      0x957 02_STM_Drivers\STM32F4xx_HAL_Driver\Src\gipsy_hal_i2c.o
 .debug_line    0x000076a7      0x694 02_STM_Drivers\STM32F4xx_HAL_Driver\Src\gipsy_hal_rcc.o
 .debug_line    0x00007d3b      0x7b1 02_STM_Drivers\STM32F4xx_HAL_Driver\Src\gipsy_hal_uart.o
 .debug_line    0x000084ec      0x680 02_STM_Drivers\STM32F4xx_HAL_Driver\Src\stm32f4xx_hal_cortex.o
 .debug_line    0x00008b6c     0x14f7 02_STM_Drivers\STM32F4xx_HAL_Driver\Src\stm32f4xx_hal_tim.o
 .debug_line    0x0000a063      0x63a CTRY_Files\Temperature_Control.o
 .debug_line    0x0000a69d      0x62e CTRY_Files\actuator_ctrl.o
 .debug_line    0x0000accb      0x933 CTRY_Files\board_cfg_ctry.o
 .debug_line    0x0000b5fe      0x7e8 CTRY_Files\can_protocol_ctry.o
 .debug_line    0x0000bde6      0x63a CTRY_Files\current_sensor.o
 .debug_line    0x0000c420      0x59d CTRY_Files\flash_integrity_test.o
 .debug_line    0x0000c9bd      0x63a CTRY_Files\gpio_control_ctry.o
 .debug_line    0x0000cff7      0x6da CTRY_Files\id_conf_ctry.o
 .debug_line    0x0000d6d1      0x6c9 CTRY_Files\mcp9804.o
 .debug_line    0x0000dd9a      0x63d CTRY_Files\module_init_ctry.o
 .debug_line    0x0000e3d7      0x818 CTRY_Files\motor_driver.o
 .debug_line    0x0000ebef      0x6cb CTRY_Files\periodic_ctry.o
 .debug_line    0x0000f2ba      0x735 CTRY_Files\system_params_ctry.o
 .debug_line    0x0000f9ef      0x690 CTRY_Files\vibration_meas.o
 .debug_line    0x0001007f      0x633 CTRY_Files\voltage_meas_ctry.o
 .debug_line    0x000106b2      0x65a CTRY_Files\wdog.o
 .debug_line    0x00010d0c      0x608 Src\gipsy_ctry_it.o
 .debug_line    0x00011314      0x642 Src\main.o
 .debug_line    0x00011956       0x7f Startup\startup_stm32f427xx.o

.debug_str      0x00000000    0x89515
 .debug_str     0x00000000    0x7ca30 01_Common\01_BSP\03_UART\uart.o
                              0x7cde2 (size before relaxing)
 .debug_str     0x0007ca30      0xc0d 01_Common\02_CLI\00_CLI_ENGINE\cli_engine.o
                              0x767d8 (size before relaxing)
 .debug_str     0x0007d63d      0x113 01_Common\02_CLI\00_CLI_ENGINE\cli_general.o
                              0x76225 (size before relaxing)
 .debug_str     0x0007d750      0x160 01_Common\02_CLI\00_CLI_ENGINE\cli_io.o
                              0x7c707 (size before relaxing)
 .debug_str     0x0007d8b0      0x34e 01_Common\02_CLI\00_CLI_ENGINE\cli_msg.o
                              0x76a4f (size before relaxing)
 .debug_str     0x0007dbfe      0x3a9 01_Common\02_CLI\00_CLI_ENGINE\cli_parser.o
                              0x76509 (size before relaxing)
 .debug_str     0x0007dfa7      0x3e2 01_Common\02_CLI\02_CLI_CTRY\cli_control_func_ctry.o
                              0x7cdcf (size before relaxing)
 .debug_str     0x0007e389      0x23d 01_Common\02_CLI\02_CLI_CTRY\cli_debug_func_ctry.o
                              0x7ce1b (size before relaxing)
 .debug_str     0x0007e5c6      0x234 01_Common\02_CLI\02_CLI_CTRY\cli_main_menu_ctry.o
                              0x76142 (size before relaxing)
 .debug_str     0x0007e7fa      0x60e 01_Common\02_CLI\02_CLI_CTRY\cli_monitor_func_ctry.o
                              0x7d343 (size before relaxing)
 .debug_str     0x0007ee08       0x31 01_Common\04_DbgPrint\DbgPrintMsg_common.o
                               0x37ad (size before relaxing)
 .debug_str     0x0007ee39      0x553 02_STM_Drivers\STM32F4xx_HAL_Driver\Src\gipsy_hal_adc.o
                              0x72a59 (size before relaxing)
 .debug_str     0x0007f38c     0x16be 02_STM_Drivers\STM32F4xx_HAL_Driver\Src\gipsy_hal_can.o
                              0x73c3a (size before relaxing)
 .debug_str     0x00080a4a      0x660 02_STM_Drivers\STM32F4xx_HAL_Driver\Src\gipsy_hal_gpio.o
                              0x7329a (size before relaxing)
 .debug_str     0x000810aa     0x10e2 02_STM_Drivers\STM32F4xx_HAL_Driver\Src\gipsy_hal_i2c.o
                              0x7391b (size before relaxing)
 .debug_str     0x0008218c     0x2af6 02_STM_Drivers\STM32F4xx_HAL_Driver\Src\gipsy_hal_rcc.o
                              0x7509e (size before relaxing)
 .debug_str     0x00084c82      0x564 02_STM_Drivers\STM32F4xx_HAL_Driver\Src\gipsy_hal_uart.o
                              0x743c5 (size before relaxing)
 .debug_str     0x000851e6      0x1b9 02_STM_Drivers\STM32F4xx_HAL_Driver\Src\stm32f4xx_hal_cortex.o
                              0x74186 (size before relaxing)
 .debug_str     0x0008539f      0xe27 02_STM_Drivers\STM32F4xx_HAL_Driver\Src\stm32f4xx_hal_tim.o
                              0x78836 (size before relaxing)
 .debug_str     0x000861c6       0xe0 CTRY_Files\Temperature_Control.o
                              0x79324 (size before relaxing)
 .debug_str     0x000862a6       0x97 CTRY_Files\actuator_ctrl.o
                              0x79191 (size before relaxing)
 .debug_str     0x0008633d      0x954 CTRY_Files\board_cfg_ctry.o
                              0x7cc69 (size before relaxing)
 .debug_str     0x00086c91      0x4b1 CTRY_Files\can_protocol_ctry.o
                              0x79a82 (size before relaxing)
 .debug_str     0x00087142      0x1c6 CTRY_Files\current_sensor.o
                              0x791fa (size before relaxing)
 .debug_str     0x00087308      0x15a CTRY_Files\flash_integrity_test.o
                              0x72778 (size before relaxing)
 .debug_str     0x00087462       0xa0 CTRY_Files\gpio_control_ctry.o
                              0x79058 (size before relaxing)
 .debug_str     0x00087502      0x285 CTRY_Files\id_conf_ctry.o
                              0x79197 (size before relaxing)
 .debug_str     0x00087787      0x2e3 CTRY_Files\mcp9804.o
                              0x79384 (size before relaxing)
 .debug_str     0x00087a6a       0x49 CTRY_Files\module_init_ctry.o
                              0x7914c (size before relaxing)
 .debug_str     0x00087ab3      0x3cb CTRY_Files\motor_driver.o
                              0x794e2 (size before relaxing)
 .debug_str     0x00087e7e      0x196 CTRY_Files\periodic_ctry.o
                              0x79555 (size before relaxing)
 .debug_str     0x00088014      0x33d CTRY_Files\system_params_ctry.o
                              0x728e8 (size before relaxing)
 .debug_str     0x00088351      0xcd4 CTRY_Files\vibration_meas.o
                              0x73566 (size before relaxing)
 .debug_str     0x00089025      0x20a CTRY_Files\voltage_meas_ctry.o
                              0x7930a (size before relaxing)
 .debug_str     0x0008922f      0x247 CTRY_Files\wdog.o
                              0x7925c (size before relaxing)
 .debug_str     0x00089476       0x5e Src\gipsy_ctry_it.o
                              0x78f05 (size before relaxing)
 .debug_str     0x000894d4       0x41 Src\main.o
                              0x7928b (size before relaxing)

.comment        0x00000000       0x7c
 .comment       0x00000000       0x7c 01_Common\01_BSP\03_UART\uart.o
                                 0x7d (size before relaxing)
 .comment       0x0000007c       0x7d 01_Common\02_CLI\00_CLI_ENGINE\cli_engine.o
 .comment       0x0000007c       0x7d 01_Common\02_CLI\00_CLI_ENGINE\cli_general.o
 .comment       0x0000007c       0x7d 01_Common\02_CLI\00_CLI_ENGINE\cli_io.o
 .comment       0x0000007c       0x7d 01_Common\02_CLI\00_CLI_ENGINE\cli_msg.o
 .comment       0x0000007c       0x7d 01_Common\02_CLI\00_CLI_ENGINE\cli_parser.o
 .comment       0x0000007c       0x7d 01_Common\02_CLI\02_CLI_CTRY\cli_control_func_ctry.o
 .comment       0x0000007c       0x7d 01_Common\02_CLI\02_CLI_CTRY\cli_debug_func_ctry.o
 .comment       0x0000007c       0x7d 01_Common\02_CLI\02_CLI_CTRY\cli_main_menu_ctry.o
 .comment       0x0000007c       0x7d 01_Common\02_CLI\02_CLI_CTRY\cli_monitor_func_ctry.o
 .comment       0x0000007c       0x7d 01_Common\04_DbgPrint\DbgPrintMsg_common.o
 .comment       0x0000007c       0x7d 02_STM_Drivers\STM32F4xx_HAL_Driver\Src\gipsy_hal_adc.o
 .comment       0x0000007c       0x7d 02_STM_Drivers\STM32F4xx_HAL_Driver\Src\gipsy_hal_can.o
 .comment       0x0000007c       0x7d 02_STM_Drivers\STM32F4xx_HAL_Driver\Src\gipsy_hal_gpio.o
 .comment       0x0000007c       0x7d 02_STM_Drivers\STM32F4xx_HAL_Driver\Src\gipsy_hal_i2c.o
 .comment       0x0000007c       0x7d 02_STM_Drivers\STM32F4xx_HAL_Driver\Src\gipsy_hal_rcc.o
 .comment       0x0000007c       0x7d 02_STM_Drivers\STM32F4xx_HAL_Driver\Src\gipsy_hal_uart.o
 .comment       0x0000007c       0x7d 02_STM_Drivers\STM32F4xx_HAL_Driver\Src\stm32f4xx_hal_cortex.o
 .comment       0x0000007c       0x7d 02_STM_Drivers\STM32F4xx_HAL_Driver\Src\stm32f4xx_hal_tim.o
 .comment       0x0000007c       0x7d CTRY_Files\Temperature_Control.o
 .comment       0x0000007c       0x7d CTRY_Files\actuator_ctrl.o
 .comment       0x0000007c       0x7d CTRY_Files\board_cfg_ctry.o
 .comment       0x0000007c       0x7d CTRY_Files\can_protocol_ctry.o
 .comment       0x0000007c       0x7d CTRY_Files\current_sensor.o
 .comment       0x0000007c       0x7d CTRY_Files\flash_integrity_test.o
 .comment       0x0000007c       0x7d CTRY_Files\gpio_control_ctry.o
 .comment       0x0000007c       0x7d CTRY_Files\id_conf_ctry.o
 .comment       0x0000007c       0x7d CTRY_Files\mcp9804.o
 .comment       0x0000007c       0x7d CTRY_Files\module_init_ctry.o
 .comment       0x0000007c       0x7d CTRY_Files\motor_driver.o
 .comment       0x0000007c       0x7d CTRY_Files\periodic_ctry.o
 .comment       0x0000007c       0x7d CTRY_Files\system_params_ctry.o
 .comment       0x0000007c       0x7d CTRY_Files\vibration_meas.o
 .comment       0x0000007c       0x7d CTRY_Files\voltage_meas_ctry.o
 .comment       0x0000007c       0x7d CTRY_Files\wdog.o
 .comment       0x0000007c       0x7d Src\gipsy_ctry_it.o
 .comment       0x0000007c       0x7d Src\main.o

.debug_frame    0x00000000     0x38f0
 .debug_frame   0x00000000      0x148 01_Common\01_BSP\03_UART\uart.o
 .debug_frame   0x00000148      0x228 01_Common\02_CLI\00_CLI_ENGINE\cli_engine.o
 .debug_frame   0x00000370       0x80 01_Common\02_CLI\00_CLI_ENGINE\cli_general.o
 .debug_frame   0x000003f0       0x80 01_Common\02_CLI\00_CLI_ENGINE\cli_io.o
 .debug_frame   0x00000470      0x258 01_Common\02_CLI\00_CLI_ENGINE\cli_msg.o
 .debug_frame   0x000006c8      0x1b0 01_Common\02_CLI\00_CLI_ENGINE\cli_parser.o
 .debug_frame   0x00000878       0xc8 01_Common\02_CLI\02_CLI_CTRY\cli_control_func_ctry.o
 .debug_frame   0x00000940      0x10c 01_Common\02_CLI\02_CLI_CTRY\cli_debug_func_ctry.o
 .debug_frame   0x00000a4c      0x140 01_Common\02_CLI\02_CLI_CTRY\cli_monitor_func_ctry.o
 .debug_frame   0x00000b8c       0x5c 02_STM_Drivers\STM32F4xx_HAL_Driver\Src\gipsy_hal_adc.o
 .debug_frame   0x00000be8      0x138 02_STM_Drivers\STM32F4xx_HAL_Driver\Src\gipsy_hal_can.o
 .debug_frame   0x00000d20       0xb0 02_STM_Drivers\STM32F4xx_HAL_Driver\Src\gipsy_hal_gpio.o
 .debug_frame   0x00000dd0      0x1b0 02_STM_Drivers\STM32F4xx_HAL_Driver\Src\gipsy_hal_i2c.o
 .debug_frame   0x00000f80      0x12c 02_STM_Drivers\STM32F4xx_HAL_Driver\Src\gipsy_hal_rcc.o
 .debug_frame   0x000010ac      0x11c 02_STM_Drivers\STM32F4xx_HAL_Driver\Src\gipsy_hal_uart.o
 .debug_frame   0x000011c8      0x1b8 02_STM_Drivers\STM32F4xx_HAL_Driver\Src\stm32f4xx_hal_cortex.o
 .debug_frame   0x00001380      0xc00 02_STM_Drivers\STM32F4xx_HAL_Driver\Src\stm32f4xx_hal_tim.o
 .debug_frame   0x00001f80       0x58 CTRY_Files\Temperature_Control.o
 .debug_frame   0x00001fd8       0x34 CTRY_Files\actuator_ctrl.o
 .debug_frame   0x0000200c      0x1a0 CTRY_Files\board_cfg_ctry.o
 .debug_frame   0x000021ac       0x60 CTRY_Files\can_protocol_ctry.o
 .debug_frame   0x0000220c       0x5c CTRY_Files\current_sensor.o
 .debug_frame   0x00002268       0x38 CTRY_Files\flash_integrity_test.o
 .debug_frame   0x000022a0       0xac CTRY_Files\gpio_control_ctry.o
 .debug_frame   0x0000234c       0xc0 CTRY_Files\id_conf_ctry.o
 .debug_frame   0x0000240c       0xe8 CTRY_Files\mcp9804.o
 .debug_frame   0x000024f4       0x50 CTRY_Files\module_init_ctry.o
 .debug_frame   0x00002544      0x1e0 CTRY_Files\motor_driver.o
 .debug_frame   0x00002724       0x30 CTRY_Files\periodic_ctry.o
 .debug_frame   0x00002754      0x1c8 CTRY_Files\system_params_ctry.o
 .debug_frame   0x0000291c      0x130 CTRY_Files\vibration_meas.o
 .debug_frame   0x00002a4c       0x38 CTRY_Files\voltage_meas_ctry.o
 .debug_frame   0x00002a84       0x78 CTRY_Files\wdog.o
 .debug_frame   0x00002afc       0x64 Src\gipsy_ctry_it.o
 .debug_frame   0x00002b60       0x64 Src\main.o
 .debug_frame   0x00002bc4       0x2c c:/program files (x86)/atollic/truestudio for stm32 9.1.0/armtools/bin/../lib/gcc/arm-atollic-eabi/6.3.1/../../../../arm-atollic-eabi/lib/armv7e-m/fpu\libc_nano.a(lib_a-init.o)
 .debug_frame   0x00002bf0       0x68 c:/program files (x86)/atollic/truestudio for stm32 9.1.0/armtools/bin/../lib/gcc/arm-atollic-eabi/6.3.1/../../../../arm-atollic-eabi/lib/armv7e-m/fpu\libc_nano.a(lib_a-locale.o)
 .debug_frame   0x00002c58       0x48 c:/program files (x86)/atollic/truestudio for stm32 9.1.0/armtools/bin/../lib/gcc/arm-atollic-eabi/6.3.1/../../../../arm-atollic-eabi/lib/armv7e-m/fpu\libc_nano.a(lib_a-mbtowc_r.o)
 .debug_frame   0x00002ca0       0x28 c:/program files (x86)/atollic/truestudio for stm32 9.1.0/armtools/bin/../lib/gcc/arm-atollic-eabi/6.3.1/../../../../arm-atollic-eabi/lib/armv7e-m/fpu\libc_nano.a(lib_a-memcpy-stub.o)
 .debug_frame   0x00002cc8       0x20 c:/program files (x86)/atollic/truestudio for stm32 9.1.0/armtools/bin/../lib/gcc/arm-atollic-eabi/6.3.1/../../../../arm-atollic-eabi/lib/armv7e-m/fpu\libc_nano.a(lib_a-memset.o)
 .debug_frame   0x00002ce8       0x7c c:/program files (x86)/atollic/truestudio for stm32 9.1.0/armtools/bin/../lib/gcc/arm-atollic-eabi/6.3.1/../../../../arm-atollic-eabi/lib/armv7e-m/fpu\libc_nano.a(lib_a-snprintf.o)
 .debug_frame   0x00002d64       0x70 c:/program files (x86)/atollic/truestudio for stm32 9.1.0/armtools/bin/../lib/gcc/arm-atollic-eabi/6.3.1/../../../../arm-atollic-eabi/lib/armv7e-m/fpu\libc_nano.a(lib_a-sprintf.o)
 .debug_frame   0x00002dd4       0x80 c:/program files (x86)/atollic/truestudio for stm32 9.1.0/armtools/bin/../lib/gcc/arm-atollic-eabi/6.3.1/../../../../arm-atollic-eabi/lib/armv7e-m/fpu\libc_nano.a(lib_a-sscanf.o)
 .debug_frame   0x00002e54       0x88 c:/program files (x86)/atollic/truestudio for stm32 9.1.0/armtools/bin/../lib/gcc/arm-atollic-eabi/6.3.1/../../../../arm-atollic-eabi/lib/armv7e-m/fpu\libc_nano.a(lib_a-stdio.o)
 .debug_frame   0x00002edc       0x20 c:/program files (x86)/atollic/truestudio for stm32 9.1.0/armtools/bin/../lib/gcc/arm-atollic-eabi/6.3.1/../../../../arm-atollic-eabi/lib/armv7e-m/fpu\libc_nano.a(lib_a-strchr.o)
 .debug_frame   0x00002efc       0x20 c:/program files (x86)/atollic/truestudio for stm32 9.1.0/armtools/bin/../lib/gcc/arm-atollic-eabi/6.3.1/../../../../arm-atollic-eabi/lib/armv7e-m/fpu\libc_nano.a(lib_a-strcmp.o)
 .debug_frame   0x00002f1c       0x20 c:/program files (x86)/atollic/truestudio for stm32 9.1.0/armtools/bin/../lib/gcc/arm-atollic-eabi/6.3.1/../../../../arm-atollic-eabi/lib/armv7e-m/fpu\libc_nano.a(lib_a-strcpy.o)
 .debug_frame   0x00002f3c       0x2c c:/program files (x86)/atollic/truestudio for stm32 9.1.0/armtools/bin/../lib/gcc/arm-atollic-eabi/6.3.1/../../../../arm-atollic-eabi/lib/armv7e-m/fpu\libc_nano.a(lib_a-strncat.o)
 .debug_frame   0x00002f68       0x28 c:/program files (x86)/atollic/truestudio for stm32 9.1.0/armtools/bin/../lib/gcc/arm-atollic-eabi/6.3.1/../../../../arm-atollic-eabi/lib/armv7e-m/fpu\libc_nano.a(lib_a-strncmp.o)
 .debug_frame   0x00002f90       0x2c c:/program files (x86)/atollic/truestudio for stm32 9.1.0/armtools/bin/../lib/gcc/arm-atollic-eabi/6.3.1/../../../../arm-atollic-eabi/lib/armv7e-m/fpu\libc_nano.a(lib_a-strncpy.o)
 .debug_frame   0x00002fbc       0x30 c:/program files (x86)/atollic/truestudio for stm32 9.1.0/armtools/bin/../lib/gcc/arm-atollic-eabi/6.3.1/../../../../arm-atollic-eabi/lib/armv7e-m/fpu\libc_nano.a(lib_a-strstr.o)
 .debug_frame   0x00002fec       0x88 c:/program files (x86)/atollic/truestudio for stm32 9.1.0/armtools/bin/../lib/gcc/arm-atollic-eabi/6.3.1/../../../../arm-atollic-eabi/lib/armv7e-m/fpu\libc_nano.a(lib_a-strtol.o)
 .debug_frame   0x00003074       0x84 c:/program files (x86)/atollic/truestudio for stm32 9.1.0/armtools/bin/../lib/gcc/arm-atollic-eabi/6.3.1/../../../../arm-atollic-eabi/lib/armv7e-m/fpu\libc_nano.a(lib_a-strtoul.o)
 .debug_frame   0x000030f8       0x4c c:/program files (x86)/atollic/truestudio for stm32 9.1.0/armtools/bin/../lib/gcc/arm-atollic-eabi/6.3.1/../../../../arm-atollic-eabi/lib/armv7e-m/fpu\libc_nano.a(lib_a-vsnprintf.o)
 .debug_frame   0x00003144       0x3c c:/program files (x86)/atollic/truestudio for stm32 9.1.0/armtools/bin/../lib/gcc/arm-atollic-eabi/6.3.1/../../../../arm-atollic-eabi/lib/armv7e-m/fpu\libc_nano.a(lib_a-wctomb_r.o)
 .debug_frame   0x00003180       0x90 c:/program files (x86)/atollic/truestudio for stm32 9.1.0/armtools/bin/../lib/gcc/arm-atollic-eabi/6.3.1/../../../../arm-atollic-eabi/lib/armv7e-m/fpu\libc_nano.a(lib_a-nano-svfprintf.o)
 .debug_frame   0x00003210       0x78 c:/program files (x86)/atollic/truestudio for stm32 9.1.0/armtools/bin/../lib/gcc/arm-atollic-eabi/6.3.1/../../../../arm-atollic-eabi/lib/armv7e-m/fpu\libc_nano.a(lib_a-nano-svfscanf.o)
 .debug_frame   0x00003288       0x60 c:/program files (x86)/atollic/truestudio for stm32 9.1.0/armtools/bin/../lib/gcc/arm-atollic-eabi/6.3.1/../../../../arm-atollic-eabi/lib/armv7e-m/fpu\libc_nano.a(lib_a-nano-vfprintf_i.o)
 .debug_frame   0x000032e8       0x60 c:/program files (x86)/atollic/truestudio for stm32 9.1.0/armtools/bin/../lib/gcc/arm-atollic-eabi/6.3.1/../../../../arm-atollic-eabi/lib/armv7e-m/fpu\libc_nano.a(lib_a-nano-vfscanf_i.o)
 .debug_frame   0x00003348       0x5c c:/program files (x86)/atollic/truestudio for stm32 9.1.0/armtools/bin/../lib/gcc/arm-atollic-eabi/6.3.1/../../../../arm-atollic-eabi/lib/armv7e-m/fpu\libc_nano.a(lib_a-reent.o)
 .debug_frame   0x000033a4       0x2c c:/program files (x86)/atollic/truestudio for stm32 9.1.0/armtools/bin/../lib/gcc/arm-atollic-eabi/6.3.1/../../../../arm-atollic-eabi/lib/armv7e-m/fpu\libc_nano.a(lib_a-sccl.o)
 .debug_frame   0x000033d0       0x5c c:/program files (x86)/atollic/truestudio for stm32 9.1.0/armtools/bin/../lib/gcc/arm-atollic-eabi/6.3.1/../../../../arm-atollic-eabi/lib/armv7e-m/fpu\libc_nano.a(lib_a-ungetc.o)
 .debug_frame   0x0000342c      0x11c c:/program files (x86)/atollic/truestudio for stm32 9.1.0/armtools/bin/../lib/gcc/arm-atollic-eabi/6.3.1/../../../../arm-atollic-eabi/lib/armv7e-m/fpu\libc_nano.a(lib_a-findfp.o)
 .debug_frame   0x00003548       0x28 c:/program files (x86)/atollic/truestudio for stm32 9.1.0/armtools/bin/../lib/gcc/arm-atollic-eabi/6.3.1/../../../../arm-atollic-eabi/lib/armv7e-m/fpu\libc_nano.a(lib_a-memmove.o)
 .debug_frame   0x00003570       0x38 c:/program files (x86)/atollic/truestudio for stm32 9.1.0/armtools/bin/../lib/gcc/arm-atollic-eabi/6.3.1/../../../../arm-atollic-eabi/lib/armv7e-m/fpu\libc_nano.a(lib_a-nano-freer.o)
 .debug_frame   0x000035a8       0x2c c:/program files (x86)/atollic/truestudio for stm32 9.1.0/armtools/bin/../lib/gcc/arm-atollic-eabi/6.3.1/../../../../arm-atollic-eabi/lib/armv7e-m/fpu\libc_nano.a(lib_a-nano-mallocr.o)
 .debug_frame   0x000035d4       0x3c c:/program files (x86)/atollic/truestudio for stm32 9.1.0/armtools/bin/../lib/gcc/arm-atollic-eabi/6.3.1/../../../../arm-atollic-eabi/lib/armv7e-m/fpu\libc_nano.a(lib_a-nano-reallocr.o)
 .debug_frame   0x00003610       0x2c c:/program files (x86)/atollic/truestudio for stm32 9.1.0/armtools/bin/../lib/gcc/arm-atollic-eabi/6.3.1/../../../../arm-atollic-eabi/lib/armv7e-m/fpu\libc_nano.a(lib_a-sbrkr.o)
 .debug_frame   0x0000363c       0x30 c:/program files (x86)/atollic/truestudio for stm32 9.1.0/armtools/bin/../lib/gcc/arm-atollic-eabi/6.3.1/../../../../arm-atollic-eabi/lib/armv7e-m/fpu\libc_nano.a(lib_a-mlock.o)
 .debug_frame   0x0000366c       0x20 c:/program files (x86)/atollic/truestudio for stm32 9.1.0/armtools/bin/../lib/gcc/arm-atollic-eabi/6.3.1/../../../../arm-atollic-eabi/lib/armv7e-m/fpu\libc_nano.a(lib_a-nano-msizer.o)
 .debug_frame   0x0000368c       0xac c:/program files (x86)/atollic/truestudio for stm32 9.1.0/armtools/bin/../lib/gcc/arm-atollic-eabi/6.3.1/armv7e-m/fpu\libgcc.a(_arm_addsubdf3.o)
 .debug_frame   0x00003738       0x50 c:/program files (x86)/atollic/truestudio for stm32 9.1.0/armtools/bin/../lib/gcc/arm-atollic-eabi/6.3.1/armv7e-m/fpu\libgcc.a(_arm_muldivdf3.o)
 .debug_frame   0x00003788       0xc4 c:/program files (x86)/atollic/truestudio for stm32 9.1.0/armtools/bin/../lib/gcc/arm-atollic-eabi/6.3.1/armv7e-m/fpu\libgcc.a(_arm_cmpdf2.o)
 .debug_frame   0x0000384c       0x24 c:/program files (x86)/atollic/truestudio for stm32 9.1.0/armtools/bin/../lib/gcc/arm-atollic-eabi/6.3.1/armv7e-m/fpu\libgcc.a(_arm_truncdfsf2.o)
 .debug_frame   0x00003870       0x2c c:/program files (x86)/atollic/truestudio for stm32 9.1.0/armtools/bin/../lib/gcc/arm-atollic-eabi/6.3.1/armv7e-m/fpu\libgcc.a(_aeabi_uldivmod.o)
 .debug_frame   0x0000389c       0x34 c:/program files (x86)/atollic/truestudio for stm32 9.1.0/armtools/bin/../lib/gcc/arm-atollic-eabi/6.3.1/armv7e-m/fpu\libgcc.a(_udivmoddi4.o)
 .debug_frame   0x000038d0       0x20 c:/program files (x86)/atollic/truestudio for stm32 9.1.0/armtools/bin/../lib/gcc/arm-atollic-eabi/6.3.1/../../../../arm-atollic-eabi/lib/armv7e-m/fpu\libnosys.a(sbrk.o)

.stabstr        0x00000000       0xdf
 .stabstr       0x00000000       0xdf c:/program files (x86)/atollic/truestudio for stm32 9.1.0/armtools/bin/../lib/gcc/arm-atollic-eabi/6.3.1/../../../../arm-atollic-eabi/lib/armv7e-m/fpu\libnosys.a(close.o)

Cross Reference Table

Symbol                                            File
ADC_IRQHandler                                    Startup\startup_stm32f427xx.o
AHBPrescTable                                     02_STM_Drivers\STM32F4xx_HAL_Driver\Src\gipsy_hal_rcc.o
APBPrescTable                                     02_STM_Drivers\STM32F4xx_HAL_Driver\Src\gipsy_hal_rcc.o
Activate_Fault_Channel_C                          CTRY_Files\gpio_control_ctry.o
Actuators_Activation_Management                   CTRY_Files\actuator_ctrl.o
                                                  CTRY_Files\periodic_ctry.o
Board_Periph_Config                               CTRY_Files\board_cfg_ctry.o
                                                  Src\main.o
BrdTempSensAddr                                   CTRY_Files\mcp9804.o
BusFault_Handler                                  Startup\startup_stm32f427xx.o
CAN1_RX0_IRQHandler                               Src\gipsy_ctry_it.o
CAN1_RX1_IRQHandler                               Startup\startup_stm32f427xx.o
CAN1_SCE_IRQHandler                               Startup\startup_stm32f427xx.o
CAN1_TX_IRQHandler                                Startup\startup_stm32f427xx.o
CAN2_RX0_IRQHandler                               Startup\startup_stm32f427xx.o
CAN2_RX1_IRQHandler                               Startup\startup_stm32f427xx.o
CAN2_SCE_IRQHandler                               Startup\startup_stm32f427xx.o
CAN2_TX_IRQHandler                                Startup\startup_stm32f427xx.o
CAN_Message_Transmit                              CTRY_Files\can_protocol_ctry.o
CLIMSG_AddElement                                 01_Common\02_CLI\00_CLI_ENGINE\cli_msg.o
CLIMSG_AddElementMT                               01_Common\02_CLI\00_CLI_ENGINE\cli_msg.o
CLIMSG_AddEndTag                                  01_Common\02_CLI\00_CLI_ENGINE\cli_msg.o
CLIMSG_AddRootElement                             01_Common\02_CLI\00_CLI_ENGINE\cli_msg.o
                                                  01_Common\02_CLI\00_CLI_ENGINE\cli_parser.o
CLIMSG_AddRootElementEnd                          01_Common\02_CLI\00_CLI_ENGINE\cli_msg.o
                                                  01_Common\02_CLI\00_CLI_ENGINE\cli_parser.o
CLIMSG_AddSimpleText                              01_Common\02_CLI\00_CLI_ENGINE\cli_msg.o
                                                  01_Common\02_CLI\02_CLI_CTRY\cli_monitor_func_ctry.o
                                                  01_Common\02_CLI\02_CLI_CTRY\cli_debug_func_ctry.o
                                                  01_Common\02_CLI\00_CLI_ENGINE\cli_general.o
CLIMSG_AddStartTag                                01_Common\02_CLI\00_CLI_ENGINE\cli_msg.o
CLIMSG_ComposeCompleteResp                        01_Common\02_CLI\00_CLI_ENGINE\cli_msg.o
                                                  01_Common\02_CLI\00_CLI_ENGINE\cli_parser.o
CLIMSG_ComposeErrorResp                           01_Common\02_CLI\00_CLI_ENGINE\cli_msg.o
                                                  01_Common\02_CLI\00_CLI_ENGINE\cli_parser.o
CLIMSG_ComposeHelpResp                            01_Common\02_CLI\00_CLI_ENGINE\cli_msg.o
                                                  01_Common\02_CLI\00_CLI_ENGINE\cli_parser.o
CLIMSG_ComposeReadResp                            01_Common\02_CLI\00_CLI_ENGINE\cli_msg.o
CLIMSG_ParamWrapper                               01_Common\02_CLI\00_CLI_ENGINE\cli_msg.o
CLIMSG_Reply_revert                               01_Common\02_CLI\00_CLI_ENGINE\cli_msg.o
CLIMSG_WrapElement                                01_Common\02_CLI\00_CLI_ENGINE\cli_msg.o
CLI_CID_Handler                                   01_Common\02_CLI\00_CLI_ENGINE\cli_engine.o
                                                  01_Common\02_CLI\00_CLI_ENGINE\cli_parser.o
CLI_CTRY_CRC_Test                                 01_Common\02_CLI\02_CLI_CTRY\cli_debug_func_ctry.o
CLI_CTRY_Reset                                    01_Common\02_CLI\02_CLI_CTRY\cli_debug_func_ctry.o
CLI_ConvtoNumber                                  01_Common\02_CLI\00_CLI_ENGINE\cli_parser.o
CLI_GetArrNumByString                             01_Common\02_CLI\00_CLI_ENGINE\cli_engine.o
CLI_GetArrNumByStringN                            01_Common\02_CLI\00_CLI_ENGINE\cli_engine.o
CLI_GetKeyR                                       01_Common\02_CLI\00_CLI_ENGINE\cli_engine.o
                                                  01_Common\02_CLI\02_CLI_CTRY\cli_monitor_func_ctry.o
                                                  01_Common\02_CLI\02_CLI_CTRY\cli_debug_func_ctry.o
                                                  01_Common\02_CLI\02_CLI_CTRY\cli_control_func_ctry.o
                                                  01_Common\02_CLI\00_CLI_ENGINE\cli_msg.o
CLI_GetNextTokenType                              01_Common\02_CLI\00_CLI_ENGINE\cli_engine.o
CLI_GetPrivilegeLevel                             01_Common\02_CLI\00_CLI_ENGINE\cli_engine.o
CLI_GetTdlFormatStr                               01_Common\02_CLI\00_CLI_ENGINE\cli_engine.o
                                                  01_Common\02_CLI\00_CLI_ENGINE\cli_parser.o
CLI_GetTokensNum                                  01_Common\02_CLI\00_CLI_ENGINE\cli_engine.o
                                                  01_Common\02_CLI\00_CLI_ENGINE\cli_msg.o
CLI_HistoryReset                                  01_Common\02_CLI\00_CLI_ENGINE\cli_parser.o
CLI_Init                                          01_Common\02_CLI\00_CLI_ENGINE\cli_parser.o
CLI_IsNumber                                      01_Common\02_CLI\00_CLI_ENGINE\cli_parser.o
CLI_LocatebyKeyWords                              01_Common\02_CLI\00_CLI_ENGINE\cli_engine.o
                                                  01_Common\02_CLI\00_CLI_ENGINE\cli_parser.o
CLI_MdrvSpiWriteRead                              01_Common\02_CLI\02_CLI_CTRY\cli_debug_func_ctry.o
CLI_MonitorBoardVoltages                          01_Common\02_CLI\02_CLI_CTRY\cli_monitor_func_ctry.o
CLI_MonitorMdrvStatus                             01_Common\02_CLI\02_CLI_CTRY\cli_monitor_func_ctry.o
CLI_MonitorMisc                                   01_Common\02_CLI\02_CLI_CTRY\cli_monitor_func_ctry.o
CLI_ParseLine                                     01_Common\02_CLI\00_CLI_ENGINE\cli_parser.o
CLI_ParseSymbol                                   01_Common\02_CLI\00_CLI_ENGINE\cli_parser.o
                                                  01_Common\01_BSP\03_UART\uart.o
CLI_ParseTextString                               01_Common\02_CLI\00_CLI_ENGINE\cli_engine.o
                                                  01_Common\02_CLI\00_CLI_ENGINE\cli_parser.o
CLI_ParseToken                                    01_Common\02_CLI\00_CLI_ENGINE\cli_engine.o
CLI_PrintPrompt                                   01_Common\02_CLI\00_CLI_ENGINE\cli_io.o
                                                  01_Common\02_CLI\00_CLI_ENGINE\cli_parser.o
                                                  01_Common\01_BSP\03_UART\uart.o
CLI_RTCReadTimeDate                               01_Common\02_CLI\02_CLI_CTRY\cli_debug_func_ctry.o
CLI_RTCWriteDate                                  01_Common\02_CLI\02_CLI_CTRY\cli_debug_func_ctry.o
CLI_RTCWriteTime                                  01_Common\02_CLI\02_CLI_CTRY\cli_debug_func_ctry.o
CLI_Read                                          01_Common\02_CLI\00_CLI_ENGINE\cli_io.o
CLI_ReadAccelId                                   01_Common\02_CLI\02_CLI_CTRY\cli_monitor_func_ctry.o
CLI_ReadAcceleration                              01_Common\02_CLI\02_CLI_CTRY\cli_monitor_func_ctry.o
CLI_ReadCurrentConsumption                        01_Common\02_CLI\02_CLI_CTRY\cli_monitor_func_ctry.o
CLI_ReadGPInputs                                  01_Common\02_CLI\02_CLI_CTRY\cli_monitor_func_ctry.o
CLI_ReadTemperatureSensors                        01_Common\02_CLI\02_CLI_CTRY\cli_monitor_func_ctry.o
CLI_SetDeviceMode                                 01_Common\02_CLI\02_CLI_CTRY\cli_control_func_ctry.o
CLI_SetMdrvEnable                                 01_Common\02_CLI\02_CLI_CTRY\cli_control_func_ctry.o
CLI_SetMdrvPwmParams                              01_Common\02_CLI\02_CLI_CTRY\cli_control_func_ctry.o
CLI_SetMdrvRPM                                    01_Common\02_CLI\02_CLI_CTRY\cli_control_func_ctry.o
CLI_SetPrivilegeLevel                             01_Common\02_CLI\00_CLI_ENGINE\cli_engine.o
CLI_TestNUpdatePointers                           01_Common\02_CLI\00_CLI_ENGINE\cli_parser.o
                                                  01_Common\02_CLI\00_CLI_ENGINE\cli_general.o
CLI_Write                                         01_Common\02_CLI\00_CLI_ENGINE\cli_io.o
                                                  01_Common\02_CLI\00_CLI_ENGINE\cli_parser.o
                                                  01_Common\02_CLI\00_CLI_ENGINE\cli_engine.o
CLI_WriteGPOutputs                                01_Common\02_CLI\02_CLI_CTRY\cli_control_func_ctry.o
CTRY_Control_Heaters                              CTRY_Files\Temperature_Control.o
                                                  CTRY_Files\can_protocol_ctry.o
CTRY_Module_Init                                  CTRY_Files\module_init_ctry.o
                                                  Src\main.o
CTRY_Temperature_Managenent                       CTRY_Files\Temperature_Control.o
                                                  CTRY_Files\periodic_ctry.o
Check_Accelerometer_ID                            CTRY_Files\vibration_meas.o
                                                  CTRY_Files\periodic_ctry.o
                                                  01_Common\02_CLI\02_CLI_CTRY\cli_monitor_func_ctry.o
CliHistory                                        01_Common\02_CLI\00_CLI_ENGINE\cli_parser.o
                                                  01_Common\02_CLI\00_CLI_ENGINE\cli_general.o
CliRcMessages                                     01_Common\02_CLI\00_CLI_ENGINE\cli_msg.o
CommandLineBuff                                   01_Common\02_CLI\00_CLI_ENGINE\cli_parser.o
DCMI_IRQHandler                                   Startup\startup_stm32f427xx.o
DMA1_Stream0_IRQHandler                           Startup\startup_stm32f427xx.o
DMA1_Stream1_IRQHandler                           Startup\startup_stm32f427xx.o
DMA1_Stream2_IRQHandler                           Startup\startup_stm32f427xx.o
DMA1_Stream3_IRQHandler                           Startup\startup_stm32f427xx.o
DMA1_Stream4_IRQHandler                           Startup\startup_stm32f427xx.o
DMA1_Stream5_IRQHandler                           Startup\startup_stm32f427xx.o
DMA1_Stream6_IRQHandler                           Startup\startup_stm32f427xx.o
DMA1_Stream7_IRQHandler                           Startup\startup_stm32f427xx.o
DMA2D_IRQHandler                                  Startup\startup_stm32f427xx.o
DMA2_Stream0_IRQHandler                           Startup\startup_stm32f427xx.o
DMA2_Stream1_IRQHandler                           Startup\startup_stm32f427xx.o
DMA2_Stream2_IRQHandler                           Startup\startup_stm32f427xx.o
DMA2_Stream3_IRQHandler                           Startup\startup_stm32f427xx.o
DMA2_Stream4_IRQHandler                           Startup\startup_stm32f427xx.o
DMA2_Stream5_IRQHandler                           Startup\startup_stm32f427xx.o
DMA2_Stream6_IRQHandler                           Startup\startup_stm32f427xx.o
DMA2_Stream7_IRQHandler                           Startup\startup_stm32f427xx.o
DebugMon_Handler                                  Startup\startup_stm32f427xx.o
Default_Handler                                   Startup\startup_stm32f427xx.o
ETH_IRQHandler                                    Startup\startup_stm32f427xx.o
ETH_WKUP_IRQHandler                               Startup\startup_stm32f427xx.o
EXTI0_IRQHandler                                  Startup\startup_stm32f427xx.o
EXTI15_10_IRQHandler                              Startup\startup_stm32f427xx.o
EXTI1_IRQHandler                                  Startup\startup_stm32f427xx.o
EXTI2_IRQHandler                                  Startup\startup_stm32f427xx.o
EXTI3_IRQHandler                                  Startup\startup_stm32f427xx.o
EXTI4_IRQHandler                                  Startup\startup_stm32f427xx.o
EXTI9_5_IRQHandler                                Startup\startup_stm32f427xx.o
Error_Handler                                     Src\main.o
FLASH_IRQHandler                                  Startup\startup_stm32f427xx.o
FMC_IRQHandler                                    Startup\startup_stm32f427xx.o
FPU_IRQHandler                                    Startup\startup_stm32f427xx.o
Fault_Channel_C_Control                           CTRY_Files\gpio_control_ctry.o
                                                  CTRY_Files\can_protocol_ctry.o
Flash_Integrity_Test                              CTRY_Files\flash_integrity_test.o
                                                  01_Common\02_CLI\02_CLI_CTRY\cli_debug_func_ctry.o
Get_Actuator_CurrLimits                           CTRY_Files\system_params_ctry.o
Get_Actuator_State                                CTRY_Files\system_params_ctry.o
Get_Actuator_Status                               CTRY_Files\system_params_ctry.o
Get_Actuator_VibrLimits                           CTRY_Files\system_params_ctry.o
                                                  CTRY_Files\vibration_meas.o
Get_Axis_Z_Acceleration                           CTRY_Files\vibration_meas.o
Get_CTRY_All_Actuators_Status                     CTRY_Files\system_params_ctry.o
                                                  CTRY_Files\can_protocol_ctry.o
Get_CTRY_ID                                       CTRY_Files\id_conf_ctry.o
                                                  CTRY_Files\vibration_meas.o
                                                  CTRY_Files\can_protocol_ctry.o
                                                  CTRY_Files\actuator_ctrl.o
                                                  01_Common\02_CLI\02_CLI_CTRY\cli_monitor_func_ctry.o
                                                  01_Common\02_CLI\00_CLI_ENGINE\cli_io.o
Get_CTRY_Status                                   CTRY_Files\system_params_ctry.o
HAL_ADC_Init                                      02_STM_Drivers\STM32F4xx_HAL_Driver\Src\gipsy_hal_adc.o
                                                  CTRY_Files\board_cfg_ctry.o
HAL_ADC_Perform_Convertion                        02_STM_Drivers\STM32F4xx_HAL_Driver\Src\gipsy_hal_adc.o
                                                  CTRY_Files\voltage_meas_ctry.o
                                                  CTRY_Files\current_sensor.o
HAL_CAN_AddTxMessage                              02_STM_Drivers\STM32F4xx_HAL_Driver\Src\gipsy_hal_can.o
                                                  CTRY_Files\can_protocol_ctry.o
HAL_CAN_GetRxMessage                              02_STM_Drivers\STM32F4xx_HAL_Driver\Src\gipsy_hal_can.o
                                                  CTRY_Files\can_protocol_ctry.o
HAL_CAN_IRQHandler                                02_STM_Drivers\STM32F4xx_HAL_Driver\Src\gipsy_hal_can.o
                                                  Src\gipsy_ctry_it.o
HAL_CAN_Init                                      02_STM_Drivers\STM32F4xx_HAL_Driver\Src\gipsy_hal_can.o
                                                  CTRY_Files\board_cfg_ctry.o
HAL_CAN_RxFifo0MsgPendingCallback                 CTRY_Files\can_protocol_ctry.o
                                                  02_STM_Drivers\STM32F4xx_HAL_Driver\Src\gipsy_hal_can.o
HAL_CAN_Stop                                      02_STM_Drivers\STM32F4xx_HAL_Driver\Src\gipsy_hal_can.o
HAL_Delay                                         02_STM_Drivers\STM32F4xx_HAL_Driver\Src\gipsy_hal_rcc.o
                                                  CTRY_Files\wdog.o
                                                  CTRY_Files\motor_driver.o
                                                  CTRY_Files\id_conf_ctry.o
                                                  CTRY_Files\board_cfg_ctry.o
                                                  02_STM_Drivers\STM32F4xx_HAL_Driver\Src\gipsy_hal_can.o
HAL_GPIO_Init                                     02_STM_Drivers\STM32F4xx_HAL_Driver\Src\gipsy_hal_gpio.o
                                                  CTRY_Files\board_cfg_ctry.o
HAL_GPIO_ReadPin                                  02_STM_Drivers\STM32F4xx_HAL_Driver\Src\gipsy_hal_gpio.o
                                                  CTRY_Files\periodic_ctry.o
                                                  CTRY_Files\motor_driver.o
                                                  CTRY_Files\id_conf_ctry.o
                                                  CTRY_Files\gpio_control_ctry.o
                                                  01_Common\02_CLI\02_CLI_CTRY\cli_monitor_func_ctry.o
HAL_GPIO_TogglePin                                02_STM_Drivers\STM32F4xx_HAL_Driver\Src\gipsy_hal_gpio.o
                                                  CTRY_Files\gpio_control_ctry.o
HAL_GPIO_WritePin                                 02_STM_Drivers\STM32F4xx_HAL_Driver\Src\gipsy_hal_gpio.o
                                                  CTRY_Files\wdog.o
                                                  CTRY_Files\periodic_ctry.o
                                                  CTRY_Files\motor_driver.o
                                                  CTRY_Files\id_conf_ctry.o
                                                  CTRY_Files\gpio_control_ctry.o
                                                  CTRY_Files\board_cfg_ctry.o
                                                  CTRY_Files\Temperature_Control.o
                                                  01_Common\02_CLI\02_CLI_CTRY\cli_control_func_ctry.o
HAL_GetTick                                       02_STM_Drivers\STM32F4xx_HAL_Driver\Src\gipsy_hal_rcc.o
                                                  CTRY_Files\periodic_ctry.o
                                                  02_STM_Drivers\STM32F4xx_HAL_Driver\Src\gipsy_hal_uart.o
                                                  02_STM_Drivers\STM32F4xx_HAL_Driver\Src\gipsy_hal_i2c.o
                                                  02_STM_Drivers\STM32F4xx_HAL_Driver\Src\gipsy_hal_can.o
                                                  02_STM_Drivers\STM32F4xx_HAL_Driver\Src\gipsy_hal_adc.o
HAL_I2C_Init                                      02_STM_Drivers\STM32F4xx_HAL_Driver\Src\gipsy_hal_i2c.o
                                                  CTRY_Files\board_cfg_ctry.o
HAL_I2C_Master_Receive                            02_STM_Drivers\STM32F4xx_HAL_Driver\Src\gipsy_hal_i2c.o
                                                  CTRY_Files\vibration_meas.o
                                                  CTRY_Files\mcp9804.o
HAL_I2C_Master_Transmit                           02_STM_Drivers\STM32F4xx_HAL_Driver\Src\gipsy_hal_i2c.o
                                                  CTRY_Files\vibration_meas.o
                                                  CTRY_Files\mcp9804.o
HAL_IncTick                                       02_STM_Drivers\STM32F4xx_HAL_Driver\Src\gipsy_hal_rcc.o
                                                  Src\gipsy_ctry_it.o
HAL_NVIC_EnableIRQ                                02_STM_Drivers\STM32F4xx_HAL_Driver\Src\stm32f4xx_hal_cortex.o
                                                  CTRY_Files\board_cfg_ctry.o
HAL_NVIC_SetPriority                              02_STM_Drivers\STM32F4xx_HAL_Driver\Src\stm32f4xx_hal_cortex.o
                                                  CTRY_Files\board_cfg_ctry.o
                                                  02_STM_Drivers\STM32F4xx_HAL_Driver\Src\gipsy_hal_rcc.o
HAL_NVIC_SetPriorityGrouping                      02_STM_Drivers\STM32F4xx_HAL_Driver\Src\stm32f4xx_hal_cortex.o
                                                  CTRY_Files\board_cfg_ctry.o
HAL_NVIC_SystemReset                              02_STM_Drivers\STM32F4xx_HAL_Driver\Src\stm32f4xx_hal_cortex.o
HAL_RCCEx_PeriphCLKConfig                         02_STM_Drivers\STM32F4xx_HAL_Driver\Src\gipsy_hal_rcc.o
                                                  CTRY_Files\board_cfg_ctry.o
                                                  02_STM_Drivers\STM32F4xx_HAL_Driver\Src\gipsy_hal_rtc_ctry.o
HAL_RCC_ClockConfig                               02_STM_Drivers\STM32F4xx_HAL_Driver\Src\gipsy_hal_rcc.o
                                                  CTRY_Files\board_cfg_ctry.o
HAL_RCC_GetPCLK1Freq                              02_STM_Drivers\STM32F4xx_HAL_Driver\Src\gipsy_hal_rcc.o
                                                  02_STM_Drivers\STM32F4xx_HAL_Driver\Src\gipsy_hal_uart.o
                                                  02_STM_Drivers\STM32F4xx_HAL_Driver\Src\gipsy_hal_i2c.o
HAL_RCC_OscConfig                                 02_STM_Drivers\STM32F4xx_HAL_Driver\Src\gipsy_hal_rcc.o
                                                  CTRY_Files\board_cfg_ctry.o
HAL_SYSTICK_Config                                02_STM_Drivers\STM32F4xx_HAL_Driver\Src\stm32f4xx_hal_cortex.o
                                                  02_STM_Drivers\STM32F4xx_HAL_Driver\Src\gipsy_hal_rcc.o
HAL_TIMEx_BreakCallback                           02_STM_Drivers\STM32F4xx_HAL_Driver\Src\stm32f4xx_hal_tim.o
HAL_TIMEx_CommutationCallback                     02_STM_Drivers\STM32F4xx_HAL_Driver\Src\stm32f4xx_hal_tim.o
HAL_TIM_Base_DeInit                               02_STM_Drivers\STM32F4xx_HAL_Driver\Src\stm32f4xx_hal_tim.o
HAL_TIM_Base_GetState                             02_STM_Drivers\STM32F4xx_HAL_Driver\Src\stm32f4xx_hal_tim.o
HAL_TIM_Base_Init                                 02_STM_Drivers\STM32F4xx_HAL_Driver\Src\stm32f4xx_hal_tim.o
HAL_TIM_Base_MspDeInit                            02_STM_Drivers\STM32F4xx_HAL_Driver\Src\stm32f4xx_hal_tim.o
HAL_TIM_Base_MspInit                              02_STM_Drivers\STM32F4xx_HAL_Driver\Src\stm32f4xx_hal_tim.o
HAL_TIM_Base_Start                                02_STM_Drivers\STM32F4xx_HAL_Driver\Src\stm32f4xx_hal_tim.o
HAL_TIM_Base_Start_IT                             02_STM_Drivers\STM32F4xx_HAL_Driver\Src\stm32f4xx_hal_tim.o
HAL_TIM_Base_Stop                                 02_STM_Drivers\STM32F4xx_HAL_Driver\Src\stm32f4xx_hal_tim.o
HAL_TIM_Base_Stop_IT                              02_STM_Drivers\STM32F4xx_HAL_Driver\Src\stm32f4xx_hal_tim.o
HAL_TIM_ConfigClockSource                         02_STM_Drivers\STM32F4xx_HAL_Driver\Src\stm32f4xx_hal_tim.o
HAL_TIM_ConfigOCrefClear                          02_STM_Drivers\STM32F4xx_HAL_Driver\Src\stm32f4xx_hal_tim.o
HAL_TIM_ConfigTI1Input                            02_STM_Drivers\STM32F4xx_HAL_Driver\Src\stm32f4xx_hal_tim.o
HAL_TIM_Encoder_GetState                          02_STM_Drivers\STM32F4xx_HAL_Driver\Src\stm32f4xx_hal_tim.o
HAL_TIM_Encoder_Init                              02_STM_Drivers\STM32F4xx_HAL_Driver\Src\stm32f4xx_hal_tim.o
HAL_TIM_Encoder_MspDeInit                         02_STM_Drivers\STM32F4xx_HAL_Driver\Src\stm32f4xx_hal_tim.o
HAL_TIM_Encoder_MspInit                           02_STM_Drivers\STM32F4xx_HAL_Driver\Src\stm32f4xx_hal_tim.o
HAL_TIM_Encoder_Start                             02_STM_Drivers\STM32F4xx_HAL_Driver\Src\stm32f4xx_hal_tim.o
HAL_TIM_Encoder_Start_IT                          02_STM_Drivers\STM32F4xx_HAL_Driver\Src\stm32f4xx_hal_tim.o
HAL_TIM_Encoder_Stop                              02_STM_Drivers\STM32F4xx_HAL_Driver\Src\stm32f4xx_hal_tim.o
HAL_TIM_Encoder_Stop_IT                           02_STM_Drivers\STM32F4xx_HAL_Driver\Src\stm32f4xx_hal_tim.o
HAL_TIM_ErrorCallback                             02_STM_Drivers\STM32F4xx_HAL_Driver\Src\stm32f4xx_hal_tim.o
HAL_TIM_GenerateEvent                             02_STM_Drivers\STM32F4xx_HAL_Driver\Src\stm32f4xx_hal_tim.o
HAL_TIM_IC_CaptureCallback                        02_STM_Drivers\STM32F4xx_HAL_Driver\Src\stm32f4xx_hal_tim.o
HAL_TIM_IC_ConfigChannel                          02_STM_Drivers\STM32F4xx_HAL_Driver\Src\stm32f4xx_hal_tim.o
HAL_TIM_IC_DeInit                                 02_STM_Drivers\STM32F4xx_HAL_Driver\Src\stm32f4xx_hal_tim.o
HAL_TIM_IC_GetState                               02_STM_Drivers\STM32F4xx_HAL_Driver\Src\stm32f4xx_hal_tim.o
HAL_TIM_IC_Init                                   02_STM_Drivers\STM32F4xx_HAL_Driver\Src\stm32f4xx_hal_tim.o
HAL_TIM_IC_MspDeInit                              02_STM_Drivers\STM32F4xx_HAL_Driver\Src\stm32f4xx_hal_tim.o
HAL_TIM_IC_MspInit                                02_STM_Drivers\STM32F4xx_HAL_Driver\Src\stm32f4xx_hal_tim.o
HAL_TIM_IC_Start                                  02_STM_Drivers\STM32F4xx_HAL_Driver\Src\stm32f4xx_hal_tim.o
HAL_TIM_IC_Start_IT                               02_STM_Drivers\STM32F4xx_HAL_Driver\Src\stm32f4xx_hal_tim.o
HAL_TIM_IC_Stop                                   02_STM_Drivers\STM32F4xx_HAL_Driver\Src\stm32f4xx_hal_tim.o
HAL_TIM_IC_Stop_IT                                02_STM_Drivers\STM32F4xx_HAL_Driver\Src\stm32f4xx_hal_tim.o
HAL_TIM_IRQHandler                                02_STM_Drivers\STM32F4xx_HAL_Driver\Src\stm32f4xx_hal_tim.o
HAL_TIM_OC_ConfigChannel                          02_STM_Drivers\STM32F4xx_HAL_Driver\Src\stm32f4xx_hal_tim.o
HAL_TIM_OC_DeInit                                 02_STM_Drivers\STM32F4xx_HAL_Driver\Src\stm32f4xx_hal_tim.o
HAL_TIM_OC_DelayElapsedCallback                   02_STM_Drivers\STM32F4xx_HAL_Driver\Src\stm32f4xx_hal_tim.o
HAL_TIM_OC_GetState                               02_STM_Drivers\STM32F4xx_HAL_Driver\Src\stm32f4xx_hal_tim.o
HAL_TIM_OC_Init                                   02_STM_Drivers\STM32F4xx_HAL_Driver\Src\stm32f4xx_hal_tim.o
HAL_TIM_OC_MspDeInit                              02_STM_Drivers\STM32F4xx_HAL_Driver\Src\stm32f4xx_hal_tim.o
HAL_TIM_OC_MspInit                                02_STM_Drivers\STM32F4xx_HAL_Driver\Src\stm32f4xx_hal_tim.o
HAL_TIM_OC_Start                                  02_STM_Drivers\STM32F4xx_HAL_Driver\Src\stm32f4xx_hal_tim.o
HAL_TIM_OC_Start_IT                               02_STM_Drivers\STM32F4xx_HAL_Driver\Src\stm32f4xx_hal_tim.o
HAL_TIM_OC_Stop                                   02_STM_Drivers\STM32F4xx_HAL_Driver\Src\stm32f4xx_hal_tim.o
HAL_TIM_OC_Stop_IT                                02_STM_Drivers\STM32F4xx_HAL_Driver\Src\stm32f4xx_hal_tim.o
HAL_TIM_OnePulse_ConfigChannel                    02_STM_Drivers\STM32F4xx_HAL_Driver\Src\stm32f4xx_hal_tim.o
HAL_TIM_OnePulse_DeInit                           02_STM_Drivers\STM32F4xx_HAL_Driver\Src\stm32f4xx_hal_tim.o
HAL_TIM_OnePulse_GetState                         02_STM_Drivers\STM32F4xx_HAL_Driver\Src\stm32f4xx_hal_tim.o
HAL_TIM_OnePulse_Init                             02_STM_Drivers\STM32F4xx_HAL_Driver\Src\stm32f4xx_hal_tim.o
HAL_TIM_OnePulse_MspDeInit                        02_STM_Drivers\STM32F4xx_HAL_Driver\Src\stm32f4xx_hal_tim.o
HAL_TIM_OnePulse_MspInit                          02_STM_Drivers\STM32F4xx_HAL_Driver\Src\stm32f4xx_hal_tim.o
HAL_TIM_OnePulse_Start                            02_STM_Drivers\STM32F4xx_HAL_Driver\Src\stm32f4xx_hal_tim.o
HAL_TIM_OnePulse_Start_IT                         02_STM_Drivers\STM32F4xx_HAL_Driver\Src\stm32f4xx_hal_tim.o
HAL_TIM_OnePulse_Stop                             02_STM_Drivers\STM32F4xx_HAL_Driver\Src\stm32f4xx_hal_tim.o
HAL_TIM_OnePulse_Stop_IT                          02_STM_Drivers\STM32F4xx_HAL_Driver\Src\stm32f4xx_hal_tim.o
HAL_TIM_PWM_ConfigChannel                         02_STM_Drivers\STM32F4xx_HAL_Driver\Src\stm32f4xx_hal_tim.o
                                                  CTRY_Files\board_cfg_ctry.o
HAL_TIM_PWM_GetState                              02_STM_Drivers\STM32F4xx_HAL_Driver\Src\stm32f4xx_hal_tim.o
HAL_TIM_PWM_Init                                  02_STM_Drivers\STM32F4xx_HAL_Driver\Src\stm32f4xx_hal_tim.o
                                                  CTRY_Files\board_cfg_ctry.o
HAL_TIM_PWM_PulseFinishedCallback                 02_STM_Drivers\STM32F4xx_HAL_Driver\Src\stm32f4xx_hal_tim.o
HAL_TIM_PWM_Start                                 02_STM_Drivers\STM32F4xx_HAL_Driver\Src\stm32f4xx_hal_tim.o
                                                  CTRY_Files\motor_driver.o
                                                  01_Common\02_CLI\02_CLI_CTRY\cli_control_func_ctry.o
HAL_TIM_PWM_Stop                                  02_STM_Drivers\STM32F4xx_HAL_Driver\Src\stm32f4xx_hal_tim.o
HAL_TIM_PeriodElapsedCallback                     02_STM_Drivers\STM32F4xx_HAL_Driver\Src\stm32f4xx_hal_tim.o
HAL_TIM_ReadCapturedValue                         02_STM_Drivers\STM32F4xx_HAL_Driver\Src\stm32f4xx_hal_tim.o
HAL_TIM_SlaveConfigSynchronization                02_STM_Drivers\STM32F4xx_HAL_Driver\Src\stm32f4xx_hal_tim.o
HAL_TIM_SlaveConfigSynchronization_IT             02_STM_Drivers\STM32F4xx_HAL_Driver\Src\stm32f4xx_hal_tim.o
HAL_TIM_TriggerCallback                           02_STM_Drivers\STM32F4xx_HAL_Driver\Src\stm32f4xx_hal_tim.o
HAL_UART3_RxCpltCallback                          01_Common\01_BSP\03_UART\uart.o
                                                  02_STM_Drivers\STM32F4xx_HAL_Driver\Src\gipsy_hal_uart.o
HAL_UART_IRQHandler                               02_STM_Drivers\STM32F4xx_HAL_Driver\Src\gipsy_hal_uart.o
                                                  Src\gipsy_ctry_it.o
HAL_UART_Init                                     02_STM_Drivers\STM32F4xx_HAL_Driver\Src\gipsy_hal_uart.o
                                                  CTRY_Files\board_cfg_ctry.o
HAL_UART_Receive_IT                               02_STM_Drivers\STM32F4xx_HAL_Driver\Src\gipsy_hal_uart.o
                                                  01_Common\01_BSP\03_UART\uart.o
HAL_UART_Transmit                                 02_STM_Drivers\STM32F4xx_HAL_Driver\Src\gipsy_hal_uart.o
                                                  01_Common\02_CLI\00_CLI_ENGINE\cli_io.o
                                                  01_Common\01_BSP\03_UART\uart.o
HASH_RNG_IRQHandler                               Startup\startup_stm32f427xx.o
HI8429_Init                                       CTRY_Files\id_conf_ctry.o
                                                  CTRY_Files\board_cfg_ctry.o
                                                  01_Common\02_CLI\02_CLI_CTRY\cli_monitor_func_ctry.o
HardFault_Handler                                 Startup\startup_stm32f427xx.o
I2C1_ER_IRQHandler                                Startup\startup_stm32f427xx.o
